{
	"BlockchainAPP/contract1.sol": {
		"ProjetDAPP": {
			"abi": [
				{
					"inputs": [
						{
							"internalType": "address",
							"name": "",
							"type": "address"
						},
						{
							"internalType": "address",
							"name": "",
							"type": "address"
						}
					],
					"name": "accessPermissions",
					"outputs": [
						{
							"internalType": "bool",
							"name": "",
							"type": "bool"
						}
					],
					"stateMutability": "view",
					"type": "function"
				},
				{
					"inputs": [
						{
							"internalType": "string",
							"name": "_recordHash",
							"type": "string"
						}
					],
					"name": "addOrUpdateRecord",
					"outputs": [],
					"stateMutability": "nonpayable",
					"type": "function"
				},
				{
					"inputs": [
						{
							"internalType": "uint256",
							"name": "",
							"type": "uint256"
						}
					],
					"name": "audits",
					"outputs": [
						{
							"internalType": "uint256",
							"name": "timestamp",
							"type": "uint256"
						},
						{
							"internalType": "string",
							"name": "action",
							"type": "string"
						},
						{
							"internalType": "address",
							"name": "user",
							"type": "address"
						},
						{
							"internalType": "string",
							"name": "recordHash",
							"type": "string"
						},
						{
							"internalType": "string",
							"name": "actionType",
							"type": "string"
						}
					],
					"stateMutability": "view",
					"type": "function"
				},
				{
					"inputs": [
						{
							"internalType": "address",
							"name": "doctorAddress",
							"type": "address"
						}
					],
					"name": "authorizeAccess",
					"outputs": [],
					"stateMutability": "nonpayable",
					"type": "function"
				},
				{
					"inputs": [
						{
							"internalType": "uint256",
							"name": "",
							"type": "uint256"
						}
					],
					"name": "doctorAddresses",
					"outputs": [
						{
							"internalType": "address",
							"name": "",
							"type": "address"
						}
					],
					"stateMutability": "view",
					"type": "function"
				},
				{
					"inputs": [
						{
							"internalType": "address",
							"name": "",
							"type": "address"
						}
					],
					"name": "doctors",
					"outputs": [
						{
							"internalType": "string",
							"name": "firstName",
							"type": "string"
						},
						{
							"internalType": "string",
							"name": "lastName",
							"type": "string"
						},
						{
							"internalType": "string",
							"name": "specialty",
							"type": "string"
						},
						{
							"internalType": "address",
							"name": "doctorAddress",
							"type": "address"
						}
					],
					"stateMutability": "view",
					"type": "function"
				},
				{
					"inputs": [
						{
							"internalType": "address",
							"name": "",
							"type": "address"
						}
					],
					"name": "isDoctor",
					"outputs": [
						{
							"internalType": "bool",
							"name": "",
							"type": "bool"
						}
					],
					"stateMutability": "view",
					"type": "function"
				},
				{
					"inputs": [
						{
							"internalType": "address",
							"name": "",
							"type": "address"
						}
					],
					"name": "isPatient",
					"outputs": [
						{
							"internalType": "bool",
							"name": "",
							"type": "bool"
						}
					],
					"stateMutability": "view",
					"type": "function"
				},
				{
					"inputs": [
						{
							"internalType": "uint256",
							"name": "",
							"type": "uint256"
						}
					],
					"name": "patientAddresses",
					"outputs": [
						{
							"internalType": "address",
							"name": "",
							"type": "address"
						}
					],
					"stateMutability": "view",
					"type": "function"
				},
				{
					"inputs": [
						{
							"internalType": "address",
							"name": "",
							"type": "address"
						}
					],
					"name": "patients",
					"outputs": [
						{
							"internalType": "string",
							"name": "firstName",
							"type": "string"
						},
						{
							"internalType": "string",
							"name": "lastName",
							"type": "string"
						},
						{
							"internalType": "uint256",
							"name": "birthDate",
							"type": "uint256"
						},
						{
							"internalType": "string",
							"name": "addressDetails",
							"type": "string"
						},
						{
							"internalType": "address",
							"name": "patientAddress",
							"type": "address"
						}
					],
					"stateMutability": "view",
					"type": "function"
				},
				{
					"inputs": [
						{
							"internalType": "string",
							"name": "_firstName",
							"type": "string"
						},
						{
							"internalType": "string",
							"name": "_lastName",
							"type": "string"
						},
						{
							"internalType": "string",
							"name": "_specialty",
							"type": "string"
						}
					],
					"name": "registerDoctor",
					"outputs": [],
					"stateMutability": "nonpayable",
					"type": "function"
				},
				{
					"inputs": [
						{
							"internalType": "string",
							"name": "_firstName",
							"type": "string"
						},
						{
							"internalType": "string",
							"name": "_lastName",
							"type": "string"
						},
						{
							"internalType": "uint256",
							"name": "_birthDate",
							"type": "uint256"
						},
						{
							"internalType": "string",
							"name": "_addressDetails",
							"type": "string"
						}
					],
					"name": "registerPatient",
					"outputs": [],
					"stateMutability": "nonpayable",
					"type": "function"
				},
				{
					"inputs": [
						{
							"internalType": "address",
							"name": "doctorAddress",
							"type": "address"
						}
					],
					"name": "revokeAccess",
					"outputs": [],
					"stateMutability": "nonpayable",
					"type": "function"
				},
				{
					"inputs": [],
					"name": "viewAllAudits",
					"outputs": [
						{
							"components": [
								{
									"internalType": "uint256",
									"name": "timestamp",
									"type": "uint256"
								},
								{
									"internalType": "string",
									"name": "action",
									"type": "string"
								},
								{
									"internalType": "address",
									"name": "user",
									"type": "address"
								},
								{
									"internalType": "string",
									"name": "recordHash",
									"type": "string"
								},
								{
									"internalType": "string",
									"name": "actionType",
									"type": "string"
								}
							],
							"internalType": "struct ProjetDAPP.Audit[]",
							"name": "",
							"type": "tuple[]"
						}
					],
					"stateMutability": "view",
					"type": "function"
				},
				{
					"inputs": [],
					"name": "viewAllDoctors",
					"outputs": [
						{
							"internalType": "address[]",
							"name": "",
							"type": "address[]"
						}
					],
					"stateMutability": "view",
					"type": "function"
				},
				{
					"inputs": [],
					"name": "viewAllPatients",
					"outputs": [
						{
							"internalType": "address[]",
							"name": "",
							"type": "address[]"
						}
					],
					"stateMutability": "view",
					"type": "function"
				},
				{
					"inputs": [
						{
							"internalType": "address",
							"name": "patientAddress",
							"type": "address"
						}
					],
					"name": "viewMedicalRecord",
					"outputs": [
						{
							"internalType": "string[]",
							"name": "",
							"type": "string[]"
						}
					],
					"stateMutability": "view",
					"type": "function"
				},
				{
					"inputs": [
						{
							"internalType": "string",
							"name": "_recordHash",
							"type": "string"
						}
					],
					"name": "viewRecordAudit",
					"outputs": [
						{
							"components": [
								{
									"internalType": "uint256",
									"name": "timestamp",
									"type": "uint256"
								},
								{
									"internalType": "string",
									"name": "action",
									"type": "string"
								},
								{
									"internalType": "address",
									"name": "user",
									"type": "address"
								},
								{
									"internalType": "string",
									"name": "recordHash",
									"type": "string"
								},
								{
									"internalType": "string",
									"name": "actionType",
									"type": "string"
								}
							],
							"internalType": "struct ProjetDAPP.Audit[]",
							"name": "",
							"type": "tuple[]"
						}
					],
					"stateMutability": "view",
					"type": "function"
				}
			],
			"devdoc": {
				"kind": "dev",
				"methods": {},
				"version": 1
			},
			"evm": {
				"assembly": "    /* \"BlockchainAPP/contract1.sol\":57:5905  contract ProjetDAPP {... */\n  mstore(0x40, 0x80)\n  callvalue\n  dup1\n  iszero\n  tag_1\n  jumpi\n  0x00\n  dup1\n  revert\ntag_1:\n  pop\n  dataSize(sub_0)\n  dup1\n  dataOffset(sub_0)\n  0x00\n  codecopy\n  0x00\n  return\nstop\n\nsub_0: assembly {\n        /* \"BlockchainAPP/contract1.sol\":57:5905  contract ProjetDAPP {... */\n      mstore(0x40, 0x80)\n      callvalue\n      dup1\n      iszero\n      tag_1\n      jumpi\n      0x00\n      dup1\n      revert\n    tag_1:\n      pop\n      jumpi(tag_2, lt(calldatasize, 0x04))\n      shr(0xe0, calldataload(0x00))\n      dup1\n      0x8f9c79ed\n      gt\n      tag_21\n      jumpi\n      dup1\n      0xb40f1691\n      gt\n      tag_22\n      jumpi\n      dup1\n      0xb40f1691\n      eq\n      tag_16\n      jumpi\n      dup1\n      0xb60e73db\n      eq\n      tag_17\n      jumpi\n      dup1\n      0xbe12c4d8\n      eq\n      tag_18\n      jumpi\n      dup1\n      0xd46d2031\n      eq\n      tag_19\n      jumpi\n      dup1\n      0xeed14218\n      eq\n      tag_20\n      jumpi\n      jump(tag_2)\n    tag_22:\n      dup1\n      0x8f9c79ed\n      eq\n      tag_12\n      jumpi\n      dup1\n      0x96b58fdf\n      eq\n      tag_13\n      jumpi\n      dup1\n      0x996440c6\n      eq\n      tag_14\n      jumpi\n      dup1\n      0xa9583c22\n      eq\n      tag_15\n      jumpi\n      jump(tag_2)\n    tag_21:\n      dup1\n      0x6052f825\n      gt\n      tag_23\n      jumpi\n      dup1\n      0x6052f825\n      eq\n      tag_7\n      jumpi\n      dup1\n      0x64b3b525\n      eq\n      tag_8\n      jumpi\n      dup1\n      0x6d9ea78c\n      eq\n      tag_9\n      jumpi\n      dup1\n      0x7395be37\n      eq\n      tag_10\n      jumpi\n      dup1\n      0x85e68531\n      eq\n      tag_11\n      jumpi\n      jump(tag_2)\n    tag_23:\n      dup1\n      0x0869cfbc\n      eq\n      tag_3\n      jumpi\n      dup1\n      0x3710cb19\n      eq\n      tag_4\n      jumpi\n      dup1\n      0x3ba51e7c\n      eq\n      tag_5\n      jumpi\n      dup1\n      0x50c7a912\n      eq\n      tag_6\n      jumpi\n    tag_2:\n      0x00\n      dup1\n      revert\n        /* \"BlockchainAPP/contract1.sol\":766:809  mapping(address => Patient) public patients */\n    tag_3:\n      tag_24\n      0x04\n      dup1\n      calldatasize\n      sub\n      dup2\n      add\n      swap1\n      tag_25\n      swap2\n      swap1\n      tag_26\n      jump\t// in\n    tag_25:\n      tag_27\n      jump\t// in\n    tag_24:\n      mload(0x40)\n      tag_28\n      swap6\n      swap5\n      swap4\n      swap3\n      swap2\n      swap1\n      tag_29\n      jump\t// in\n    tag_28:\n      mload(0x40)\n      dup1\n      swap2\n      sub\n      swap1\n      return\n        /* \"BlockchainAPP/contract1.sol\":4838:5586  function viewRecordAudit(string memory _recordHash) public view returns (Audit[] memory) {... */\n    tag_4:\n      tag_30\n      0x04\n      dup1\n      calldatasize\n      sub\n      dup2\n      add\n      swap1\n      tag_31\n      swap2\n      swap1\n      tag_32\n      jump\t// in\n    tag_31:\n      tag_33\n      jump\t// in\n    tag_30:\n      mload(0x40)\n      tag_34\n      swap2\n      swap1\n      tag_35\n      jump\t// in\n    tag_34:\n      mload(0x40)\n      dup1\n      swap2\n      sub\n      swap1\n      return\n        /* \"BlockchainAPP/contract1.sol\":1096:1128  address[] public doctorAddresses */\n    tag_5:\n      tag_36\n      0x04\n      dup1\n      calldatasize\n      sub\n      dup2\n      add\n      swap1\n      tag_37\n      swap2\n      swap1\n      tag_38\n      jump\t// in\n    tag_37:\n      tag_39\n      jump\t// in\n    tag_36:\n      mload(0x40)\n      tag_40\n      swap2\n      swap1\n      tag_41\n      jump\t// in\n    tag_40:\n      mload(0x40)\n      dup1\n      swap2\n      sub\n      swap1\n      return\n        /* \"BlockchainAPP/contract1.sol\":2609:3212  function registerDoctor(... */\n    tag_6:\n      tag_42\n      0x04\n      dup1\n      calldatasize\n      sub\n      dup2\n      add\n      swap1\n      tag_43\n      swap2\n      swap1\n      tag_44\n      jump\t// in\n    tag_43:\n      tag_45\n      jump\t// in\n    tag_42:\n      stop\n        /* \"BlockchainAPP/contract1.sol\":4077:4256  function viewMedicalRecord(address patientAddress) public view onlyDoctor(patientAddress) returns (string[] memory) {... */\n    tag_7:\n      tag_46\n      0x04\n      dup1\n      calldatasize\n      sub\n      dup2\n      add\n      swap1\n      tag_47\n      swap2\n      swap1\n      tag_26\n      jump\t// in\n    tag_47:\n      tag_48\n      jump\t// in\n    tag_46:\n      mload(0x40)\n      tag_49\n      swap2\n      swap1\n      tag_50\n      jump\t// in\n    tag_49:\n      mload(0x40)\n      dup1\n      swap2\n      sub\n      swap1\n      return\n        /* \"BlockchainAPP/contract1.sol\":862:931  mapping(address => mapping(address => bool)) public accessPermissions */\n    tag_8:\n      tag_51\n      0x04\n      dup1\n      calldatasize\n      sub\n      dup2\n      add\n      swap1\n      tag_52\n      swap2\n      swap1\n      tag_53\n      jump\t// in\n    tag_52:\n      tag_54\n      jump\t// in\n    tag_51:\n      mload(0x40)\n      tag_55\n      swap2\n      swap1\n      tag_56\n      jump\t// in\n    tag_55:\n      mload(0x40)\n      dup1\n      swap2\n      sub\n      swap1\n      return\n        /* \"BlockchainAPP/contract1.sol\":3816:4019  function addOrUpdateRecord(string memory _recordHash) public onlyDoctor(msg.sender) {... */\n    tag_9:\n      tag_57\n      0x04\n      dup1\n      calldatasize\n      sub\n      dup2\n      add\n      swap1\n      tag_58\n      swap2\n      swap1\n      tag_32\n      jump\t// in\n    tag_58:\n      tag_59\n      jump\t// in\n    tag_57:\n      stop\n        /* \"BlockchainAPP/contract1.sol\":5640:5746  function viewAllPatients() public view returns (address[] memory) {... */\n    tag_10:\n      tag_60\n      tag_61\n      jump\t// in\n    tag_60:\n      mload(0x40)\n      tag_62\n      swap2\n      swap1\n      tag_63\n      jump\t// in\n    tag_62:\n      mload(0x40)\n      dup1\n      swap2\n      sub\n      swap1\n      return\n        /* \"BlockchainAPP/contract1.sol\":3562:3760  function revokeAccess(address doctorAddress) public onlyPatient(msg.sender) {... */\n    tag_11:\n      tag_64\n      0x04\n      dup1\n      calldatasize\n      sub\n      dup2\n      add\n      swap1\n      tag_65\n      swap2\n      swap1\n      tag_26\n      jump\t// in\n    tag_65:\n      tag_66\n      jump\t// in\n    tag_64:\n      stop\n        /* \"BlockchainAPP/contract1.sol\":1208:1249  mapping(address => bool) public isPatient */\n    tag_12:\n      tag_67\n      0x04\n      dup1\n      calldatasize\n      sub\n      dup2\n      add\n      swap1\n      tag_68\n      swap2\n      swap1\n      tag_26\n      jump\t// in\n    tag_68:\n      tag_69\n      jump\t// in\n    tag_67:\n      mload(0x40)\n      tag_70\n      swap2\n      swap1\n      tag_56\n      jump\t// in\n    tag_70:\n      mload(0x40)\n      dup1\n      swap2\n      sub\n      swap1\n      return\n        /* \"BlockchainAPP/contract1.sol\":1786:2566  function registerPatient(... */\n    tag_13:\n      tag_71\n      0x04\n      dup1\n      calldatasize\n      sub\n      dup2\n      add\n      swap1\n      tag_72\n      swap2\n      swap1\n      tag_73\n      jump\t// in\n    tag_72:\n      tag_74\n      jump\t// in\n    tag_71:\n      stop\n        /* \"BlockchainAPP/contract1.sol\":1255:1295  mapping(address => bool) public isDoctor */\n    tag_14:\n      tag_75\n      0x04\n      dup1\n      calldatasize\n      sub\n      dup2\n      add\n      swap1\n      tag_76\n      swap2\n      swap1\n      tag_26\n      jump\t// in\n    tag_76:\n      tag_77\n      jump\t// in\n    tag_75:\n      mload(0x40)\n      tag_78\n      swap2\n      swap1\n      tag_56\n      jump\t// in\n    tag_78:\n      mload(0x40)\n      dup1\n      swap2\n      sub\n      swap1\n      return\n        /* \"BlockchainAPP/contract1.sol\":815:856  mapping(address => Doctor) public doctors */\n    tag_15:\n      tag_79\n      0x04\n      dup1\n      calldatasize\n      sub\n      dup2\n      add\n      swap1\n      tag_80\n      swap2\n      swap1\n      tag_26\n      jump\t// in\n    tag_80:\n      tag_81\n      jump\t// in\n    tag_79:\n      mload(0x40)\n      tag_82\n      swap5\n      swap4\n      swap3\n      swap2\n      swap1\n      tag_83\n      jump\t// in\n    tag_82:\n      mload(0x40)\n      dup1\n      swap2\n      sub\n      swap1\n      return\n        /* \"BlockchainAPP/contract1.sol\":1057:1090  address[] public patientAddresses */\n    tag_16:\n      tag_84\n      0x04\n      dup1\n      calldatasize\n      sub\n      dup2\n      add\n      swap1\n      tag_85\n      swap2\n      swap1\n      tag_38\n      jump\t// in\n    tag_85:\n      tag_86\n      jump\t// in\n    tag_84:\n      mload(0x40)\n      tag_87\n      swap2\n      swap1\n      tag_41\n      jump\t// in\n    tag_87:\n      mload(0x40)\n      dup1\n      swap2\n      sub\n      swap1\n      return\n        /* \"BlockchainAPP/contract1.sol\":976:997  Audit[] public audits */\n    tag_17:\n      tag_88\n      0x04\n      dup1\n      calldatasize\n      sub\n      dup2\n      add\n      swap1\n      tag_89\n      swap2\n      swap1\n      tag_38\n      jump\t// in\n    tag_89:\n      tag_90\n      jump\t// in\n    tag_88:\n      mload(0x40)\n      tag_91\n      swap6\n      swap5\n      swap4\n      swap3\n      swap2\n      swap1\n      tag_92\n      jump\t// in\n    tag_91:\n      mload(0x40)\n      dup1\n      swap2\n      sub\n      swap1\n      return\n        /* \"BlockchainAPP/contract1.sol\":4677:4769  function viewAllAudits() public view returns (Audit[] memory) {... */\n    tag_18:\n      tag_93\n      tag_94\n      jump\t// in\n    tag_93:\n      mload(0x40)\n      tag_95\n      swap2\n      swap1\n      tag_35\n      jump\t// in\n    tag_95:\n      mload(0x40)\n      dup1\n      swap2\n      sub\n      swap1\n      return\n        /* \"BlockchainAPP/contract1.sol\":5799:5903  function viewAllDoctors() public view returns (address[] memory) {... */\n    tag_19:\n      tag_96\n      tag_97\n      jump\t// in\n    tag_96:\n      mload(0x40)\n      tag_98\n      swap2\n      swap1\n      tag_63\n      jump\t// in\n    tag_98:\n      mload(0x40)\n      dup1\n      swap2\n      sub\n      swap1\n      return\n        /* \"BlockchainAPP/contract1.sol\":3286:3489  function authorizeAccess(address doctorAddress) public onlyPatient(msg.sender) {... */\n    tag_20:\n      tag_99\n      0x04\n      dup1\n      calldatasize\n      sub\n      dup2\n      add\n      swap1\n      tag_100\n      swap2\n      swap1\n      tag_26\n      jump\t// in\n    tag_100:\n      tag_101\n      jump\t// in\n    tag_99:\n      stop\n        /* \"BlockchainAPP/contract1.sol\":766:809  mapping(address => Patient) public patients */\n    tag_27:\n      mstore(0x20, 0x00)\n      dup1\n      0x00\n      mstore\n      keccak256(0x00, 0x40)\n      0x00\n      swap2\n      pop\n      swap1\n      pop\n      dup1\n      0x00\n      add\n      dup1\n      sload\n      tag_102\n      swap1\n      tag_103\n      jump\t// in\n    tag_102:\n      dup1\n      0x1f\n      add\n      0x20\n      dup1\n      swap2\n      div\n      mul\n      0x20\n      add\n      mload(0x40)\n      swap1\n      dup2\n      add\n      0x40\n      mstore\n      dup1\n      swap3\n      swap2\n      swap1\n      dup2\n      dup2\n      mstore\n      0x20\n      add\n      dup3\n      dup1\n      sload\n      tag_104\n      swap1\n      tag_103\n      jump\t// in\n    tag_104:\n      dup1\n      iszero\n      tag_105\n      jumpi\n      dup1\n      0x1f\n      lt\n      tag_106\n      jumpi\n      0x0100\n      dup1\n      dup4\n      sload\n      div\n      mul\n      dup4\n      mstore\n      swap2\n      0x20\n      add\n      swap2\n      jump(tag_105)\n    tag_106:\n      dup3\n      add\n      swap2\n      swap1\n      0x00\n      mstore\n      keccak256(0x00, 0x20)\n      swap1\n    tag_107:\n      dup2\n      sload\n      dup2\n      mstore\n      swap1\n      0x01\n      add\n      swap1\n      0x20\n      add\n      dup1\n      dup4\n      gt\n      tag_107\n      jumpi\n      dup3\n      swap1\n      sub\n      0x1f\n      and\n      dup3\n      add\n      swap2\n    tag_105:\n      pop\n      pop\n      pop\n      pop\n      pop\n      swap1\n      dup1\n      0x01\n      add\n      dup1\n      sload\n      tag_108\n      swap1\n      tag_103\n      jump\t// in\n    tag_108:\n      dup1\n      0x1f\n      add\n      0x20\n      dup1\n      swap2\n      div\n      mul\n      0x20\n      add\n      mload(0x40)\n      swap1\n      dup2\n      add\n      0x40\n      mstore\n      dup1\n      swap3\n      swap2\n      swap1\n      dup2\n      dup2\n      mstore\n      0x20\n      add\n      dup3\n      dup1\n      sload\n      tag_109\n      swap1\n      tag_103\n      jump\t// in\n    tag_109:\n      dup1\n      iszero\n      tag_110\n      jumpi\n      dup1\n      0x1f\n      lt\n      tag_111\n      jumpi\n      0x0100\n      dup1\n      dup4\n      sload\n      div\n      mul\n      dup4\n      mstore\n      swap2\n      0x20\n      add\n      swap2\n      jump(tag_110)\n    tag_111:\n      dup3\n      add\n      swap2\n      swap1\n      0x00\n      mstore\n      keccak256(0x00, 0x20)\n      swap1\n    tag_112:\n      dup2\n      sload\n      dup2\n      mstore\n      swap1\n      0x01\n      add\n      swap1\n      0x20\n      add\n      dup1\n      dup4\n      gt\n      tag_112\n      jumpi\n      dup3\n      swap1\n      sub\n      0x1f\n      and\n      dup3\n      add\n      swap2\n    tag_110:\n      pop\n      pop\n      pop\n      pop\n      pop\n      swap1\n      dup1\n      0x02\n      add\n      sload\n      swap1\n      dup1\n      0x03\n      add\n      dup1\n      sload\n      tag_113\n      swap1\n      tag_103\n      jump\t// in\n    tag_113:\n      dup1\n      0x1f\n      add\n      0x20\n      dup1\n      swap2\n      div\n      mul\n      0x20\n      add\n      mload(0x40)\n      swap1\n      dup2\n      add\n      0x40\n      mstore\n      dup1\n      swap3\n      swap2\n      swap1\n      dup2\n      dup2\n      mstore\n      0x20\n      add\n      dup3\n      dup1\n      sload\n      tag_114\n      swap1\n      tag_103\n      jump\t// in\n    tag_114:\n      dup1\n      iszero\n      tag_115\n      jumpi\n      dup1\n      0x1f\n      lt\n      tag_116\n      jumpi\n      0x0100\n      dup1\n      dup4\n      sload\n      div\n      mul\n      dup4\n      mstore\n      swap2\n      0x20\n      add\n      swap2\n      jump(tag_115)\n    tag_116:\n      dup3\n      add\n      swap2\n      swap1\n      0x00\n      mstore\n      keccak256(0x00, 0x20)\n      swap1\n    tag_117:\n      dup2\n      sload\n      dup2\n      mstore\n      swap1\n      0x01\n      add\n      swap1\n      0x20\n      add\n      dup1\n      dup4\n      gt\n      tag_117\n      jumpi\n      dup3\n      swap1\n      sub\n      0x1f\n      and\n      dup3\n      add\n      swap2\n    tag_115:\n      pop\n      pop\n      pop\n      pop\n      pop\n      swap1\n      dup1\n      0x04\n      add\n      0x00\n      swap1\n      sload\n      swap1\n      0x0100\n      exp\n      swap1\n      div\n      0xffffffffffffffffffffffffffffffffffffffff\n      and\n      swap1\n      pop\n      dup6\n      jump\t// out\n        /* \"BlockchainAPP/contract1.sol\":4838:5586  function viewRecordAudit(string memory _recordHash) public view returns (Audit[] memory) {... */\n    tag_33:\n        /* \"BlockchainAPP/contract1.sol\":4911:4925  Audit[] memory */\n      0x60\n        /* \"BlockchainAPP/contract1.sol\":4937:4947  uint count */\n      0x00\n        /* \"BlockchainAPP/contract1.sol\":5029:5035  uint i */\n      dup1\n        /* \"BlockchainAPP/contract1.sol\":5024:5228  for (uint i = 0; i < audits.length; i++) {... */\n    tag_119:\n        /* \"BlockchainAPP/contract1.sol\":5045:5051  audits */\n      0x03\n        /* \"BlockchainAPP/contract1.sol\":5045:5058  audits.length */\n      dup1\n      sload\n      swap1\n      pop\n        /* \"BlockchainAPP/contract1.sol\":5041:5042  i */\n      dup2\n        /* \"BlockchainAPP/contract1.sol\":5041:5058  i < audits.length */\n      lt\n        /* \"BlockchainAPP/contract1.sol\":5024:5228  for (uint i = 0; i < audits.length; i++) {... */\n      iszero\n      tag_120\n      jumpi\n        /* \"BlockchainAPP/contract1.sol\":5163:5174  _recordHash */\n      dup4\n        /* \"BlockchainAPP/contract1.sol\":5146:5175  abi.encodePacked(_recordHash) */\n      add(0x20, mload(0x40))\n      tag_122\n      swap2\n      swap1\n      tag_123\n      jump\t// in\n    tag_122:\n      mload(0x40)\n      0x20\n      dup2\n      dup4\n      sub\n      sub\n      dup2\n      mstore\n      swap1\n      0x40\n      mstore\n        /* \"BlockchainAPP/contract1.sol\":5136:5176  keccak256(abi.encodePacked(_recordHash)) */\n      dup1\n      mload\n      swap1\n      0x20\n      add\n      keccak256\n        /* \"BlockchainAPP/contract1.sol\":5110:5116  audits */\n      0x03\n        /* \"BlockchainAPP/contract1.sol\":5117:5118  i */\n      dup3\n        /* \"BlockchainAPP/contract1.sol\":5110:5119  audits[i] */\n      dup2\n      sload\n      dup2\n      lt\n      tag_124\n      jumpi\n      tag_125\n      tag_126\n      jump\t// in\n    tag_125:\n    tag_124:\n      swap1\n      0x00\n      mstore\n      keccak256(0x00, 0x20)\n      swap1\n      0x05\n      mul\n      add\n        /* \"BlockchainAPP/contract1.sol\":5110:5130  audits[i].recordHash */\n      0x03\n      add\n        /* \"BlockchainAPP/contract1.sol\":5093:5131  abi.encodePacked(audits[i].recordHash) */\n      add(0x20, mload(0x40))\n      tag_128\n      swap2\n      swap1\n      tag_129\n      jump\t// in\n    tag_128:\n      mload(0x40)\n      0x20\n      dup2\n      dup4\n      sub\n      sub\n      dup2\n      mstore\n      swap1\n      0x40\n      mstore\n        /* \"BlockchainAPP/contract1.sol\":5083:5132  keccak256(abi.encodePacked(audits[i].recordHash)) */\n      dup1\n      mload\n      swap1\n      0x20\n      add\n      keccak256\n        /* \"BlockchainAPP/contract1.sol\":5083:5176  keccak256(abi.encodePacked(audits[i].recordHash)) == keccak256(abi.encodePacked(_recordHash)) */\n      sub\n        /* \"BlockchainAPP/contract1.sol\":5079:5218  if (keccak256(abi.encodePacked(audits[i].recordHash)) == keccak256(abi.encodePacked(_recordHash))) {... */\n      tag_130\n      jumpi\n        /* \"BlockchainAPP/contract1.sol\":5196:5203  count++ */\n      dup2\n      dup1\n      tag_131\n      swap1\n      tag_132\n      jump\t// in\n    tag_131:\n      swap3\n      pop\n      pop\n        /* \"BlockchainAPP/contract1.sol\":5079:5218  if (keccak256(abi.encodePacked(audits[i].recordHash)) == keccak256(abi.encodePacked(_recordHash))) {... */\n    tag_130:\n        /* \"BlockchainAPP/contract1.sol\":5060:5063  i++ */\n      dup1\n      dup1\n      0x01\n      add\n      swap2\n      pop\n      pop\n        /* \"BlockchainAPP/contract1.sol\":5024:5228  for (uint i = 0; i < audits.length; i++) {... */\n      jump(tag_119)\n    tag_120:\n      pop\n        /* \"BlockchainAPP/contract1.sol\":5246:5267  Audit[] memory result */\n      0x00\n        /* \"BlockchainAPP/contract1.sol\":5282:5287  count */\n      dup2\n        /* \"BlockchainAPP/contract1.sol\":5270:5288  new Audit[](count) */\n      0xffffffffffffffff\n      dup2\n      gt\n      iszero\n      tag_133\n      jumpi\n      tag_134\n      tag_135\n      jump\t// in\n    tag_134:\n    tag_133:\n      mload(0x40)\n      swap1\n      dup1\n      dup3\n      mstore\n      dup1\n      0x20\n      mul\n      0x20\n      add\n      dup3\n      add\n      0x40\n      mstore\n      dup1\n      iszero\n      tag_136\n      jumpi\n      dup2\n      0x20\n      add\n    tag_137:\n      tag_138\n      tag_139\n      jump\t// in\n    tag_138:\n      dup2\n      mstore\n      0x20\n      add\n      swap1\n      0x01\n      swap1\n      sub\n      swap1\n      dup2\n      tag_137\n      jumpi\n      swap1\n      pop\n    tag_136:\n      pop\n        /* \"BlockchainAPP/contract1.sol\":5246:5288  Audit[] memory result = new Audit[](count) */\n      swap1\n      pop\n        /* \"BlockchainAPP/contract1.sol\":5298:5304  uint j */\n      0x00\n        /* \"BlockchainAPP/contract1.sol\":5323:5329  uint i */\n      dup1\n        /* \"BlockchainAPP/contract1.sol\":5318:5557  for (uint i = 0; i < audits.length; i++) {... */\n    tag_140:\n        /* \"BlockchainAPP/contract1.sol\":5339:5345  audits */\n      0x03\n        /* \"BlockchainAPP/contract1.sol\":5339:5352  audits.length */\n      dup1\n      sload\n      swap1\n      pop\n        /* \"BlockchainAPP/contract1.sol\":5335:5336  i */\n      dup2\n        /* \"BlockchainAPP/contract1.sol\":5335:5352  i < audits.length */\n      lt\n        /* \"BlockchainAPP/contract1.sol\":5318:5557  for (uint i = 0; i < audits.length; i++) {... */\n      iszero\n      tag_141\n      jumpi\n        /* \"BlockchainAPP/contract1.sol\":5457:5468  _recordHash */\n      dup6\n        /* \"BlockchainAPP/contract1.sol\":5440:5469  abi.encodePacked(_recordHash) */\n      add(0x20, mload(0x40))\n      tag_143\n      swap2\n      swap1\n      tag_123\n      jump\t// in\n    tag_143:\n      mload(0x40)\n      0x20\n      dup2\n      dup4\n      sub\n      sub\n      dup2\n      mstore\n      swap1\n      0x40\n      mstore\n        /* \"BlockchainAPP/contract1.sol\":5430:5470  keccak256(abi.encodePacked(_recordHash)) */\n      dup1\n      mload\n      swap1\n      0x20\n      add\n      keccak256\n        /* \"BlockchainAPP/contract1.sol\":5404:5410  audits */\n      0x03\n        /* \"BlockchainAPP/contract1.sol\":5411:5412  i */\n      dup3\n        /* \"BlockchainAPP/contract1.sol\":5404:5413  audits[i] */\n      dup2\n      sload\n      dup2\n      lt\n      tag_144\n      jumpi\n      tag_145\n      tag_126\n      jump\t// in\n    tag_145:\n    tag_144:\n      swap1\n      0x00\n      mstore\n      keccak256(0x00, 0x20)\n      swap1\n      0x05\n      mul\n      add\n        /* \"BlockchainAPP/contract1.sol\":5404:5424  audits[i].recordHash */\n      0x03\n      add\n        /* \"BlockchainAPP/contract1.sol\":5387:5425  abi.encodePacked(audits[i].recordHash) */\n      add(0x20, mload(0x40))\n      tag_147\n      swap2\n      swap1\n      tag_129\n      jump\t// in\n    tag_147:\n      mload(0x40)\n      0x20\n      dup2\n      dup4\n      sub\n      sub\n      dup2\n      mstore\n      swap1\n      0x40\n      mstore\n        /* \"BlockchainAPP/contract1.sol\":5377:5426  keccak256(abi.encodePacked(audits[i].recordHash)) */\n      dup1\n      mload\n      swap1\n      0x20\n      add\n      keccak256\n        /* \"BlockchainAPP/contract1.sol\":5377:5470  keccak256(abi.encodePacked(audits[i].recordHash)) == keccak256(abi.encodePacked(_recordHash)) */\n      sub\n        /* \"BlockchainAPP/contract1.sol\":5373:5547  if (keccak256(abi.encodePacked(audits[i].recordHash)) == keccak256(abi.encodePacked(_recordHash))) {... */\n      tag_148\n      jumpi\n        /* \"BlockchainAPP/contract1.sol\":5502:5508  audits */\n      0x03\n        /* \"BlockchainAPP/contract1.sol\":5509:5510  i */\n      dup2\n        /* \"BlockchainAPP/contract1.sol\":5502:5511  audits[i] */\n      dup2\n      sload\n      dup2\n      lt\n      tag_149\n      jumpi\n      tag_150\n      tag_126\n      jump\t// in\n    tag_150:\n    tag_149:\n      swap1\n      0x00\n      mstore\n      keccak256(0x00, 0x20)\n      swap1\n      0x05\n      mul\n      add\n        /* \"BlockchainAPP/contract1.sol\":5490:5511  result[j] = audits[i] */\n      mload(0x40)\n      dup1\n      0xa0\n      add\n      0x40\n      mstore\n      swap1\n      dup2\n      0x00\n      dup3\n      add\n      sload\n      dup2\n      mstore\n      0x20\n      add\n      0x01\n      dup3\n      add\n      dup1\n      sload\n      tag_152\n      swap1\n      tag_103\n      jump\t// in\n    tag_152:\n      dup1\n      0x1f\n      add\n      0x20\n      dup1\n      swap2\n      div\n      mul\n      0x20\n      add\n      mload(0x40)\n      swap1\n      dup2\n      add\n      0x40\n      mstore\n      dup1\n      swap3\n      swap2\n      swap1\n      dup2\n      dup2\n      mstore\n      0x20\n      add\n      dup3\n      dup1\n      sload\n      tag_153\n      swap1\n      tag_103\n      jump\t// in\n    tag_153:\n      dup1\n      iszero\n      tag_154\n      jumpi\n      dup1\n      0x1f\n      lt\n      tag_155\n      jumpi\n      0x0100\n      dup1\n      dup4\n      sload\n      div\n      mul\n      dup4\n      mstore\n      swap2\n      0x20\n      add\n      swap2\n      jump(tag_154)\n    tag_155:\n      dup3\n      add\n      swap2\n      swap1\n      0x00\n      mstore\n      keccak256(0x00, 0x20)\n      swap1\n    tag_156:\n      dup2\n      sload\n      dup2\n      mstore\n      swap1\n      0x01\n      add\n      swap1\n      0x20\n      add\n      dup1\n      dup4\n      gt\n      tag_156\n      jumpi\n      dup3\n      swap1\n      sub\n      0x1f\n      and\n      dup3\n      add\n      swap2\n    tag_154:\n      pop\n      pop\n      pop\n      pop\n      pop\n      dup2\n      mstore\n      0x20\n      add\n      0x02\n      dup3\n      add\n      0x00\n      swap1\n      sload\n      swap1\n      0x0100\n      exp\n      swap1\n      div\n      0xffffffffffffffffffffffffffffffffffffffff\n      and\n      0xffffffffffffffffffffffffffffffffffffffff\n      and\n      0xffffffffffffffffffffffffffffffffffffffff\n      and\n      dup2\n      mstore\n      0x20\n      add\n      0x03\n      dup3\n      add\n      dup1\n      sload\n      tag_157\n      swap1\n      tag_103\n      jump\t// in\n    tag_157:\n      dup1\n      0x1f\n      add\n      0x20\n      dup1\n      swap2\n      div\n      mul\n      0x20\n      add\n      mload(0x40)\n      swap1\n      dup2\n      add\n      0x40\n      mstore\n      dup1\n      swap3\n      swap2\n      swap1\n      dup2\n      dup2\n      mstore\n      0x20\n      add\n      dup3\n      dup1\n      sload\n      tag_158\n      swap1\n      tag_103\n      jump\t// in\n    tag_158:\n      dup1\n      iszero\n      tag_159\n      jumpi\n      dup1\n      0x1f\n      lt\n      tag_160\n      jumpi\n      0x0100\n      dup1\n      dup4\n      sload\n      div\n      mul\n      dup4\n      mstore\n      swap2\n      0x20\n      add\n      swap2\n      jump(tag_159)\n    tag_160:\n      dup3\n      add\n      swap2\n      swap1\n      0x00\n      mstore\n      keccak256(0x00, 0x20)\n      swap1\n    tag_161:\n      dup2\n      sload\n      dup2\n      mstore\n      swap1\n      0x01\n      add\n      swap1\n      0x20\n      add\n      dup1\n      dup4\n      gt\n      tag_161\n      jumpi\n      dup3\n      swap1\n      sub\n      0x1f\n      and\n      dup3\n      add\n      swap2\n    tag_159:\n      pop\n      pop\n      pop\n      pop\n      pop\n      dup2\n      mstore\n      0x20\n      add\n      0x04\n      dup3\n      add\n      dup1\n      sload\n      tag_162\n      swap1\n      tag_103\n      jump\t// in\n    tag_162:\n      dup1\n      0x1f\n      add\n      0x20\n      dup1\n      swap2\n      div\n      mul\n      0x20\n      add\n      mload(0x40)\n      swap1\n      dup2\n      add\n      0x40\n      mstore\n      dup1\n      swap3\n      swap2\n      swap1\n      dup2\n      dup2\n      mstore\n      0x20\n      add\n      dup3\n      dup1\n      sload\n      tag_163\n      swap1\n      tag_103\n      jump\t// in\n    tag_163:\n      dup1\n      iszero\n      tag_164\n      jumpi\n      dup1\n      0x1f\n      lt\n      tag_165\n      jumpi\n      0x0100\n      dup1\n      dup4\n      sload\n      div\n      mul\n      dup4\n      mstore\n      swap2\n      0x20\n      add\n      swap2\n      jump(tag_164)\n    tag_165:\n      dup3\n      add\n      swap2\n      swap1\n      0x00\n      mstore\n      keccak256(0x00, 0x20)\n      swap1\n    tag_166:\n      dup2\n      sload\n      dup2\n      mstore\n      swap1\n      0x01\n      add\n      swap1\n      0x20\n      add\n      dup1\n      dup4\n      gt\n      tag_166\n      jumpi\n      dup3\n      swap1\n      sub\n      0x1f\n      and\n      dup3\n      add\n      swap2\n    tag_164:\n      pop\n      pop\n      pop\n      pop\n      pop\n      dup2\n      mstore\n      pop\n      pop\n        /* \"BlockchainAPP/contract1.sol\":5490:5496  result */\n      dup4\n        /* \"BlockchainAPP/contract1.sol\":5497:5498  j */\n      dup4\n        /* \"BlockchainAPP/contract1.sol\":5490:5499  result[j] */\n      dup2\n      mload\n      dup2\n      lt\n      tag_167\n      jumpi\n      tag_168\n      tag_126\n      jump\t// in\n    tag_168:\n    tag_167:\n      0x20\n      mul\n      0x20\n      add\n      add\n        /* \"BlockchainAPP/contract1.sol\":5490:5511  result[j] = audits[i] */\n      dup2\n      swap1\n      mstore\n      pop\n        /* \"BlockchainAPP/contract1.sol\":5529:5532  j++ */\n      dup2\n      dup1\n      tag_169\n      swap1\n      tag_132\n      jump\t// in\n    tag_169:\n      swap3\n      pop\n      pop\n        /* \"BlockchainAPP/contract1.sol\":5373:5547  if (keccak256(abi.encodePacked(audits[i].recordHash)) == keccak256(abi.encodePacked(_recordHash))) {... */\n    tag_148:\n        /* \"BlockchainAPP/contract1.sol\":5354:5357  i++ */\n      dup1\n      dup1\n      0x01\n      add\n      swap2\n      pop\n      pop\n        /* \"BlockchainAPP/contract1.sol\":5318:5557  for (uint i = 0; i < audits.length; i++) {... */\n      jump(tag_140)\n    tag_141:\n      pop\n        /* \"BlockchainAPP/contract1.sol\":5573:5579  result */\n      dup2\n        /* \"BlockchainAPP/contract1.sol\":5566:5579  return result */\n      swap4\n      pop\n      pop\n      pop\n      pop\n        /* \"BlockchainAPP/contract1.sol\":4838:5586  function viewRecordAudit(string memory _recordHash) public view returns (Audit[] memory) {... */\n      swap2\n      swap1\n      pop\n      jump\t// out\n        /* \"BlockchainAPP/contract1.sol\":1096:1128  address[] public doctorAddresses */\n    tag_39:\n      0x05\n      dup2\n      dup2\n      sload\n      dup2\n      lt\n      tag_170\n      jumpi\n      0x00\n      dup1\n      revert\n    tag_170:\n      swap1\n      0x00\n      mstore\n      keccak256(0x00, 0x20)\n      add\n      0x00\n      swap2\n      pop\n      sload\n      swap1\n      0x0100\n      exp\n      swap1\n      div\n      0xffffffffffffffffffffffffffffffffffffffff\n      and\n      dup2\n      jump\t// out\n        /* \"BlockchainAPP/contract1.sol\":2609:3212  function registerDoctor(... */\n    tag_45:\n        /* \"BlockchainAPP/contract1.sol\":2766:2775  isPatient */\n      0x06\n        /* \"BlockchainAPP/contract1.sol\":2766:2787  isPatient[msg.sender] */\n      0x00\n        /* \"BlockchainAPP/contract1.sol\":2776:2786  msg.sender */\n      caller\n        /* \"BlockchainAPP/contract1.sol\":2766:2787  isPatient[msg.sender] */\n      0xffffffffffffffffffffffffffffffffffffffff\n      and\n      0xffffffffffffffffffffffffffffffffffffffff\n      and\n      dup2\n      mstore\n      0x20\n      add\n      swap1\n      dup2\n      mstore\n      0x20\n      add\n      0x00\n      keccak256\n      0x00\n      swap1\n      sload\n      swap1\n      0x0100\n      exp\n      swap1\n      div\n      0xff\n      and\n        /* \"BlockchainAPP/contract1.sol\":2765:2787  !isPatient[msg.sender] */\n      iszero\n        /* \"BlockchainAPP/contract1.sol\":2765:2812  !isPatient[msg.sender] && !isDoctor[msg.sender] */\n      dup1\n      iszero\n      tag_173\n      jumpi\n      pop\n        /* \"BlockchainAPP/contract1.sol\":2792:2800  isDoctor */\n      0x07\n        /* \"BlockchainAPP/contract1.sol\":2792:2812  isDoctor[msg.sender] */\n      0x00\n        /* \"BlockchainAPP/contract1.sol\":2801:2811  msg.sender */\n      caller\n        /* \"BlockchainAPP/contract1.sol\":2792:2812  isDoctor[msg.sender] */\n      0xffffffffffffffffffffffffffffffffffffffff\n      and\n      0xffffffffffffffffffffffffffffffffffffffff\n      and\n      dup2\n      mstore\n      0x20\n      add\n      swap1\n      dup2\n      mstore\n      0x20\n      add\n      0x00\n      keccak256\n      0x00\n      swap1\n      sload\n      swap1\n      0x0100\n      exp\n      swap1\n      div\n      0xff\n      and\n        /* \"BlockchainAPP/contract1.sol\":2791:2812  !isDoctor[msg.sender] */\n      iszero\n        /* \"BlockchainAPP/contract1.sol\":2765:2812  !isPatient[msg.sender] && !isDoctor[msg.sender] */\n    tag_173:\n        /* \"BlockchainAPP/contract1.sol\":2757:2876  require(!isPatient[msg.sender] && !isDoctor[msg.sender], \"You are already registered as either a patient or a doctor.\") */\n      tag_174\n      jumpi\n      mload(0x40)\n      0x08c379a000000000000000000000000000000000000000000000000000000000\n      dup2\n      mstore\n      0x04\n      add\n      tag_175\n      swap1\n      tag_176\n      jump\t// in\n    tag_175:\n      mload(0x40)\n      dup1\n      swap2\n      sub\n      swap1\n      revert\n    tag_174:\n        /* \"BlockchainAPP/contract1.sol\":2917:3077  Doctor({... */\n      mload(0x40)\n      dup1\n      0x80\n      add\n      0x40\n      mstore\n      dup1\n        /* \"BlockchainAPP/contract1.sol\":2949:2959  _firstName */\n      dup5\n        /* \"BlockchainAPP/contract1.sol\":2917:3077  Doctor({... */\n      dup2\n      mstore\n      0x20\n      add\n        /* \"BlockchainAPP/contract1.sol\":2983:2992  _lastName */\n      dup4\n        /* \"BlockchainAPP/contract1.sol\":2917:3077  Doctor({... */\n      dup2\n      mstore\n      0x20\n      add\n        /* \"BlockchainAPP/contract1.sol\":3017:3027  _specialty */\n      dup3\n        /* \"BlockchainAPP/contract1.sol\":2917:3077  Doctor({... */\n      dup2\n      mstore\n      0x20\n      add\n        /* \"BlockchainAPP/contract1.sol\":3056:3066  msg.sender */\n      caller\n        /* \"BlockchainAPP/contract1.sol\":2917:3077  Doctor({... */\n      0xffffffffffffffffffffffffffffffffffffffff\n      and\n      dup2\n      mstore\n      pop\n        /* \"BlockchainAPP/contract1.sol\":2895:2902  doctors */\n      0x01\n        /* \"BlockchainAPP/contract1.sol\":2895:2914  doctors[msg.sender] */\n      0x00\n        /* \"BlockchainAPP/contract1.sol\":2903:2913  msg.sender */\n      caller\n        /* \"BlockchainAPP/contract1.sol\":2895:2914  doctors[msg.sender] */\n      0xffffffffffffffffffffffffffffffffffffffff\n      and\n      0xffffffffffffffffffffffffffffffffffffffff\n      and\n      dup2\n      mstore\n      0x20\n      add\n      swap1\n      dup2\n      mstore\n      0x20\n      add\n      0x00\n      keccak256\n        /* \"BlockchainAPP/contract1.sol\":2895:3077  doctors[msg.sender] = Doctor({... */\n      0x00\n      dup3\n      add\n      mload\n      dup2\n      0x00\n      add\n      swap1\n      dup2\n      tag_177\n      swap2\n      swap1\n      tag_178\n      jump\t// in\n    tag_177:\n      pop\n      0x20\n      dup3\n      add\n      mload\n      dup2\n      0x01\n      add\n      swap1\n      dup2\n      tag_179\n      swap2\n      swap1\n      tag_178\n      jump\t// in\n    tag_179:\n      pop\n      0x40\n      dup3\n      add\n      mload\n      dup2\n      0x02\n      add\n      swap1\n      dup2\n      tag_180\n      swap2\n      swap1\n      tag_178\n      jump\t// in\n    tag_180:\n      pop\n      0x60\n      dup3\n      add\n      mload\n      dup2\n      0x03\n      add\n      exp(0x0100, 0x00)\n      dup2\n      sload\n      dup2\n      0xffffffffffffffffffffffffffffffffffffffff\n      mul\n      not\n      and\n      swap1\n      dup4\n      0xffffffffffffffffffffffffffffffffffffffff\n      and\n      mul\n      or\n      swap1\n      sstore\n      pop\n      swap1\n      pop\n      pop\n        /* \"BlockchainAPP/contract1.sol\":3159:3163  true */\n      0x01\n        /* \"BlockchainAPP/contract1.sol\":3136:3144  isDoctor */\n      0x07\n        /* \"BlockchainAPP/contract1.sol\":3136:3156  isDoctor[msg.sender] */\n      0x00\n        /* \"BlockchainAPP/contract1.sol\":3145:3155  msg.sender */\n      caller\n        /* \"BlockchainAPP/contract1.sol\":3136:3156  isDoctor[msg.sender] */\n      0xffffffffffffffffffffffffffffffffffffffff\n      and\n      0xffffffffffffffffffffffffffffffffffffffff\n      and\n      dup2\n      mstore\n      0x20\n      add\n      swap1\n      dup2\n      mstore\n      0x20\n      add\n      0x00\n      keccak256\n      0x00\n        /* \"BlockchainAPP/contract1.sol\":3136:3163  isDoctor[msg.sender] = true */\n      0x0100\n      exp\n      dup2\n      sload\n      dup2\n      0xff\n      mul\n      not\n      and\n      swap1\n      dup4\n      iszero\n      iszero\n      mul\n      or\n      swap1\n      sstore\n      pop\n        /* \"BlockchainAPP/contract1.sol\":3173:3188  doctorAddresses */\n      0x05\n        /* \"BlockchainAPP/contract1.sol\":3194:3204  msg.sender */\n      caller\n        /* \"BlockchainAPP/contract1.sol\":3173:3205  doctorAddresses.push(msg.sender) */\n      swap1\n      dup1\n      0x01\n      dup2\n      sload\n      add\n      dup1\n      dup3\n      sstore\n      dup1\n      swap2\n      pop\n      pop\n      0x01\n      swap1\n      sub\n      swap1\n      0x00\n      mstore\n      keccak256(0x00, 0x20)\n      add\n      0x00\n      swap1\n      swap2\n      swap1\n      swap2\n      swap1\n      swap2\n      0x0100\n      exp\n      dup2\n      sload\n      dup2\n      0xffffffffffffffffffffffffffffffffffffffff\n      mul\n      not\n      and\n      swap1\n      dup4\n      0xffffffffffffffffffffffffffffffffffffffff\n      and\n      mul\n      or\n      swap1\n      sstore\n      pop\n        /* \"BlockchainAPP/contract1.sol\":2609:3212  function registerDoctor(... */\n      pop\n      pop\n      pop\n      jump\t// out\n        /* \"BlockchainAPP/contract1.sol\":4077:4256  function viewMedicalRecord(address patientAddress) public view onlyDoctor(patientAddress) returns (string[] memory) {... */\n    tag_48:\n        /* \"BlockchainAPP/contract1.sol\":4176:4191  string[] memory */\n      0x60\n        /* \"BlockchainAPP/contract1.sol\":4151:4165  patientAddress */\n      dup2\n        /* \"BlockchainAPP/contract1.sol\":1427:1444  accessPermissions */\n      0x02\n        /* \"BlockchainAPP/contract1.sol\":1427:1460  accessPermissions[patientAddress] */\n      0x00\n        /* \"BlockchainAPP/contract1.sol\":1445:1459  patientAddress */\n      dup3\n        /* \"BlockchainAPP/contract1.sol\":1427:1460  accessPermissions[patientAddress] */\n      0xffffffffffffffffffffffffffffffffffffffff\n      and\n      0xffffffffffffffffffffffffffffffffffffffff\n      and\n      dup2\n      mstore\n      0x20\n      add\n      swap1\n      dup2\n      mstore\n      0x20\n      add\n      0x00\n      keccak256\n        /* \"BlockchainAPP/contract1.sol\":1427:1472  accessPermissions[patientAddress][msg.sender] */\n      0x00\n        /* \"BlockchainAPP/contract1.sol\":1461:1471  msg.sender */\n      caller\n        /* \"BlockchainAPP/contract1.sol\":1427:1472  accessPermissions[patientAddress][msg.sender] */\n      0xffffffffffffffffffffffffffffffffffffffff\n      and\n      0xffffffffffffffffffffffffffffffffffffffff\n      and\n      dup2\n      mstore\n      0x20\n      add\n      swap1\n      dup2\n      mstore\n      0x20\n      add\n      0x00\n      keccak256\n      0x00\n      swap1\n      sload\n      swap1\n      0x0100\n      exp\n      swap1\n      div\n      0xff\n      and\n        /* \"BlockchainAPP/contract1.sol\":1419:1526  require(accessPermissions[patientAddress][msg.sender], \"You do not have permission to access this record.\") */\n      tag_183\n      jumpi\n      mload(0x40)\n      0x08c379a000000000000000000000000000000000000000000000000000000000\n      dup2\n      mstore\n      0x04\n      add\n      tag_184\n      swap1\n      tag_185\n      jump\t// in\n    tag_184:\n      mload(0x40)\n      dup1\n      swap2\n      sub\n      swap1\n      revert\n    tag_183:\n        /* \"BlockchainAPP/contract1.sol\":4210:4218  patients */\n      0x00\n        /* \"BlockchainAPP/contract1.sol\":4210:4234  patients[patientAddress] */\n      dup1\n        /* \"BlockchainAPP/contract1.sol\":4219:4233  patientAddress */\n      dup5\n        /* \"BlockchainAPP/contract1.sol\":4210:4234  patients[patientAddress] */\n      0xffffffffffffffffffffffffffffffffffffffff\n      and\n      0xffffffffffffffffffffffffffffffffffffffff\n      and\n      dup2\n      mstore\n      0x20\n      add\n      swap1\n      dup2\n      mstore\n      0x20\n      add\n      0x00\n      keccak256\n        /* \"BlockchainAPP/contract1.sol\":4210:4249  patients[patientAddress].medicalHistory */\n      0x05\n      add\n        /* \"BlockchainAPP/contract1.sol\":4203:4249  return patients[patientAddress].medicalHistory */\n      dup1\n      sload\n      dup1\n      0x20\n      mul\n      0x20\n      add\n      mload(0x40)\n      swap1\n      dup2\n      add\n      0x40\n      mstore\n      dup1\n      swap3\n      swap2\n      swap1\n      dup2\n      dup2\n      mstore\n      0x20\n      add\n      0x00\n      swap1\n    tag_187:\n      dup3\n      dup3\n      lt\n      iszero\n      tag_188\n      jumpi\n      dup4\n      dup3\n      swap1\n      0x00\n      mstore\n      keccak256(0x00, 0x20)\n      add\n      dup1\n      sload\n      tag_190\n      swap1\n      tag_103\n      jump\t// in\n    tag_190:\n      dup1\n      0x1f\n      add\n      0x20\n      dup1\n      swap2\n      div\n      mul\n      0x20\n      add\n      mload(0x40)\n      swap1\n      dup2\n      add\n      0x40\n      mstore\n      dup1\n      swap3\n      swap2\n      swap1\n      dup2\n      dup2\n      mstore\n      0x20\n      add\n      dup3\n      dup1\n      sload\n      tag_191\n      swap1\n      tag_103\n      jump\t// in\n    tag_191:\n      dup1\n      iszero\n      tag_192\n      jumpi\n      dup1\n      0x1f\n      lt\n      tag_193\n      jumpi\n      0x0100\n      dup1\n      dup4\n      sload\n      div\n      mul\n      dup4\n      mstore\n      swap2\n      0x20\n      add\n      swap2\n      jump(tag_192)\n    tag_193:\n      dup3\n      add\n      swap2\n      swap1\n      0x00\n      mstore\n      keccak256(0x00, 0x20)\n      swap1\n    tag_194:\n      dup2\n      sload\n      dup2\n      mstore\n      swap1\n      0x01\n      add\n      swap1\n      0x20\n      add\n      dup1\n      dup4\n      gt\n      tag_194\n      jumpi\n      dup3\n      swap1\n      sub\n      0x1f\n      and\n      dup3\n      add\n      swap2\n    tag_192:\n      pop\n      pop\n      pop\n      pop\n      pop\n      dup2\n      mstore\n      0x20\n      add\n      swap1\n      0x01\n      add\n      swap1\n      jump(tag_187)\n    tag_188:\n      pop\n      pop\n      pop\n      pop\n      swap2\n      pop\n        /* \"BlockchainAPP/contract1.sol\":4077:4256  function viewMedicalRecord(address patientAddress) public view onlyDoctor(patientAddress) returns (string[] memory) {... */\n      pop\n      swap2\n      swap1\n      pop\n      jump\t// out\n        /* \"BlockchainAPP/contract1.sol\":862:931  mapping(address => mapping(address => bool)) public accessPermissions */\n    tag_54:\n      mstore(0x20, 0x02)\n      dup2\n      0x00\n      mstore\n      mstore(0x20, keccak256(0x00, 0x40))\n      dup1\n      0x00\n      mstore\n      keccak256(0x00, 0x40)\n      0x00\n      swap2\n      pop\n      swap2\n      pop\n      swap1\n      sload\n      swap1\n      0x0100\n      exp\n      swap1\n      div\n      0xff\n      and\n      dup2\n      jump\t// out\n        /* \"BlockchainAPP/contract1.sol\":3816:4019  function addOrUpdateRecord(string memory _recordHash) public onlyDoctor(msg.sender) {... */\n    tag_59:\n        /* \"BlockchainAPP/contract1.sol\":3888:3898  msg.sender */\n      caller\n        /* \"BlockchainAPP/contract1.sol\":1427:1444  accessPermissions */\n      0x02\n        /* \"BlockchainAPP/contract1.sol\":1427:1460  accessPermissions[patientAddress] */\n      0x00\n        /* \"BlockchainAPP/contract1.sol\":1445:1459  patientAddress */\n      dup3\n        /* \"BlockchainAPP/contract1.sol\":1427:1460  accessPermissions[patientAddress] */\n      0xffffffffffffffffffffffffffffffffffffffff\n      and\n      0xffffffffffffffffffffffffffffffffffffffff\n      and\n      dup2\n      mstore\n      0x20\n      add\n      swap1\n      dup2\n      mstore\n      0x20\n      add\n      0x00\n      keccak256\n        /* \"BlockchainAPP/contract1.sol\":1427:1472  accessPermissions[patientAddress][msg.sender] */\n      0x00\n        /* \"BlockchainAPP/contract1.sol\":1461:1471  msg.sender */\n      caller\n        /* \"BlockchainAPP/contract1.sol\":1427:1472  accessPermissions[patientAddress][msg.sender] */\n      0xffffffffffffffffffffffffffffffffffffffff\n      and\n      0xffffffffffffffffffffffffffffffffffffffff\n      and\n      dup2\n      mstore\n      0x20\n      add\n      swap1\n      dup2\n      mstore\n      0x20\n      add\n      0x00\n      keccak256\n      0x00\n      swap1\n      sload\n      swap1\n      0x0100\n      exp\n      swap1\n      div\n      0xff\n      and\n        /* \"BlockchainAPP/contract1.sol\":1419:1526  require(accessPermissions[patientAddress][msg.sender], \"You do not have permission to access this record.\") */\n      tag_196\n      jumpi\n      mload(0x40)\n      0x08c379a000000000000000000000000000000000000000000000000000000000\n      dup2\n      mstore\n      0x04\n      add\n      tag_197\n      swap1\n      tag_185\n      jump\t// in\n    tag_197:\n      mload(0x40)\n      dup1\n      swap2\n      sub\n      swap1\n      revert\n    tag_196:\n        /* \"BlockchainAPP/contract1.sol\":3910:3918  patients */\n      0x00\n        /* \"BlockchainAPP/contract1.sol\":3910:3930  patients[msg.sender] */\n      dup1\n        /* \"BlockchainAPP/contract1.sol\":3919:3929  msg.sender */\n      caller\n        /* \"BlockchainAPP/contract1.sol\":3910:3930  patients[msg.sender] */\n      0xffffffffffffffffffffffffffffffffffffffff\n      and\n      0xffffffffffffffffffffffffffffffffffffffff\n      and\n      dup2\n      mstore\n      0x20\n      add\n      swap1\n      dup2\n      mstore\n      0x20\n      add\n      0x00\n      keccak256\n        /* \"BlockchainAPP/contract1.sol\":3910:3945  patients[msg.sender].medicalHistory */\n      0x05\n      add\n        /* \"BlockchainAPP/contract1.sol\":3951:3962  _recordHash */\n      dup3\n        /* \"BlockchainAPP/contract1.sol\":3910:3963  patients[msg.sender].medicalHistory.push(_recordHash) */\n      swap1\n      dup1\n      0x01\n      dup2\n      sload\n      add\n      dup1\n      dup3\n      sstore\n      dup1\n      swap2\n      pop\n      pop\n      0x01\n      swap1\n      sub\n      swap1\n      0x00\n      mstore\n      keccak256(0x00, 0x20)\n      add\n      0x00\n      swap1\n      swap2\n      swap1\n      swap2\n      swap1\n      swap2\n      pop\n      swap1\n      dup2\n      tag_200\n      swap2\n      swap1\n      tag_178\n      jump\t// in\n    tag_200:\n      pop\n        /* \"BlockchainAPP/contract1.sol\":3973:4012  recordAudit(\"Record updated\", \"Update\") */\n      tag_201\n      mload(0x40)\n      dup1\n      0x40\n      add\n      0x40\n      mstore\n      dup1\n      0x0e\n      dup2\n      mstore\n      0x20\n      add\n      0x5265636f72642075706461746564000000000000000000000000000000000000\n      dup2\n      mstore\n      pop\n      mload(0x40)\n      dup1\n      0x40\n      add\n      0x40\n      mstore\n      dup1\n      0x06\n      dup2\n      mstore\n      0x20\n      add\n      0x5570646174650000000000000000000000000000000000000000000000000000\n      dup2\n      mstore\n      pop\n        /* \"BlockchainAPP/contract1.sol\":3973:3984  recordAudit */\n      tag_202\n        /* \"BlockchainAPP/contract1.sol\":3973:4012  recordAudit(\"Record updated\", \"Update\") */\n      jump\t// in\n    tag_201:\n        /* \"BlockchainAPP/contract1.sol\":3816:4019  function addOrUpdateRecord(string memory _recordHash) public onlyDoctor(msg.sender) {... */\n      pop\n      pop\n      jump\t// out\n        /* \"BlockchainAPP/contract1.sol\":5640:5746  function viewAllPatients() public view returns (address[] memory) {... */\n    tag_61:\n        /* \"BlockchainAPP/contract1.sol\":5688:5704  address[] memory */\n      0x60\n        /* \"BlockchainAPP/contract1.sol\":5723:5739  patientAddresses */\n      0x04\n        /* \"BlockchainAPP/contract1.sol\":5716:5739  return patientAddresses */\n      dup1\n      sload\n      dup1\n      0x20\n      mul\n      0x20\n      add\n      mload(0x40)\n      swap1\n      dup2\n      add\n      0x40\n      mstore\n      dup1\n      swap3\n      swap2\n      swap1\n      dup2\n      dup2\n      mstore\n      0x20\n      add\n      dup3\n      dup1\n      sload\n      dup1\n      iszero\n      tag_204\n      jumpi\n      0x20\n      mul\n      dup3\n      add\n      swap2\n      swap1\n      0x00\n      mstore\n      keccak256(0x00, 0x20)\n      swap1\n    tag_205:\n      dup2\n      0x00\n      swap1\n      sload\n      swap1\n      0x0100\n      exp\n      swap1\n      div\n      0xffffffffffffffffffffffffffffffffffffffff\n      and\n      0xffffffffffffffffffffffffffffffffffffffff\n      and\n      dup2\n      mstore\n      0x20\n      add\n      swap1\n      0x01\n      add\n      swap1\n      dup1\n      dup4\n      gt\n      tag_205\n      jumpi\n    tag_204:\n      pop\n      pop\n      pop\n      pop\n      pop\n      swap1\n      pop\n        /* \"BlockchainAPP/contract1.sol\":5640:5746  function viewAllPatients() public view returns (address[] memory) {... */\n      swap1\n      jump\t// out\n        /* \"BlockchainAPP/contract1.sol\":3562:3760  function revokeAccess(address doctorAddress) public onlyPatient(msg.sender) {... */\n    tag_66:\n        /* \"BlockchainAPP/contract1.sol\":3626:3636  msg.sender */\n      caller\n        /* \"BlockchainAPP/contract1.sol\":1681:1695  patientAddress */\n      dup1\n        /* \"BlockchainAPP/contract1.sol\":1667:1695  msg.sender == patientAddress */\n      0xffffffffffffffffffffffffffffffffffffffff\n      and\n        /* \"BlockchainAPP/contract1.sol\":1667:1677  msg.sender */\n      caller\n        /* \"BlockchainAPP/contract1.sol\":1667:1695  msg.sender == patientAddress */\n      0xffffffffffffffffffffffffffffffffffffffff\n      and\n      eq\n        /* \"BlockchainAPP/contract1.sol\":1659:1724  require(msg.sender == patientAddress, \"You are not the patient.\") */\n      tag_207\n      jumpi\n      mload(0x40)\n      0x08c379a000000000000000000000000000000000000000000000000000000000\n      dup2\n      mstore\n      0x04\n      add\n      tag_208\n      swap1\n      tag_209\n      jump\t// in\n    tag_208:\n      mload(0x40)\n      dup1\n      swap2\n      sub\n      swap1\n      revert\n    tag_207:\n        /* \"BlockchainAPP/contract1.sol\":3695:3700  false */\n      0x00\n        /* \"BlockchainAPP/contract1.sol\":3648:3665  accessPermissions */\n      0x02\n        /* \"BlockchainAPP/contract1.sol\":3648:3677  accessPermissions[msg.sender] */\n      0x00\n        /* \"BlockchainAPP/contract1.sol\":3666:3676  msg.sender */\n      caller\n        /* \"BlockchainAPP/contract1.sol\":3648:3677  accessPermissions[msg.sender] */\n      0xffffffffffffffffffffffffffffffffffffffff\n      and\n      0xffffffffffffffffffffffffffffffffffffffff\n      and\n      dup2\n      mstore\n      0x20\n      add\n      swap1\n      dup2\n      mstore\n      0x20\n      add\n      0x00\n      keccak256\n        /* \"BlockchainAPP/contract1.sol\":3648:3692  accessPermissions[msg.sender][doctorAddress] */\n      0x00\n        /* \"BlockchainAPP/contract1.sol\":3678:3691  doctorAddress */\n      dup5\n        /* \"BlockchainAPP/contract1.sol\":3648:3692  accessPermissions[msg.sender][doctorAddress] */\n      0xffffffffffffffffffffffffffffffffffffffff\n      and\n      0xffffffffffffffffffffffffffffffffffffffff\n      and\n      dup2\n      mstore\n      0x20\n      add\n      swap1\n      dup2\n      mstore\n      0x20\n      add\n      0x00\n      keccak256\n      0x00\n        /* \"BlockchainAPP/contract1.sol\":3648:3700  accessPermissions[msg.sender][doctorAddress] = false */\n      0x0100\n      exp\n      dup2\n      sload\n      dup2\n      0xff\n      mul\n      not\n      and\n      swap1\n      dup4\n      iszero\n      iszero\n      mul\n      or\n      swap1\n      sstore\n      pop\n        /* \"BlockchainAPP/contract1.sol\":3710:3753  recordAudit(\"Access revoked\", \"Permission\") */\n      tag_211\n      mload(0x40)\n      dup1\n      0x40\n      add\n      0x40\n      mstore\n      dup1\n      0x0e\n      dup2\n      mstore\n      0x20\n      add\n      0x416363657373207265766f6b6564000000000000000000000000000000000000\n      dup2\n      mstore\n      pop\n      mload(0x40)\n      dup1\n      0x40\n      add\n      0x40\n      mstore\n      dup1\n      0x0a\n      dup2\n      mstore\n      0x20\n      add\n      0x5065726d697373696f6e00000000000000000000000000000000000000000000\n      dup2\n      mstore\n      pop\n        /* \"BlockchainAPP/contract1.sol\":3710:3721  recordAudit */\n      tag_202\n        /* \"BlockchainAPP/contract1.sol\":3710:3753  recordAudit(\"Access revoked\", \"Permission\") */\n      jump\t// in\n    tag_211:\n        /* \"BlockchainAPP/contract1.sol\":3562:3760  function revokeAccess(address doctorAddress) public onlyPatient(msg.sender) {... */\n      pop\n      pop\n      jump\t// out\n        /* \"BlockchainAPP/contract1.sol\":1208:1249  mapping(address => bool) public isPatient */\n    tag_69:\n      mstore(0x20, 0x06)\n      dup1\n      0x00\n      mstore\n      keccak256(0x00, 0x40)\n      0x00\n      swap2\n      pop\n      sload\n      swap1\n      0x0100\n      exp\n      swap1\n      div\n      0xff\n      and\n      dup2\n      jump\t// out\n        /* \"BlockchainAPP/contract1.sol\":1786:2566  function registerPatient(... */\n    tag_74:\n        /* \"BlockchainAPP/contract1.sol\":1974:1983  isPatient */\n      0x06\n        /* \"BlockchainAPP/contract1.sol\":1974:1995  isPatient[msg.sender] */\n      0x00\n        /* \"BlockchainAPP/contract1.sol\":1984:1994  msg.sender */\n      caller\n        /* \"BlockchainAPP/contract1.sol\":1974:1995  isPatient[msg.sender] */\n      0xffffffffffffffffffffffffffffffffffffffff\n      and\n      0xffffffffffffffffffffffffffffffffffffffff\n      and\n      dup2\n      mstore\n      0x20\n      add\n      swap1\n      dup2\n      mstore\n      0x20\n      add\n      0x00\n      keccak256\n      0x00\n      swap1\n      sload\n      swap1\n      0x0100\n      exp\n      swap1\n      div\n      0xff\n      and\n        /* \"BlockchainAPP/contract1.sol\":1973:1995  !isPatient[msg.sender] */\n      iszero\n        /* \"BlockchainAPP/contract1.sol\":1973:2020  !isPatient[msg.sender] && !isDoctor[msg.sender] */\n      dup1\n      iszero\n      tag_213\n      jumpi\n      pop\n        /* \"BlockchainAPP/contract1.sol\":2000:2008  isDoctor */\n      0x07\n        /* \"BlockchainAPP/contract1.sol\":2000:2020  isDoctor[msg.sender] */\n      0x00\n        /* \"BlockchainAPP/contract1.sol\":2009:2019  msg.sender */\n      caller\n        /* \"BlockchainAPP/contract1.sol\":2000:2020  isDoctor[msg.sender] */\n      0xffffffffffffffffffffffffffffffffffffffff\n      and\n      0xffffffffffffffffffffffffffffffffffffffff\n      and\n      dup2\n      mstore\n      0x20\n      add\n      swap1\n      dup2\n      mstore\n      0x20\n      add\n      0x00\n      keccak256\n      0x00\n      swap1\n      sload\n      swap1\n      0x0100\n      exp\n      swap1\n      div\n      0xff\n      and\n        /* \"BlockchainAPP/contract1.sol\":1999:2020  !isDoctor[msg.sender] */\n      iszero\n        /* \"BlockchainAPP/contract1.sol\":1973:2020  !isPatient[msg.sender] && !isDoctor[msg.sender] */\n    tag_213:\n        /* \"BlockchainAPP/contract1.sol\":1965:2084  require(!isPatient[msg.sender] && !isDoctor[msg.sender], \"You are already registered as either a patient or a doctor.\") */\n      tag_214\n      jumpi\n      mload(0x40)\n      0x08c379a000000000000000000000000000000000000000000000000000000000\n      dup2\n      mstore\n      0x04\n      add\n      tag_215\n      swap1\n      tag_176\n      jump\t// in\n    tag_215:\n      mload(0x40)\n      dup1\n      swap2\n      sub\n      swap1\n      revert\n    tag_214:\n        /* \"BlockchainAPP/contract1.sol\":2103:2126  Patient storage patient */\n      0x00\n        /* \"BlockchainAPP/contract1.sol\":2129:2137  patients */\n      dup1\n        /* \"BlockchainAPP/contract1.sol\":2129:2149  patients[msg.sender] */\n      0x00\n        /* \"BlockchainAPP/contract1.sol\":2138:2148  msg.sender */\n      caller\n        /* \"BlockchainAPP/contract1.sol\":2129:2149  patients[msg.sender] */\n      0xffffffffffffffffffffffffffffffffffffffff\n      and\n      0xffffffffffffffffffffffffffffffffffffffff\n      and\n      dup2\n      mstore\n      0x20\n      add\n      swap1\n      dup2\n      mstore\n      0x20\n      add\n      0x00\n      keccak256\n        /* \"BlockchainAPP/contract1.sol\":2103:2149  Patient storage patient = patients[msg.sender] */\n      swap1\n      pop\n        /* \"BlockchainAPP/contract1.sol\":2179:2189  _firstName */\n      dup5\n        /* \"BlockchainAPP/contract1.sol\":2159:2166  patient */\n      dup2\n        /* \"BlockchainAPP/contract1.sol\":2159:2176  patient.firstName */\n      0x00\n      add\n        /* \"BlockchainAPP/contract1.sol\":2159:2189  patient.firstName = _firstName */\n      swap1\n      dup2\n      tag_216\n      swap2\n      swap1\n      tag_178\n      jump\t// in\n    tag_216:\n      pop\n        /* \"BlockchainAPP/contract1.sol\":2218:2227  _lastName */\n      dup4\n        /* \"BlockchainAPP/contract1.sol\":2199:2206  patient */\n      dup2\n        /* \"BlockchainAPP/contract1.sol\":2199:2215  patient.lastName */\n      0x01\n      add\n        /* \"BlockchainAPP/contract1.sol\":2199:2227  patient.lastName = _lastName */\n      swap1\n      dup2\n      tag_217\n      swap2\n      swap1\n      tag_178\n      jump\t// in\n    tag_217:\n      pop\n        /* \"BlockchainAPP/contract1.sol\":2257:2267  _birthDate */\n      dup3\n        /* \"BlockchainAPP/contract1.sol\":2237:2244  patient */\n      dup2\n        /* \"BlockchainAPP/contract1.sol\":2237:2254  patient.birthDate */\n      0x02\n      add\n        /* \"BlockchainAPP/contract1.sol\":2237:2267  patient.birthDate = _birthDate */\n      dup2\n      swap1\n      sstore\n      pop\n        /* \"BlockchainAPP/contract1.sol\":2302:2317  _addressDetails */\n      dup2\n        /* \"BlockchainAPP/contract1.sol\":2277:2284  patient */\n      dup2\n        /* \"BlockchainAPP/contract1.sol\":2277:2299  patient.addressDetails */\n      0x03\n      add\n        /* \"BlockchainAPP/contract1.sol\":2277:2317  patient.addressDetails = _addressDetails */\n      swap1\n      dup2\n      tag_218\n      swap2\n      swap1\n      tag_178\n      jump\t// in\n    tag_218:\n      pop\n        /* \"BlockchainAPP/contract1.sol\":2352:2362  msg.sender */\n      caller\n        /* \"BlockchainAPP/contract1.sol\":2327:2334  patient */\n      dup2\n        /* \"BlockchainAPP/contract1.sol\":2327:2349  patient.patientAddress */\n      0x04\n      add\n      0x00\n        /* \"BlockchainAPP/contract1.sol\":2327:2362  patient.patientAddress = msg.sender */\n      0x0100\n      exp\n      dup2\n      sload\n      dup2\n      0xffffffffffffffffffffffffffffffffffffffff\n      mul\n      not\n      and\n      swap1\n      dup4\n      0xffffffffffffffffffffffffffffffffffffffff\n      and\n      mul\n      or\n      swap1\n      sstore\n      pop\n        /* \"BlockchainAPP/contract1.sol\":2446:2450  true */\n      0x01\n        /* \"BlockchainAPP/contract1.sol\":2422:2431  isPatient */\n      0x06\n        /* \"BlockchainAPP/contract1.sol\":2422:2443  isPatient[msg.sender] */\n      0x00\n        /* \"BlockchainAPP/contract1.sol\":2432:2442  msg.sender */\n      caller\n        /* \"BlockchainAPP/contract1.sol\":2422:2443  isPatient[msg.sender] */\n      0xffffffffffffffffffffffffffffffffffffffff\n      and\n      0xffffffffffffffffffffffffffffffffffffffff\n      and\n      dup2\n      mstore\n      0x20\n      add\n      swap1\n      dup2\n      mstore\n      0x20\n      add\n      0x00\n      keccak256\n      0x00\n        /* \"BlockchainAPP/contract1.sol\":2422:2450  isPatient[msg.sender] = true */\n      0x0100\n      exp\n      dup2\n      sload\n      dup2\n      0xff\n      mul\n      not\n      and\n      swap1\n      dup4\n      iszero\n      iszero\n      mul\n      or\n      swap1\n      sstore\n      pop\n        /* \"BlockchainAPP/contract1.sol\":2460:2476  patientAddresses */\n      0x04\n        /* \"BlockchainAPP/contract1.sol\":2482:2492  msg.sender */\n      caller\n        /* \"BlockchainAPP/contract1.sol\":2460:2493  patientAddresses.push(msg.sender) */\n      swap1\n      dup1\n      0x01\n      dup2\n      sload\n      add\n      dup1\n      dup3\n      sstore\n      dup1\n      swap2\n      pop\n      pop\n      0x01\n      swap1\n      sub\n      swap1\n      0x00\n      mstore\n      keccak256(0x00, 0x20)\n      add\n      0x00\n      swap1\n      swap2\n      swap1\n      swap2\n      swap1\n      swap2\n      0x0100\n      exp\n      dup2\n      sload\n      dup2\n      0xffffffffffffffffffffffffffffffffffffffff\n      mul\n      not\n      and\n      swap1\n      dup4\n      0xffffffffffffffffffffffffffffffffffffffff\n      and\n      mul\n      or\n      swap1\n      sstore\n      pop\n        /* \"BlockchainAPP/contract1.sol\":2512:2559  recordAudit(\"Patient registration\", \"Creation\") */\n      tag_220\n      mload(0x40)\n      dup1\n      0x40\n      add\n      0x40\n      mstore\n      dup1\n      0x14\n      dup2\n      mstore\n      0x20\n      add\n      0x50617469656e7420726567697374726174696f6e000000000000000000000000\n      dup2\n      mstore\n      pop\n      mload(0x40)\n      dup1\n      0x40\n      add\n      0x40\n      mstore\n      dup1\n      0x08\n      dup2\n      mstore\n      0x20\n      add\n      0x4372656174696f6e000000000000000000000000000000000000000000000000\n      dup2\n      mstore\n      pop\n        /* \"BlockchainAPP/contract1.sol\":2512:2523  recordAudit */\n      tag_202\n        /* \"BlockchainAPP/contract1.sol\":2512:2559  recordAudit(\"Patient registration\", \"Creation\") */\n      jump\t// in\n    tag_220:\n        /* \"BlockchainAPP/contract1.sol\":1955:2566  {... */\n      pop\n        /* \"BlockchainAPP/contract1.sol\":1786:2566  function registerPatient(... */\n      pop\n      pop\n      pop\n      pop\n      jump\t// out\n        /* \"BlockchainAPP/contract1.sol\":1255:1295  mapping(address => bool) public isDoctor */\n    tag_77:\n      mstore(0x20, 0x07)\n      dup1\n      0x00\n      mstore\n      keccak256(0x00, 0x40)\n      0x00\n      swap2\n      pop\n      sload\n      swap1\n      0x0100\n      exp\n      swap1\n      div\n      0xff\n      and\n      dup2\n      jump\t// out\n        /* \"BlockchainAPP/contract1.sol\":815:856  mapping(address => Doctor) public doctors */\n    tag_81:\n      mstore(0x20, 0x01)\n      dup1\n      0x00\n      mstore\n      keccak256(0x00, 0x40)\n      0x00\n      swap2\n      pop\n      swap1\n      pop\n      dup1\n      0x00\n      add\n      dup1\n      sload\n      tag_221\n      swap1\n      tag_103\n      jump\t// in\n    tag_221:\n      dup1\n      0x1f\n      add\n      0x20\n      dup1\n      swap2\n      div\n      mul\n      0x20\n      add\n      mload(0x40)\n      swap1\n      dup2\n      add\n      0x40\n      mstore\n      dup1\n      swap3\n      swap2\n      swap1\n      dup2\n      dup2\n      mstore\n      0x20\n      add\n      dup3\n      dup1\n      sload\n      tag_222\n      swap1\n      tag_103\n      jump\t// in\n    tag_222:\n      dup1\n      iszero\n      tag_223\n      jumpi\n      dup1\n      0x1f\n      lt\n      tag_224\n      jumpi\n      0x0100\n      dup1\n      dup4\n      sload\n      div\n      mul\n      dup4\n      mstore\n      swap2\n      0x20\n      add\n      swap2\n      jump(tag_223)\n    tag_224:\n      dup3\n      add\n      swap2\n      swap1\n      0x00\n      mstore\n      keccak256(0x00, 0x20)\n      swap1\n    tag_225:\n      dup2\n      sload\n      dup2\n      mstore\n      swap1\n      0x01\n      add\n      swap1\n      0x20\n      add\n      dup1\n      dup4\n      gt\n      tag_225\n      jumpi\n      dup3\n      swap1\n      sub\n      0x1f\n      and\n      dup3\n      add\n      swap2\n    tag_223:\n      pop\n      pop\n      pop\n      pop\n      pop\n      swap1\n      dup1\n      0x01\n      add\n      dup1\n      sload\n      tag_226\n      swap1\n      tag_103\n      jump\t// in\n    tag_226:\n      dup1\n      0x1f\n      add\n      0x20\n      dup1\n      swap2\n      div\n      mul\n      0x20\n      add\n      mload(0x40)\n      swap1\n      dup2\n      add\n      0x40\n      mstore\n      dup1\n      swap3\n      swap2\n      swap1\n      dup2\n      dup2\n      mstore\n      0x20\n      add\n      dup3\n      dup1\n      sload\n      tag_227\n      swap1\n      tag_103\n      jump\t// in\n    tag_227:\n      dup1\n      iszero\n      tag_228\n      jumpi\n      dup1\n      0x1f\n      lt\n      tag_229\n      jumpi\n      0x0100\n      dup1\n      dup4\n      sload\n      div\n      mul\n      dup4\n      mstore\n      swap2\n      0x20\n      add\n      swap2\n      jump(tag_228)\n    tag_229:\n      dup3\n      add\n      swap2\n      swap1\n      0x00\n      mstore\n      keccak256(0x00, 0x20)\n      swap1\n    tag_230:\n      dup2\n      sload\n      dup2\n      mstore\n      swap1\n      0x01\n      add\n      swap1\n      0x20\n      add\n      dup1\n      dup4\n      gt\n      tag_230\n      jumpi\n      dup3\n      swap1\n      sub\n      0x1f\n      and\n      dup3\n      add\n      swap2\n    tag_228:\n      pop\n      pop\n      pop\n      pop\n      pop\n      swap1\n      dup1\n      0x02\n      add\n      dup1\n      sload\n      tag_231\n      swap1\n      tag_103\n      jump\t// in\n    tag_231:\n      dup1\n      0x1f\n      add\n      0x20\n      dup1\n      swap2\n      div\n      mul\n      0x20\n      add\n      mload(0x40)\n      swap1\n      dup2\n      add\n      0x40\n      mstore\n      dup1\n      swap3\n      swap2\n      swap1\n      dup2\n      dup2\n      mstore\n      0x20\n      add\n      dup3\n      dup1\n      sload\n      tag_232\n      swap1\n      tag_103\n      jump\t// in\n    tag_232:\n      dup1\n      iszero\n      tag_233\n      jumpi\n      dup1\n      0x1f\n      lt\n      tag_234\n      jumpi\n      0x0100\n      dup1\n      dup4\n      sload\n      div\n      mul\n      dup4\n      mstore\n      swap2\n      0x20\n      add\n      swap2\n      jump(tag_233)\n    tag_234:\n      dup3\n      add\n      swap2\n      swap1\n      0x00\n      mstore\n      keccak256(0x00, 0x20)\n      swap1\n    tag_235:\n      dup2\n      sload\n      dup2\n      mstore\n      swap1\n      0x01\n      add\n      swap1\n      0x20\n      add\n      dup1\n      dup4\n      gt\n      tag_235\n      jumpi\n      dup3\n      swap1\n      sub\n      0x1f\n      and\n      dup3\n      add\n      swap2\n    tag_233:\n      pop\n      pop\n      pop\n      pop\n      pop\n      swap1\n      dup1\n      0x03\n      add\n      0x00\n      swap1\n      sload\n      swap1\n      0x0100\n      exp\n      swap1\n      div\n      0xffffffffffffffffffffffffffffffffffffffff\n      and\n      swap1\n      pop\n      dup5\n      jump\t// out\n        /* \"BlockchainAPP/contract1.sol\":1057:1090  address[] public patientAddresses */\n    tag_86:\n      0x04\n      dup2\n      dup2\n      sload\n      dup2\n      lt\n      tag_236\n      jumpi\n      0x00\n      dup1\n      revert\n    tag_236:\n      swap1\n      0x00\n      mstore\n      keccak256(0x00, 0x20)\n      add\n      0x00\n      swap2\n      pop\n      sload\n      swap1\n      0x0100\n      exp\n      swap1\n      div\n      0xffffffffffffffffffffffffffffffffffffffff\n      and\n      dup2\n      jump\t// out\n        /* \"BlockchainAPP/contract1.sol\":976:997  Audit[] public audits */\n    tag_90:\n      0x03\n      dup2\n      dup2\n      sload\n      dup2\n      lt\n      tag_238\n      jumpi\n      0x00\n      dup1\n      revert\n    tag_238:\n      swap1\n      0x00\n      mstore\n      keccak256(0x00, 0x20)\n      swap1\n      0x05\n      mul\n      add\n      0x00\n      swap2\n      pop\n      swap1\n      pop\n      dup1\n      0x00\n      add\n      sload\n      swap1\n      dup1\n      0x01\n      add\n      dup1\n      sload\n      tag_240\n      swap1\n      tag_103\n      jump\t// in\n    tag_240:\n      dup1\n      0x1f\n      add\n      0x20\n      dup1\n      swap2\n      div\n      mul\n      0x20\n      add\n      mload(0x40)\n      swap1\n      dup2\n      add\n      0x40\n      mstore\n      dup1\n      swap3\n      swap2\n      swap1\n      dup2\n      dup2\n      mstore\n      0x20\n      add\n      dup3\n      dup1\n      sload\n      tag_241\n      swap1\n      tag_103\n      jump\t// in\n    tag_241:\n      dup1\n      iszero\n      tag_242\n      jumpi\n      dup1\n      0x1f\n      lt\n      tag_243\n      jumpi\n      0x0100\n      dup1\n      dup4\n      sload\n      div\n      mul\n      dup4\n      mstore\n      swap2\n      0x20\n      add\n      swap2\n      jump(tag_242)\n    tag_243:\n      dup3\n      add\n      swap2\n      swap1\n      0x00\n      mstore\n      keccak256(0x00, 0x20)\n      swap1\n    tag_244:\n      dup2\n      sload\n      dup2\n      mstore\n      swap1\n      0x01\n      add\n      swap1\n      0x20\n      add\n      dup1\n      dup4\n      gt\n      tag_244\n      jumpi\n      dup3\n      swap1\n      sub\n      0x1f\n      and\n      dup3\n      add\n      swap2\n    tag_242:\n      pop\n      pop\n      pop\n      pop\n      pop\n      swap1\n      dup1\n      0x02\n      add\n      0x00\n      swap1\n      sload\n      swap1\n      0x0100\n      exp\n      swap1\n      div\n      0xffffffffffffffffffffffffffffffffffffffff\n      and\n      swap1\n      dup1\n      0x03\n      add\n      dup1\n      sload\n      tag_245\n      swap1\n      tag_103\n      jump\t// in\n    tag_245:\n      dup1\n      0x1f\n      add\n      0x20\n      dup1\n      swap2\n      div\n      mul\n      0x20\n      add\n      mload(0x40)\n      swap1\n      dup2\n      add\n      0x40\n      mstore\n      dup1\n      swap3\n      swap2\n      swap1\n      dup2\n      dup2\n      mstore\n      0x20\n      add\n      dup3\n      dup1\n      sload\n      tag_246\n      swap1\n      tag_103\n      jump\t// in\n    tag_246:\n      dup1\n      iszero\n      tag_247\n      jumpi\n      dup1\n      0x1f\n      lt\n      tag_248\n      jumpi\n      0x0100\n      dup1\n      dup4\n      sload\n      div\n      mul\n      dup4\n      mstore\n      swap2\n      0x20\n      add\n      swap2\n      jump(tag_247)\n    tag_248:\n      dup3\n      add\n      swap2\n      swap1\n      0x00\n      mstore\n      keccak256(0x00, 0x20)\n      swap1\n    tag_249:\n      dup2\n      sload\n      dup2\n      mstore\n      swap1\n      0x01\n      add\n      swap1\n      0x20\n      add\n      dup1\n      dup4\n      gt\n      tag_249\n      jumpi\n      dup3\n      swap1\n      sub\n      0x1f\n      and\n      dup3\n      add\n      swap2\n    tag_247:\n      pop\n      pop\n      pop\n      pop\n      pop\n      swap1\n      dup1\n      0x04\n      add\n      dup1\n      sload\n      tag_250\n      swap1\n      tag_103\n      jump\t// in\n    tag_250:\n      dup1\n      0x1f\n      add\n      0x20\n      dup1\n      swap2\n      div\n      mul\n      0x20\n      add\n      mload(0x40)\n      swap1\n      dup2\n      add\n      0x40\n      mstore\n      dup1\n      swap3\n      swap2\n      swap1\n      dup2\n      dup2\n      mstore\n      0x20\n      add\n      dup3\n      dup1\n      sload\n      tag_251\n      swap1\n      tag_103\n      jump\t// in\n    tag_251:\n      dup1\n      iszero\n      tag_252\n      jumpi\n      dup1\n      0x1f\n      lt\n      tag_253\n      jumpi\n      0x0100\n      dup1\n      dup4\n      sload\n      div\n      mul\n      dup4\n      mstore\n      swap2\n      0x20\n      add\n      swap2\n      jump(tag_252)\n    tag_253:\n      dup3\n      add\n      swap2\n      swap1\n      0x00\n      mstore\n      keccak256(0x00, 0x20)\n      swap1\n    tag_254:\n      dup2\n      sload\n      dup2\n      mstore\n      swap1\n      0x01\n      add\n      swap1\n      0x20\n      add\n      dup1\n      dup4\n      gt\n      tag_254\n      jumpi\n      dup3\n      swap1\n      sub\n      0x1f\n      and\n      dup3\n      add\n      swap2\n    tag_252:\n      pop\n      pop\n      pop\n      pop\n      pop\n      swap1\n      pop\n      dup6\n      jump\t// out\n        /* \"BlockchainAPP/contract1.sol\":4677:4769  function viewAllAudits() public view returns (Audit[] memory) {... */\n    tag_94:\n        /* \"BlockchainAPP/contract1.sol\":4723:4737  Audit[] memory */\n      0x60\n        /* \"BlockchainAPP/contract1.sol\":4756:4762  audits */\n      0x03\n        /* \"BlockchainAPP/contract1.sol\":4749:4762  return audits */\n      dup1\n      sload\n      dup1\n      0x20\n      mul\n      0x20\n      add\n      mload(0x40)\n      swap1\n      dup2\n      add\n      0x40\n      mstore\n      dup1\n      swap3\n      swap2\n      swap1\n      dup2\n      dup2\n      mstore\n      0x20\n      add\n      0x00\n      swap1\n    tag_256:\n      dup3\n      dup3\n      lt\n      iszero\n      tag_257\n      jumpi\n      dup4\n      dup3\n      swap1\n      0x00\n      mstore\n      keccak256(0x00, 0x20)\n      swap1\n      0x05\n      mul\n      add\n      mload(0x40)\n      dup1\n      0xa0\n      add\n      0x40\n      mstore\n      swap1\n      dup2\n      0x00\n      dup3\n      add\n      sload\n      dup2\n      mstore\n      0x20\n      add\n      0x01\n      dup3\n      add\n      dup1\n      sload\n      tag_259\n      swap1\n      tag_103\n      jump\t// in\n    tag_259:\n      dup1\n      0x1f\n      add\n      0x20\n      dup1\n      swap2\n      div\n      mul\n      0x20\n      add\n      mload(0x40)\n      swap1\n      dup2\n      add\n      0x40\n      mstore\n      dup1\n      swap3\n      swap2\n      swap1\n      dup2\n      dup2\n      mstore\n      0x20\n      add\n      dup3\n      dup1\n      sload\n      tag_260\n      swap1\n      tag_103\n      jump\t// in\n    tag_260:\n      dup1\n      iszero\n      tag_261\n      jumpi\n      dup1\n      0x1f\n      lt\n      tag_262\n      jumpi\n      0x0100\n      dup1\n      dup4\n      sload\n      div\n      mul\n      dup4\n      mstore\n      swap2\n      0x20\n      add\n      swap2\n      jump(tag_261)\n    tag_262:\n      dup3\n      add\n      swap2\n      swap1\n      0x00\n      mstore\n      keccak256(0x00, 0x20)\n      swap1\n    tag_263:\n      dup2\n      sload\n      dup2\n      mstore\n      swap1\n      0x01\n      add\n      swap1\n      0x20\n      add\n      dup1\n      dup4\n      gt\n      tag_263\n      jumpi\n      dup3\n      swap1\n      sub\n      0x1f\n      and\n      dup3\n      add\n      swap2\n    tag_261:\n      pop\n      pop\n      pop\n      pop\n      pop\n      dup2\n      mstore\n      0x20\n      add\n      0x02\n      dup3\n      add\n      0x00\n      swap1\n      sload\n      swap1\n      0x0100\n      exp\n      swap1\n      div\n      0xffffffffffffffffffffffffffffffffffffffff\n      and\n      0xffffffffffffffffffffffffffffffffffffffff\n      and\n      0xffffffffffffffffffffffffffffffffffffffff\n      and\n      dup2\n      mstore\n      0x20\n      add\n      0x03\n      dup3\n      add\n      dup1\n      sload\n      tag_264\n      swap1\n      tag_103\n      jump\t// in\n    tag_264:\n      dup1\n      0x1f\n      add\n      0x20\n      dup1\n      swap2\n      div\n      mul\n      0x20\n      add\n      mload(0x40)\n      swap1\n      dup2\n      add\n      0x40\n      mstore\n      dup1\n      swap3\n      swap2\n      swap1\n      dup2\n      dup2\n      mstore\n      0x20\n      add\n      dup3\n      dup1\n      sload\n      tag_265\n      swap1\n      tag_103\n      jump\t// in\n    tag_265:\n      dup1\n      iszero\n      tag_266\n      jumpi\n      dup1\n      0x1f\n      lt\n      tag_267\n      jumpi\n      0x0100\n      dup1\n      dup4\n      sload\n      div\n      mul\n      dup4\n      mstore\n      swap2\n      0x20\n      add\n      swap2\n      jump(tag_266)\n    tag_267:\n      dup3\n      add\n      swap2\n      swap1\n      0x00\n      mstore\n      keccak256(0x00, 0x20)\n      swap1\n    tag_268:\n      dup2\n      sload\n      dup2\n      mstore\n      swap1\n      0x01\n      add\n      swap1\n      0x20\n      add\n      dup1\n      dup4\n      gt\n      tag_268\n      jumpi\n      dup3\n      swap1\n      sub\n      0x1f\n      and\n      dup3\n      add\n      swap2\n    tag_266:\n      pop\n      pop\n      pop\n      pop\n      pop\n      dup2\n      mstore\n      0x20\n      add\n      0x04\n      dup3\n      add\n      dup1\n      sload\n      tag_269\n      swap1\n      tag_103\n      jump\t// in\n    tag_269:\n      dup1\n      0x1f\n      add\n      0x20\n      dup1\n      swap2\n      div\n      mul\n      0x20\n      add\n      mload(0x40)\n      swap1\n      dup2\n      add\n      0x40\n      mstore\n      dup1\n      swap3\n      swap2\n      swap1\n      dup2\n      dup2\n      mstore\n      0x20\n      add\n      dup3\n      dup1\n      sload\n      tag_270\n      swap1\n      tag_103\n      jump\t// in\n    tag_270:\n      dup1\n      iszero\n      tag_271\n      jumpi\n      dup1\n      0x1f\n      lt\n      tag_272\n      jumpi\n      0x0100\n      dup1\n      dup4\n      sload\n      div\n      mul\n      dup4\n      mstore\n      swap2\n      0x20\n      add\n      swap2\n      jump(tag_271)\n    tag_272:\n      dup3\n      add\n      swap2\n      swap1\n      0x00\n      mstore\n      keccak256(0x00, 0x20)\n      swap1\n    tag_273:\n      dup2\n      sload\n      dup2\n      mstore\n      swap1\n      0x01\n      add\n      swap1\n      0x20\n      add\n      dup1\n      dup4\n      gt\n      tag_273\n      jumpi\n      dup3\n      swap1\n      sub\n      0x1f\n      and\n      dup3\n      add\n      swap2\n    tag_271:\n      pop\n      pop\n      pop\n      pop\n      pop\n      dup2\n      mstore\n      pop\n      pop\n      dup2\n      mstore\n      0x20\n      add\n      swap1\n      0x01\n      add\n      swap1\n      jump(tag_256)\n    tag_257:\n      pop\n      pop\n      pop\n      pop\n      swap1\n      pop\n        /* \"BlockchainAPP/contract1.sol\":4677:4769  function viewAllAudits() public view returns (Audit[] memory) {... */\n      swap1\n      jump\t// out\n        /* \"BlockchainAPP/contract1.sol\":5799:5903  function viewAllDoctors() public view returns (address[] memory) {... */\n    tag_97:\n        /* \"BlockchainAPP/contract1.sol\":5846:5862  address[] memory */\n      0x60\n        /* \"BlockchainAPP/contract1.sol\":5881:5896  doctorAddresses */\n      0x05\n        /* \"BlockchainAPP/contract1.sol\":5874:5896  return doctorAddresses */\n      dup1\n      sload\n      dup1\n      0x20\n      mul\n      0x20\n      add\n      mload(0x40)\n      swap1\n      dup2\n      add\n      0x40\n      mstore\n      dup1\n      swap3\n      swap2\n      swap1\n      dup2\n      dup2\n      mstore\n      0x20\n      add\n      dup3\n      dup1\n      sload\n      dup1\n      iszero\n      tag_275\n      jumpi\n      0x20\n      mul\n      dup3\n      add\n      swap2\n      swap1\n      0x00\n      mstore\n      keccak256(0x00, 0x20)\n      swap1\n    tag_276:\n      dup2\n      0x00\n      swap1\n      sload\n      swap1\n      0x0100\n      exp\n      swap1\n      div\n      0xffffffffffffffffffffffffffffffffffffffff\n      and\n      0xffffffffffffffffffffffffffffffffffffffff\n      and\n      dup2\n      mstore\n      0x20\n      add\n      swap1\n      0x01\n      add\n      swap1\n      dup1\n      dup4\n      gt\n      tag_276\n      jumpi\n    tag_275:\n      pop\n      pop\n      pop\n      pop\n      pop\n      swap1\n      pop\n        /* \"BlockchainAPP/contract1.sol\":5799:5903  function viewAllDoctors() public view returns (address[] memory) {... */\n      swap1\n      jump\t// out\n        /* \"BlockchainAPP/contract1.sol\":3286:3489  function authorizeAccess(address doctorAddress) public onlyPatient(msg.sender) {... */\n    tag_101:\n        /* \"BlockchainAPP/contract1.sol\":3353:3363  msg.sender */\n      caller\n        /* \"BlockchainAPP/contract1.sol\":1681:1695  patientAddress */\n      dup1\n        /* \"BlockchainAPP/contract1.sol\":1667:1695  msg.sender == patientAddress */\n      0xffffffffffffffffffffffffffffffffffffffff\n      and\n        /* \"BlockchainAPP/contract1.sol\":1667:1677  msg.sender */\n      caller\n        /* \"BlockchainAPP/contract1.sol\":1667:1695  msg.sender == patientAddress */\n      0xffffffffffffffffffffffffffffffffffffffff\n      and\n      eq\n        /* \"BlockchainAPP/contract1.sol\":1659:1724  require(msg.sender == patientAddress, \"You are not the patient.\") */\n      tag_278\n      jumpi\n      mload(0x40)\n      0x08c379a000000000000000000000000000000000000000000000000000000000\n      dup2\n      mstore\n      0x04\n      add\n      tag_279\n      swap1\n      tag_209\n      jump\t// in\n    tag_279:\n      mload(0x40)\n      dup1\n      swap2\n      sub\n      swap1\n      revert\n    tag_278:\n        /* \"BlockchainAPP/contract1.sol\":3422:3426  true */\n      0x01\n        /* \"BlockchainAPP/contract1.sol\":3375:3392  accessPermissions */\n      0x02\n        /* \"BlockchainAPP/contract1.sol\":3375:3404  accessPermissions[msg.sender] */\n      0x00\n        /* \"BlockchainAPP/contract1.sol\":3393:3403  msg.sender */\n      caller\n        /* \"BlockchainAPP/contract1.sol\":3375:3404  accessPermissions[msg.sender] */\n      0xffffffffffffffffffffffffffffffffffffffff\n      and\n      0xffffffffffffffffffffffffffffffffffffffff\n      and\n      dup2\n      mstore\n      0x20\n      add\n      swap1\n      dup2\n      mstore\n      0x20\n      add\n      0x00\n      keccak256\n        /* \"BlockchainAPP/contract1.sol\":3375:3419  accessPermissions[msg.sender][doctorAddress] */\n      0x00\n        /* \"BlockchainAPP/contract1.sol\":3405:3418  doctorAddress */\n      dup5\n        /* \"BlockchainAPP/contract1.sol\":3375:3419  accessPermissions[msg.sender][doctorAddress] */\n      0xffffffffffffffffffffffffffffffffffffffff\n      and\n      0xffffffffffffffffffffffffffffffffffffffff\n      and\n      dup2\n      mstore\n      0x20\n      add\n      swap1\n      dup2\n      mstore\n      0x20\n      add\n      0x00\n      keccak256\n      0x00\n        /* \"BlockchainAPP/contract1.sol\":3375:3426  accessPermissions[msg.sender][doctorAddress] = true */\n      0x0100\n      exp\n      dup2\n      sload\n      dup2\n      0xff\n      mul\n      not\n      and\n      swap1\n      dup4\n      iszero\n      iszero\n      mul\n      or\n      swap1\n      sstore\n      pop\n        /* \"BlockchainAPP/contract1.sol\":3436:3482  recordAudit(\"Access authorized\", \"Permission\") */\n      tag_281\n      mload(0x40)\n      dup1\n      0x40\n      add\n      0x40\n      mstore\n      dup1\n      0x11\n      dup2\n      mstore\n      0x20\n      add\n      0x41636365737320617574686f72697a6564000000000000000000000000000000\n      dup2\n      mstore\n      pop\n      mload(0x40)\n      dup1\n      0x40\n      add\n      0x40\n      mstore\n      dup1\n      0x0a\n      dup2\n      mstore\n      0x20\n      add\n      0x5065726d697373696f6e00000000000000000000000000000000000000000000\n      dup2\n      mstore\n      pop\n        /* \"BlockchainAPP/contract1.sol\":3436:3447  recordAudit */\n      tag_202\n        /* \"BlockchainAPP/contract1.sol\":3436:3482  recordAudit(\"Access authorized\", \"Permission\") */\n      jump\t// in\n    tag_281:\n        /* \"BlockchainAPP/contract1.sol\":3286:3489  function authorizeAccess(address doctorAddress) public onlyPatient(msg.sender) {... */\n      pop\n      pop\n      jump\t// out\n        /* \"BlockchainAPP/contract1.sol\":4304:4636  function recordAudit(string memory _action, string memory _actionType) private {... */\n    tag_202:\n        /* \"BlockchainAPP/contract1.sol\":4393:4414  Audit memory newAudit */\n      0x00\n        /* \"BlockchainAPP/contract1.sol\":4417:4598  Audit({... */\n      mload(0x40)\n      dup1\n      0xa0\n      add\n      0x40\n      mstore\n      dup1\n        /* \"BlockchainAPP/contract1.sol\":4448:4463  block.timestamp */\n      timestamp\n        /* \"BlockchainAPP/contract1.sol\":4417:4598  Audit({... */\n      dup2\n      mstore\n      0x20\n      add\n        /* \"BlockchainAPP/contract1.sol\":4485:4492  _action */\n      dup5\n        /* \"BlockchainAPP/contract1.sol\":4417:4598  Audit({... */\n      dup2\n      mstore\n      0x20\n      add\n        /* \"BlockchainAPP/contract1.sol\":4512:4522  msg.sender */\n      caller\n        /* \"BlockchainAPP/contract1.sol\":4417:4598  Audit({... */\n      0xffffffffffffffffffffffffffffffffffffffff\n      and\n      dup2\n      mstore\n      0x20\n      add\n      mload(0x40)\n      dup1\n      0x20\n      add\n      0x40\n      mstore\n      dup1\n      0x00\n      dup2\n      mstore\n      pop\n      dup2\n      mstore\n      0x20\n      add\n        /* \"BlockchainAPP/contract1.sol\":4576:4587  _actionType */\n      dup4\n        /* \"BlockchainAPP/contract1.sol\":4417:4598  Audit({... */\n      dup2\n      mstore\n      pop\n        /* \"BlockchainAPP/contract1.sol\":4393:4598  Audit memory newAudit = Audit({... */\n      swap1\n      pop\n        /* \"BlockchainAPP/contract1.sol\":4608:4614  audits */\n      0x03\n        /* \"BlockchainAPP/contract1.sol\":4620:4628  newAudit */\n      dup2\n        /* \"BlockchainAPP/contract1.sol\":4608:4629  audits.push(newAudit) */\n      swap1\n      dup1\n      0x01\n      dup2\n      sload\n      add\n      dup1\n      dup3\n      sstore\n      dup1\n      swap2\n      pop\n      pop\n      0x01\n      swap1\n      sub\n      swap1\n      0x00\n      mstore\n      keccak256(0x00, 0x20)\n      swap1\n      0x05\n      mul\n      add\n      0x00\n      swap1\n      swap2\n      swap1\n      swap2\n      swap1\n      swap2\n      pop\n      0x00\n      dup3\n      add\n      mload\n      dup2\n      0x00\n      add\n      sstore\n      0x20\n      dup3\n      add\n      mload\n      dup2\n      0x01\n      add\n      swap1\n      dup2\n      tag_284\n      swap2\n      swap1\n      tag_178\n      jump\t// in\n    tag_284:\n      pop\n      0x40\n      dup3\n      add\n      mload\n      dup2\n      0x02\n      add\n      exp(0x0100, 0x00)\n      dup2\n      sload\n      dup2\n      0xffffffffffffffffffffffffffffffffffffffff\n      mul\n      not\n      and\n      swap1\n      dup4\n      0xffffffffffffffffffffffffffffffffffffffff\n      and\n      mul\n      or\n      swap1\n      sstore\n      pop\n      0x60\n      dup3\n      add\n      mload\n      dup2\n      0x03\n      add\n      swap1\n      dup2\n      tag_285\n      swap2\n      swap1\n      tag_178\n      jump\t// in\n    tag_285:\n      pop\n      0x80\n      dup3\n      add\n      mload\n      dup2\n      0x04\n      add\n      swap1\n      dup2\n      tag_286\n      swap2\n      swap1\n      tag_178\n      jump\t// in\n    tag_286:\n      pop\n      pop\n      pop\n        /* \"BlockchainAPP/contract1.sol\":4383:4636  {... */\n      pop\n        /* \"BlockchainAPP/contract1.sol\":4304:4636  function recordAudit(string memory _action, string memory _actionType) private {... */\n      pop\n      pop\n      jump\t// out\n    tag_139:\n      mload(0x40)\n      dup1\n      0xa0\n      add\n      0x40\n      mstore\n      dup1\n      0x00\n      dup2\n      mstore\n      0x20\n      add\n      0x60\n      dup2\n      mstore\n      0x20\n      add\n      and(0xffffffffffffffffffffffffffffffffffffffff, 0x00)\n      dup2\n      mstore\n      0x20\n      add\n      0x60\n      dup2\n      mstore\n      0x20\n      add\n      0x60\n      dup2\n      mstore\n      pop\n      swap1\n      jump\t// out\n        /* \"#utility.yul\":7:82   */\n    tag_287:\n        /* \"#utility.yul\":40:46   */\n      0x00\n        /* \"#utility.yul\":73:75   */\n      0x40\n        /* \"#utility.yul\":67:76   */\n      mload\n        /* \"#utility.yul\":57:76   */\n      swap1\n      pop\n        /* \"#utility.yul\":7:82   */\n      swap1\n      jump\t// out\n        /* \"#utility.yul\":88:205   */\n    tag_288:\n        /* \"#utility.yul\":197:198   */\n      0x00\n        /* \"#utility.yul\":194:195   */\n      dup1\n        /* \"#utility.yul\":187:199   */\n      revert\n        /* \"#utility.yul\":211:328   */\n    tag_289:\n        /* \"#utility.yul\":320:321   */\n      0x00\n        /* \"#utility.yul\":317:318   */\n      dup1\n        /* \"#utility.yul\":310:322   */\n      revert\n        /* \"#utility.yul\":334:460   */\n    tag_290:\n        /* \"#utility.yul\":371:378   */\n      0x00\n        /* \"#utility.yul\":411:453   */\n      0xffffffffffffffffffffffffffffffffffffffff\n        /* \"#utility.yul\":404:409   */\n      dup3\n        /* \"#utility.yul\":400:454   */\n      and\n        /* \"#utility.yul\":389:454   */\n      swap1\n      pop\n        /* \"#utility.yul\":334:460   */\n      swap2\n      swap1\n      pop\n      jump\t// out\n        /* \"#utility.yul\":466:562   */\n    tag_291:\n        /* \"#utility.yul\":503:510   */\n      0x00\n        /* \"#utility.yul\":532:556   */\n      tag_369\n        /* \"#utility.yul\":550:555   */\n      dup3\n        /* \"#utility.yul\":532:556   */\n      tag_290\n      jump\t// in\n    tag_369:\n        /* \"#utility.yul\":521:556   */\n      swap1\n      pop\n        /* \"#utility.yul\":466:562   */\n      swap2\n      swap1\n      pop\n      jump\t// out\n        /* \"#utility.yul\":568:690   */\n    tag_292:\n        /* \"#utility.yul\":641:665   */\n      tag_371\n        /* \"#utility.yul\":659:664   */\n      dup2\n        /* \"#utility.yul\":641:665   */\n      tag_291\n      jump\t// in\n    tag_371:\n        /* \"#utility.yul\":634:639   */\n      dup2\n        /* \"#utility.yul\":631:666   */\n      eq\n        /* \"#utility.yul\":621:684   */\n      tag_372\n      jumpi\n        /* \"#utility.yul\":680:681   */\n      0x00\n        /* \"#utility.yul\":677:678   */\n      dup1\n        /* \"#utility.yul\":670:682   */\n      revert\n        /* \"#utility.yul\":621:684   */\n    tag_372:\n        /* \"#utility.yul\":568:690   */\n      pop\n      jump\t// out\n        /* \"#utility.yul\":696:835   */\n    tag_293:\n        /* \"#utility.yul\":742:747   */\n      0x00\n        /* \"#utility.yul\":780:786   */\n      dup2\n        /* \"#utility.yul\":767:787   */\n      calldataload\n        /* \"#utility.yul\":758:787   */\n      swap1\n      pop\n        /* \"#utility.yul\":796:829   */\n      tag_374\n        /* \"#utility.yul\":823:828   */\n      dup2\n        /* \"#utility.yul\":796:829   */\n      tag_292\n      jump\t// in\n    tag_374:\n        /* \"#utility.yul\":696:835   */\n      swap3\n      swap2\n      pop\n      pop\n      jump\t// out\n        /* \"#utility.yul\":841:1170   */\n    tag_26:\n        /* \"#utility.yul\":900:906   */\n      0x00\n        /* \"#utility.yul\":949:951   */\n      0x20\n        /* \"#utility.yul\":937:946   */\n      dup3\n        /* \"#utility.yul\":928:935   */\n      dup5\n        /* \"#utility.yul\":924:947   */\n      sub\n        /* \"#utility.yul\":920:952   */\n      slt\n        /* \"#utility.yul\":917:1036   */\n      iszero\n      tag_376\n      jumpi\n        /* \"#utility.yul\":955:1034   */\n      tag_377\n      tag_288\n      jump\t// in\n    tag_377:\n        /* \"#utility.yul\":917:1036   */\n    tag_376:\n        /* \"#utility.yul\":1075:1076   */\n      0x00\n        /* \"#utility.yul\":1100:1153   */\n      tag_378\n        /* \"#utility.yul\":1145:1152   */\n      dup5\n        /* \"#utility.yul\":1136:1142   */\n      dup3\n        /* \"#utility.yul\":1125:1134   */\n      dup6\n        /* \"#utility.yul\":1121:1143   */\n      add\n        /* \"#utility.yul\":1100:1153   */\n      tag_293\n      jump\t// in\n    tag_378:\n        /* \"#utility.yul\":1090:1153   */\n      swap2\n      pop\n        /* \"#utility.yul\":1046:1163   */\n      pop\n        /* \"#utility.yul\":841:1170   */\n      swap3\n      swap2\n      pop\n      pop\n      jump\t// out\n        /* \"#utility.yul\":1176:1275   */\n    tag_294:\n        /* \"#utility.yul\":1228:1234   */\n      0x00\n        /* \"#utility.yul\":1262:1267   */\n      dup2\n        /* \"#utility.yul\":1256:1268   */\n      mload\n        /* \"#utility.yul\":1246:1268   */\n      swap1\n      pop\n        /* \"#utility.yul\":1176:1275   */\n      swap2\n      swap1\n      pop\n      jump\t// out\n        /* \"#utility.yul\":1281:1450   */\n    tag_295:\n        /* \"#utility.yul\":1365:1376   */\n      0x00\n        /* \"#utility.yul\":1399:1405   */\n      dup3\n        /* \"#utility.yul\":1394:1397   */\n      dup3\n        /* \"#utility.yul\":1387:1406   */\n      mstore\n        /* \"#utility.yul\":1439:1443   */\n      0x20\n        /* \"#utility.yul\":1434:1437   */\n      dup3\n        /* \"#utility.yul\":1430:1444   */\n      add\n        /* \"#utility.yul\":1415:1444   */\n      swap1\n      pop\n        /* \"#utility.yul\":1281:1450   */\n      swap3\n      swap2\n      pop\n      pop\n      jump\t// out\n        /* \"#utility.yul\":1456:1595   */\n    tag_296:\n        /* \"#utility.yul\":1545:1551   */\n      dup3\n        /* \"#utility.yul\":1540:1543   */\n      dup2\n        /* \"#utility.yul\":1535:1538   */\n      dup4\n        /* \"#utility.yul\":1529:1552   */\n      mcopy\n        /* \"#utility.yul\":1586:1587   */\n      0x00\n        /* \"#utility.yul\":1577:1583   */\n      dup4\n        /* \"#utility.yul\":1572:1575   */\n      dup4\n        /* \"#utility.yul\":1568:1584   */\n      add\n        /* \"#utility.yul\":1561:1588   */\n      mstore\n        /* \"#utility.yul\":1456:1595   */\n      pop\n      pop\n      pop\n      jump\t// out\n        /* \"#utility.yul\":1601:1703   */\n    tag_297:\n        /* \"#utility.yul\":1642:1648   */\n      0x00\n        /* \"#utility.yul\":1693:1695   */\n      0x1f\n        /* \"#utility.yul\":1689:1696   */\n      not\n        /* \"#utility.yul\":1684:1686   */\n      0x1f\n        /* \"#utility.yul\":1677:1682   */\n      dup4\n        /* \"#utility.yul\":1673:1687   */\n      add\n        /* \"#utility.yul\":1669:1697   */\n      and\n        /* \"#utility.yul\":1659:1697   */\n      swap1\n      pop\n        /* \"#utility.yul\":1601:1703   */\n      swap2\n      swap1\n      pop\n      jump\t// out\n        /* \"#utility.yul\":1709:2086   */\n    tag_298:\n        /* \"#utility.yul\":1797:1800   */\n      0x00\n        /* \"#utility.yul\":1825:1864   */\n      tag_384\n        /* \"#utility.yul\":1858:1863   */\n      dup3\n        /* \"#utility.yul\":1825:1864   */\n      tag_294\n      jump\t// in\n    tag_384:\n        /* \"#utility.yul\":1880:1951   */\n      tag_385\n        /* \"#utility.yul\":1944:1950   */\n      dup2\n        /* \"#utility.yul\":1939:1942   */\n      dup6\n        /* \"#utility.yul\":1880:1951   */\n      tag_295\n      jump\t// in\n    tag_385:\n        /* \"#utility.yul\":1873:1951   */\n      swap4\n      pop\n        /* \"#utility.yul\":1960:2025   */\n      tag_386\n        /* \"#utility.yul\":2018:2024   */\n      dup2\n        /* \"#utility.yul\":2013:2016   */\n      dup6\n        /* \"#utility.yul\":2006:2010   */\n      0x20\n        /* \"#utility.yul\":1999:2004   */\n      dup7\n        /* \"#utility.yul\":1995:2011   */\n      add\n        /* \"#utility.yul\":1960:2025   */\n      tag_296\n      jump\t// in\n    tag_386:\n        /* \"#utility.yul\":2050:2079   */\n      tag_387\n        /* \"#utility.yul\":2072:2078   */\n      dup2\n        /* \"#utility.yul\":2050:2079   */\n      tag_297\n      jump\t// in\n    tag_387:\n        /* \"#utility.yul\":2045:2048   */\n      dup5\n        /* \"#utility.yul\":2041:2080   */\n      add\n        /* \"#utility.yul\":2034:2080   */\n      swap2\n      pop\n        /* \"#utility.yul\":1801:2086   */\n      pop\n        /* \"#utility.yul\":1709:2086   */\n      swap3\n      swap2\n      pop\n      pop\n      jump\t// out\n        /* \"#utility.yul\":2092:2169   */\n    tag_299:\n        /* \"#utility.yul\":2129:2136   */\n      0x00\n        /* \"#utility.yul\":2158:2163   */\n      dup2\n        /* \"#utility.yul\":2147:2163   */\n      swap1\n      pop\n        /* \"#utility.yul\":2092:2169   */\n      swap2\n      swap1\n      pop\n      jump\t// out\n        /* \"#utility.yul\":2175:2293   */\n    tag_300:\n        /* \"#utility.yul\":2262:2286   */\n      tag_390\n        /* \"#utility.yul\":2280:2285   */\n      dup2\n        /* \"#utility.yul\":2262:2286   */\n      tag_299\n      jump\t// in\n    tag_390:\n        /* \"#utility.yul\":2257:2260   */\n      dup3\n        /* \"#utility.yul\":2250:2287   */\n      mstore\n        /* \"#utility.yul\":2175:2293   */\n      pop\n      pop\n      jump\t// out\n        /* \"#utility.yul\":2299:2417   */\n    tag_301:\n        /* \"#utility.yul\":2386:2410   */\n      tag_392\n        /* \"#utility.yul\":2404:2409   */\n      dup2\n        /* \"#utility.yul\":2386:2410   */\n      tag_291\n      jump\t// in\n    tag_392:\n        /* \"#utility.yul\":2381:2384   */\n      dup3\n        /* \"#utility.yul\":2374:2411   */\n      mstore\n        /* \"#utility.yul\":2299:2417   */\n      pop\n      pop\n      jump\t// out\n        /* \"#utility.yul\":2423:3360   */\n    tag_29:\n        /* \"#utility.yul\":2688:2692   */\n      0x00\n        /* \"#utility.yul\":2726:2729   */\n      0xa0\n        /* \"#utility.yul\":2715:2724   */\n      dup3\n        /* \"#utility.yul\":2711:2730   */\n      add\n        /* \"#utility.yul\":2703:2730   */\n      swap1\n      pop\n        /* \"#utility.yul\":2776:2785   */\n      dup2\n        /* \"#utility.yul\":2770:2774   */\n      dup2\n        /* \"#utility.yul\":2766:2786   */\n      sub\n        /* \"#utility.yul\":2762:2763   */\n      0x00\n        /* \"#utility.yul\":2751:2760   */\n      dup4\n        /* \"#utility.yul\":2747:2764   */\n      add\n        /* \"#utility.yul\":2740:2787   */\n      mstore\n        /* \"#utility.yul\":2804:2882   */\n      tag_394\n        /* \"#utility.yul\":2877:2881   */\n      dup2\n        /* \"#utility.yul\":2868:2874   */\n      dup9\n        /* \"#utility.yul\":2804:2882   */\n      tag_298\n      jump\t// in\n    tag_394:\n        /* \"#utility.yul\":2796:2882   */\n      swap1\n      pop\n        /* \"#utility.yul\":2929:2938   */\n      dup2\n        /* \"#utility.yul\":2923:2927   */\n      dup2\n        /* \"#utility.yul\":2919:2939   */\n      sub\n        /* \"#utility.yul\":2914:2916   */\n      0x20\n        /* \"#utility.yul\":2903:2912   */\n      dup4\n        /* \"#utility.yul\":2899:2917   */\n      add\n        /* \"#utility.yul\":2892:2940   */\n      mstore\n        /* \"#utility.yul\":2957:3035   */\n      tag_395\n        /* \"#utility.yul\":3030:3034   */\n      dup2\n        /* \"#utility.yul\":3021:3027   */\n      dup8\n        /* \"#utility.yul\":2957:3035   */\n      tag_298\n      jump\t// in\n    tag_395:\n        /* \"#utility.yul\":2949:3035   */\n      swap1\n      pop\n        /* \"#utility.yul\":3045:3117   */\n      tag_396\n        /* \"#utility.yul\":3113:3115   */\n      0x40\n        /* \"#utility.yul\":3102:3111   */\n      dup4\n        /* \"#utility.yul\":3098:3116   */\n      add\n        /* \"#utility.yul\":3089:3095   */\n      dup7\n        /* \"#utility.yul\":3045:3117   */\n      tag_300\n      jump\t// in\n    tag_396:\n        /* \"#utility.yul\":3164:3173   */\n      dup2\n        /* \"#utility.yul\":3158:3162   */\n      dup2\n        /* \"#utility.yul\":3154:3174   */\n      sub\n        /* \"#utility.yul\":3149:3151   */\n      0x60\n        /* \"#utility.yul\":3138:3147   */\n      dup4\n        /* \"#utility.yul\":3134:3152   */\n      add\n        /* \"#utility.yul\":3127:3175   */\n      mstore\n        /* \"#utility.yul\":3192:3270   */\n      tag_397\n        /* \"#utility.yul\":3265:3269   */\n      dup2\n        /* \"#utility.yul\":3256:3262   */\n      dup6\n        /* \"#utility.yul\":3192:3270   */\n      tag_298\n      jump\t// in\n    tag_397:\n        /* \"#utility.yul\":3184:3270   */\n      swap1\n      pop\n        /* \"#utility.yul\":3280:3353   */\n      tag_398\n        /* \"#utility.yul\":3348:3351   */\n      0x80\n        /* \"#utility.yul\":3337:3346   */\n      dup4\n        /* \"#utility.yul\":3333:3352   */\n      add\n        /* \"#utility.yul\":3324:3330   */\n      dup5\n        /* \"#utility.yul\":3280:3353   */\n      tag_301\n      jump\t// in\n    tag_398:\n        /* \"#utility.yul\":2423:3360   */\n      swap7\n      swap6\n      pop\n      pop\n      pop\n      pop\n      pop\n      pop\n      jump\t// out\n        /* \"#utility.yul\":3366:3483   */\n    tag_302:\n        /* \"#utility.yul\":3475:3476   */\n      0x00\n        /* \"#utility.yul\":3472:3473   */\n      dup1\n        /* \"#utility.yul\":3465:3477   */\n      revert\n        /* \"#utility.yul\":3489:3606   */\n    tag_303:\n        /* \"#utility.yul\":3598:3599   */\n      0x00\n        /* \"#utility.yul\":3595:3596   */\n      dup1\n        /* \"#utility.yul\":3588:3600   */\n      revert\n        /* \"#utility.yul\":3612:3792   */\n    tag_135:\n        /* \"#utility.yul\":3660:3737   */\n      0x4e487b7100000000000000000000000000000000000000000000000000000000\n        /* \"#utility.yul\":3657:3658   */\n      0x00\n        /* \"#utility.yul\":3650:3738   */\n      mstore\n        /* \"#utility.yul\":3757:3761   */\n      0x41\n        /* \"#utility.yul\":3754:3755   */\n      0x04\n        /* \"#utility.yul\":3747:3762   */\n      mstore\n        /* \"#utility.yul\":3781:3785   */\n      0x24\n        /* \"#utility.yul\":3778:3779   */\n      0x00\n        /* \"#utility.yul\":3771:3786   */\n      revert\n        /* \"#utility.yul\":3798:4079   */\n    tag_304:\n        /* \"#utility.yul\":3881:3908   */\n      tag_403\n        /* \"#utility.yul\":3903:3907   */\n      dup3\n        /* \"#utility.yul\":3881:3908   */\n      tag_297\n      jump\t// in\n    tag_403:\n        /* \"#utility.yul\":3873:3879   */\n      dup2\n        /* \"#utility.yul\":3869:3909   */\n      add\n        /* \"#utility.yul\":4011:4017   */\n      dup2\n        /* \"#utility.yul\":3999:4009   */\n      dup2\n        /* \"#utility.yul\":3996:4018   */\n      lt\n        /* \"#utility.yul\":3975:3993   */\n      0xffffffffffffffff\n        /* \"#utility.yul\":3963:3973   */\n      dup3\n        /* \"#utility.yul\":3960:3994   */\n      gt\n        /* \"#utility.yul\":3957:4019   */\n      or\n        /* \"#utility.yul\":3954:4042   */\n      iszero\n      tag_404\n      jumpi\n        /* \"#utility.yul\":4022:4040   */\n      tag_405\n      tag_135\n      jump\t// in\n    tag_405:\n        /* \"#utility.yul\":3954:4042   */\n    tag_404:\n        /* \"#utility.yul\":4062:4072   */\n      dup1\n        /* \"#utility.yul\":4058:4060   */\n      0x40\n        /* \"#utility.yul\":4051:4073   */\n      mstore\n        /* \"#utility.yul\":3841:4079   */\n      pop\n        /* \"#utility.yul\":3798:4079   */\n      pop\n      pop\n      jump\t// out\n        /* \"#utility.yul\":4085:4214   */\n    tag_305:\n        /* \"#utility.yul\":4119:4125   */\n      0x00\n        /* \"#utility.yul\":4146:4166   */\n      tag_407\n      tag_287\n      jump\t// in\n    tag_407:\n        /* \"#utility.yul\":4136:4166   */\n      swap1\n      pop\n        /* \"#utility.yul\":4175:4208   */\n      tag_408\n        /* \"#utility.yul\":4203:4207   */\n      dup3\n        /* \"#utility.yul\":4195:4201   */\n      dup3\n        /* \"#utility.yul\":4175:4208   */\n      tag_304\n      jump\t// in\n    tag_408:\n        /* \"#utility.yul\":4085:4214   */\n      swap2\n      swap1\n      pop\n      jump\t// out\n        /* \"#utility.yul\":4220:4528   */\n    tag_306:\n        /* \"#utility.yul\":4282:4286   */\n      0x00\n        /* \"#utility.yul\":4372:4390   */\n      0xffffffffffffffff\n        /* \"#utility.yul\":4364:4370   */\n      dup3\n        /* \"#utility.yul\":4361:4391   */\n      gt\n        /* \"#utility.yul\":4358:4414   */\n      iszero\n      tag_410\n      jumpi\n        /* \"#utility.yul\":4394:4412   */\n      tag_411\n      tag_135\n      jump\t// in\n    tag_411:\n        /* \"#utility.yul\":4358:4414   */\n    tag_410:\n        /* \"#utility.yul\":4432:4461   */\n      tag_412\n        /* \"#utility.yul\":4454:4460   */\n      dup3\n        /* \"#utility.yul\":4432:4461   */\n      tag_297\n      jump\t// in\n    tag_412:\n        /* \"#utility.yul\":4424:4461   */\n      swap1\n      pop\n        /* \"#utility.yul\":4516:4520   */\n      0x20\n        /* \"#utility.yul\":4510:4514   */\n      dup2\n        /* \"#utility.yul\":4506:4521   */\n      add\n        /* \"#utility.yul\":4498:4521   */\n      swap1\n      pop\n        /* \"#utility.yul\":4220:4528   */\n      swap2\n      swap1\n      pop\n      jump\t// out\n        /* \"#utility.yul\":4534:4682   */\n    tag_307:\n        /* \"#utility.yul\":4632:4638   */\n      dup3\n        /* \"#utility.yul\":4627:4630   */\n      dup2\n        /* \"#utility.yul\":4622:4625   */\n      dup4\n        /* \"#utility.yul\":4609:4639   */\n      calldatacopy\n        /* \"#utility.yul\":4673:4674   */\n      0x00\n        /* \"#utility.yul\":4664:4670   */\n      dup4\n        /* \"#utility.yul\":4659:4662   */\n      dup4\n        /* \"#utility.yul\":4655:4671   */\n      add\n        /* \"#utility.yul\":4648:4675   */\n      mstore\n        /* \"#utility.yul\":4534:4682   */\n      pop\n      pop\n      pop\n      jump\t// out\n        /* \"#utility.yul\":4688:5113   */\n    tag_308:\n        /* \"#utility.yul\":4766:4771   */\n      0x00\n        /* \"#utility.yul\":4791:4857   */\n      tag_415\n        /* \"#utility.yul\":4807:4856   */\n      tag_416\n        /* \"#utility.yul\":4849:4855   */\n      dup5\n        /* \"#utility.yul\":4807:4856   */\n      tag_306\n      jump\t// in\n    tag_416:\n        /* \"#utility.yul\":4791:4857   */\n      tag_305\n      jump\t// in\n    tag_415:\n        /* \"#utility.yul\":4782:4857   */\n      swap1\n      pop\n        /* \"#utility.yul\":4880:4886   */\n      dup3\n        /* \"#utility.yul\":4873:4878   */\n      dup2\n        /* \"#utility.yul\":4866:4887   */\n      mstore\n        /* \"#utility.yul\":4918:4922   */\n      0x20\n        /* \"#utility.yul\":4911:4916   */\n      dup2\n        /* \"#utility.yul\":4907:4923   */\n      add\n        /* \"#utility.yul\":4956:4959   */\n      dup5\n        /* \"#utility.yul\":4947:4953   */\n      dup5\n        /* \"#utility.yul\":4942:4945   */\n      dup5\n        /* \"#utility.yul\":4938:4954   */\n      add\n        /* \"#utility.yul\":4935:4960   */\n      gt\n        /* \"#utility.yul\":4932:5044   */\n      iszero\n      tag_417\n      jumpi\n        /* \"#utility.yul\":4963:5042   */\n      tag_418\n      tag_303\n      jump\t// in\n    tag_418:\n        /* \"#utility.yul\":4932:5044   */\n    tag_417:\n        /* \"#utility.yul\":5053:5107   */\n      tag_419\n        /* \"#utility.yul\":5100:5106   */\n      dup5\n        /* \"#utility.yul\":5095:5098   */\n      dup3\n        /* \"#utility.yul\":5090:5093   */\n      dup6\n        /* \"#utility.yul\":5053:5107   */\n      tag_307\n      jump\t// in\n    tag_419:\n        /* \"#utility.yul\":4772:5113   */\n      pop\n        /* \"#utility.yul\":4688:5113   */\n      swap4\n      swap3\n      pop\n      pop\n      pop\n      jump\t// out\n        /* \"#utility.yul\":5133:5473   */\n    tag_309:\n        /* \"#utility.yul\":5189:5194   */\n      0x00\n        /* \"#utility.yul\":5238:5241   */\n      dup3\n        /* \"#utility.yul\":5231:5235   */\n      0x1f\n        /* \"#utility.yul\":5223:5229   */\n      dup4\n        /* \"#utility.yul\":5219:5236   */\n      add\n        /* \"#utility.yul\":5215:5242   */\n      slt\n        /* \"#utility.yul\":5205:5327   */\n      tag_421\n      jumpi\n        /* \"#utility.yul\":5246:5325   */\n      tag_422\n      tag_302\n      jump\t// in\n    tag_422:\n        /* \"#utility.yul\":5205:5327   */\n    tag_421:\n        /* \"#utility.yul\":5363:5369   */\n      dup2\n        /* \"#utility.yul\":5350:5370   */\n      calldataload\n        /* \"#utility.yul\":5388:5467   */\n      tag_423\n        /* \"#utility.yul\":5463:5466   */\n      dup5\n        /* \"#utility.yul\":5455:5461   */\n      dup3\n        /* \"#utility.yul\":5448:5452   */\n      0x20\n        /* \"#utility.yul\":5440:5446   */\n      dup7\n        /* \"#utility.yul\":5436:5453   */\n      add\n        /* \"#utility.yul\":5388:5467   */\n      tag_308\n      jump\t// in\n    tag_423:\n        /* \"#utility.yul\":5379:5467   */\n      swap2\n      pop\n        /* \"#utility.yul\":5195:5473   */\n      pop\n        /* \"#utility.yul\":5133:5473   */\n      swap3\n      swap2\n      pop\n      pop\n      jump\t// out\n        /* \"#utility.yul\":5479:5988   */\n    tag_32:\n        /* \"#utility.yul\":5548:5554   */\n      0x00\n        /* \"#utility.yul\":5597:5599   */\n      0x20\n        /* \"#utility.yul\":5585:5594   */\n      dup3\n        /* \"#utility.yul\":5576:5583   */\n      dup5\n        /* \"#utility.yul\":5572:5595   */\n      sub\n        /* \"#utility.yul\":5568:5600   */\n      slt\n        /* \"#utility.yul\":5565:5684   */\n      iszero\n      tag_425\n      jumpi\n        /* \"#utility.yul\":5603:5682   */\n      tag_426\n      tag_288\n      jump\t// in\n    tag_426:\n        /* \"#utility.yul\":5565:5684   */\n    tag_425:\n        /* \"#utility.yul\":5751:5752   */\n      0x00\n        /* \"#utility.yul\":5740:5749   */\n      dup3\n        /* \"#utility.yul\":5736:5753   */\n      add\n        /* \"#utility.yul\":5723:5754   */\n      calldataload\n        /* \"#utility.yul\":5781:5799   */\n      0xffffffffffffffff\n        /* \"#utility.yul\":5773:5779   */\n      dup2\n        /* \"#utility.yul\":5770:5800   */\n      gt\n        /* \"#utility.yul\":5767:5884   */\n      iszero\n      tag_427\n      jumpi\n        /* \"#utility.yul\":5803:5882   */\n      tag_428\n      tag_289\n      jump\t// in\n    tag_428:\n        /* \"#utility.yul\":5767:5884   */\n    tag_427:\n        /* \"#utility.yul\":5908:5971   */\n      tag_429\n        /* \"#utility.yul\":5963:5970   */\n      dup5\n        /* \"#utility.yul\":5954:5960   */\n      dup3\n        /* \"#utility.yul\":5943:5952   */\n      dup6\n        /* \"#utility.yul\":5939:5961   */\n      add\n        /* \"#utility.yul\":5908:5971   */\n      tag_309\n      jump\t// in\n    tag_429:\n        /* \"#utility.yul\":5898:5971   */\n      swap2\n      pop\n        /* \"#utility.yul\":5694:5981   */\n      pop\n        /* \"#utility.yul\":5479:5988   */\n      swap3\n      swap2\n      pop\n      pop\n      jump\t// out\n        /* \"#utility.yul\":5994:6129   */\n    tag_310:\n        /* \"#utility.yul\":6082:6088   */\n      0x00\n        /* \"#utility.yul\":6116:6121   */\n      dup2\n        /* \"#utility.yul\":6110:6122   */\n      mload\n        /* \"#utility.yul\":6100:6122   */\n      swap1\n      pop\n        /* \"#utility.yul\":5994:6129   */\n      swap2\n      swap1\n      pop\n      jump\t// out\n        /* \"#utility.yul\":6135:6340   */\n    tag_311:\n        /* \"#utility.yul\":6255:6266   */\n      0x00\n        /* \"#utility.yul\":6289:6295   */\n      dup3\n        /* \"#utility.yul\":6284:6287   */\n      dup3\n        /* \"#utility.yul\":6277:6296   */\n      mstore\n        /* \"#utility.yul\":6329:6333   */\n      0x20\n        /* \"#utility.yul\":6324:6327   */\n      dup3\n        /* \"#utility.yul\":6320:6334   */\n      add\n        /* \"#utility.yul\":6305:6334   */\n      swap1\n      pop\n        /* \"#utility.yul\":6135:6340   */\n      swap3\n      swap2\n      pop\n      pop\n      jump\t// out\n        /* \"#utility.yul\":6346:6499   */\n    tag_312:\n        /* \"#utility.yul\":6434:6438   */\n      0x00\n        /* \"#utility.yul\":6457:6460   */\n      dup2\n        /* \"#utility.yul\":6449:6460   */\n      swap1\n      pop\n        /* \"#utility.yul\":6487:6491   */\n      0x20\n        /* \"#utility.yul\":6482:6485   */\n      dup3\n        /* \"#utility.yul\":6478:6492   */\n      add\n        /* \"#utility.yul\":6470:6492   */\n      swap1\n      pop\n        /* \"#utility.yul\":6346:6499   */\n      swap2\n      swap1\n      pop\n      jump\t// out\n        /* \"#utility.yul\":6505:6613   */\n    tag_313:\n        /* \"#utility.yul\":6582:6606   */\n      tag_434\n        /* \"#utility.yul\":6600:6605   */\n      dup2\n        /* \"#utility.yul\":6582:6606   */\n      tag_299\n      jump\t// in\n    tag_434:\n        /* \"#utility.yul\":6577:6580   */\n      dup3\n        /* \"#utility.yul\":6570:6607   */\n      mstore\n        /* \"#utility.yul\":6505:6613   */\n      pop\n      pop\n      jump\t// out\n        /* \"#utility.yul\":6619:6778   */\n    tag_314:\n        /* \"#utility.yul\":6693:6704   */\n      0x00\n        /* \"#utility.yul\":6727:6733   */\n      dup3\n        /* \"#utility.yul\":6722:6725   */\n      dup3\n        /* \"#utility.yul\":6715:6734   */\n      mstore\n        /* \"#utility.yul\":6767:6771   */\n      0x20\n        /* \"#utility.yul\":6762:6765   */\n      dup3\n        /* \"#utility.yul\":6758:6772   */\n      add\n        /* \"#utility.yul\":6743:6772   */\n      swap1\n      pop\n        /* \"#utility.yul\":6619:6778   */\n      swap3\n      swap2\n      pop\n      pop\n      jump\t// out\n        /* \"#utility.yul\":6784:7141   */\n    tag_315:\n        /* \"#utility.yul\":6862:6865   */\n      0x00\n        /* \"#utility.yul\":6890:6929   */\n      tag_437\n        /* \"#utility.yul\":6923:6928   */\n      dup3\n        /* \"#utility.yul\":6890:6929   */\n      tag_294\n      jump\t// in\n    tag_437:\n        /* \"#utility.yul\":6945:7006   */\n      tag_438\n        /* \"#utility.yul\":6999:7005   */\n      dup2\n        /* \"#utility.yul\":6994:6997   */\n      dup6\n        /* \"#utility.yul\":6945:7006   */\n      tag_314\n      jump\t// in\n    tag_438:\n        /* \"#utility.yul\":6938:7006   */\n      swap4\n      pop\n        /* \"#utility.yul\":7015:7080   */\n      tag_439\n        /* \"#utility.yul\":7073:7079   */\n      dup2\n        /* \"#utility.yul\":7068:7071   */\n      dup6\n        /* \"#utility.yul\":7061:7065   */\n      0x20\n        /* \"#utility.yul\":7054:7059   */\n      dup7\n        /* \"#utility.yul\":7050:7066   */\n      add\n        /* \"#utility.yul\":7015:7080   */\n      tag_296\n      jump\t// in\n    tag_439:\n        /* \"#utility.yul\":7105:7134   */\n      tag_440\n        /* \"#utility.yul\":7127:7133   */\n      dup2\n        /* \"#utility.yul\":7105:7134   */\n      tag_297\n      jump\t// in\n    tag_440:\n        /* \"#utility.yul\":7100:7103   */\n      dup5\n        /* \"#utility.yul\":7096:7135   */\n      add\n        /* \"#utility.yul\":7089:7135   */\n      swap2\n      pop\n        /* \"#utility.yul\":6866:7141   */\n      pop\n        /* \"#utility.yul\":6784:7141   */\n      swap3\n      swap2\n      pop\n      pop\n      jump\t// out\n        /* \"#utility.yul\":7147:7255   */\n    tag_316:\n        /* \"#utility.yul\":7224:7248   */\n      tag_442\n        /* \"#utility.yul\":7242:7247   */\n      dup2\n        /* \"#utility.yul\":7224:7248   */\n      tag_291\n      jump\t// in\n    tag_442:\n        /* \"#utility.yul\":7219:7222   */\n      dup3\n        /* \"#utility.yul\":7212:7249   */\n      mstore\n        /* \"#utility.yul\":7147:7255   */\n      pop\n      pop\n      jump\t// out\n        /* \"#utility.yul\":7319:8590   */\n    tag_317:\n        /* \"#utility.yul\":7420:7423   */\n      0x00\n        /* \"#utility.yul\":7456:7460   */\n      0xa0\n        /* \"#utility.yul\":7451:7454   */\n      dup4\n        /* \"#utility.yul\":7447:7461   */\n      add\n        /* \"#utility.yul\":7548:7552   */\n      0x00\n        /* \"#utility.yul\":7541:7546   */\n      dup4\n        /* \"#utility.yul\":7537:7553   */\n      add\n        /* \"#utility.yul\":7531:7554   */\n      mload\n        /* \"#utility.yul\":7567:7630   */\n      tag_444\n        /* \"#utility.yul\":7624:7628   */\n      0x00\n        /* \"#utility.yul\":7619:7622   */\n      dup7\n        /* \"#utility.yul\":7615:7629   */\n      add\n        /* \"#utility.yul\":7601:7613   */\n      dup3\n        /* \"#utility.yul\":7567:7630   */\n      tag_313\n      jump\t// in\n    tag_444:\n        /* \"#utility.yul\":7471:7640   */\n      pop\n        /* \"#utility.yul\":7724:7728   */\n      0x20\n        /* \"#utility.yul\":7717:7722   */\n      dup4\n        /* \"#utility.yul\":7713:7729   */\n      add\n        /* \"#utility.yul\":7707:7730   */\n      mload\n        /* \"#utility.yul\":7777:7780   */\n      dup5\n        /* \"#utility.yul\":7771:7775   */\n      dup3\n        /* \"#utility.yul\":7767:7781   */\n      sub\n        /* \"#utility.yul\":7760:7764   */\n      0x20\n        /* \"#utility.yul\":7755:7758   */\n      dup7\n        /* \"#utility.yul\":7751:7765   */\n      add\n        /* \"#utility.yul\":7744:7782   */\n      mstore\n        /* \"#utility.yul\":7803:7876   */\n      tag_445\n        /* \"#utility.yul\":7871:7875   */\n      dup3\n        /* \"#utility.yul\":7857:7869   */\n      dup3\n        /* \"#utility.yul\":7803:7876   */\n      tag_315\n      jump\t// in\n    tag_445:\n        /* \"#utility.yul\":7795:7876   */\n      swap2\n      pop\n        /* \"#utility.yul\":7650:7887   */\n      pop\n        /* \"#utility.yul\":7969:7973   */\n      0x40\n        /* \"#utility.yul\":7962:7967   */\n      dup4\n        /* \"#utility.yul\":7958:7974   */\n      add\n        /* \"#utility.yul\":7952:7975   */\n      mload\n        /* \"#utility.yul\":7988:8051   */\n      tag_446\n        /* \"#utility.yul\":8045:8049   */\n      0x40\n        /* \"#utility.yul\":8040:8043   */\n      dup7\n        /* \"#utility.yul\":8036:8050   */\n      add\n        /* \"#utility.yul\":8022:8034   */\n      dup3\n        /* \"#utility.yul\":7988:8051   */\n      tag_316\n      jump\t// in\n    tag_446:\n        /* \"#utility.yul\":7897:8061   */\n      pop\n        /* \"#utility.yul\":8149:8153   */\n      0x60\n        /* \"#utility.yul\":8142:8147   */\n      dup4\n        /* \"#utility.yul\":8138:8154   */\n      add\n        /* \"#utility.yul\":8132:8155   */\n      mload\n        /* \"#utility.yul\":8202:8205   */\n      dup5\n        /* \"#utility.yul\":8196:8200   */\n      dup3\n        /* \"#utility.yul\":8192:8206   */\n      sub\n        /* \"#utility.yul\":8185:8189   */\n      0x60\n        /* \"#utility.yul\":8180:8183   */\n      dup7\n        /* \"#utility.yul\":8176:8190   */\n      add\n        /* \"#utility.yul\":8169:8207   */\n      mstore\n        /* \"#utility.yul\":8228:8301   */\n      tag_447\n        /* \"#utility.yul\":8296:8300   */\n      dup3\n        /* \"#utility.yul\":8282:8294   */\n      dup3\n        /* \"#utility.yul\":8228:8301   */\n      tag_315\n      jump\t// in\n    tag_447:\n        /* \"#utility.yul\":8220:8301   */\n      swap2\n      pop\n        /* \"#utility.yul\":8071:8312   */\n      pop\n        /* \"#utility.yul\":8400:8404   */\n      0x80\n        /* \"#utility.yul\":8393:8398   */\n      dup4\n        /* \"#utility.yul\":8389:8405   */\n      add\n        /* \"#utility.yul\":8383:8406   */\n      mload\n        /* \"#utility.yul\":8453:8456   */\n      dup5\n        /* \"#utility.yul\":8447:8451   */\n      dup3\n        /* \"#utility.yul\":8443:8457   */\n      sub\n        /* \"#utility.yul\":8436:8440   */\n      0x80\n        /* \"#utility.yul\":8431:8434   */\n      dup7\n        /* \"#utility.yul\":8427:8441   */\n      add\n        /* \"#utility.yul\":8420:8458   */\n      mstore\n        /* \"#utility.yul\":8479:8552   */\n      tag_448\n        /* \"#utility.yul\":8547:8551   */\n      dup3\n        /* \"#utility.yul\":8533:8545   */\n      dup3\n        /* \"#utility.yul\":8479:8552   */\n      tag_315\n      jump\t// in\n    tag_448:\n        /* \"#utility.yul\":8471:8552   */\n      swap2\n      pop\n        /* \"#utility.yul\":8322:8563   */\n      pop\n        /* \"#utility.yul\":8580:8584   */\n      dup1\n        /* \"#utility.yul\":8573:8584   */\n      swap2\n      pop\n        /* \"#utility.yul\":7425:8590   */\n      pop\n        /* \"#utility.yul\":7319:8590   */\n      swap3\n      swap2\n      pop\n      pop\n      jump\t// out\n        /* \"#utility.yul\":8596:8836   */\n    tag_318:\n        /* \"#utility.yul\":8707:8717   */\n      0x00\n        /* \"#utility.yul\":8742:8830   */\n      tag_450\n        /* \"#utility.yul\":8826:8829   */\n      dup4\n        /* \"#utility.yul\":8818:8824   */\n      dup4\n        /* \"#utility.yul\":8742:8830   */\n      tag_317\n      jump\t// in\n    tag_450:\n        /* \"#utility.yul\":8728:8830   */\n      swap1\n      pop\n        /* \"#utility.yul\":8596:8836   */\n      swap3\n      swap2\n      pop\n      pop\n      jump\t// out\n        /* \"#utility.yul\":8842:8976   */\n    tag_319:\n        /* \"#utility.yul\":8933:8937   */\n      0x00\n        /* \"#utility.yul\":8965:8969   */\n      0x20\n        /* \"#utility.yul\":8960:8963   */\n      dup3\n        /* \"#utility.yul\":8956:8970   */\n      add\n        /* \"#utility.yul\":8948:8970   */\n      swap1\n      pop\n        /* \"#utility.yul\":8842:8976   */\n      swap2\n      swap1\n      pop\n      jump\t// out\n        /* \"#utility.yul\":9044:10123   */\n    tag_320:\n        /* \"#utility.yul\":9205:9208   */\n      0x00\n        /* \"#utility.yul\":9234:9309   */\n      tag_453\n        /* \"#utility.yul\":9303:9308   */\n      dup3\n        /* \"#utility.yul\":9234:9309   */\n      tag_310\n      jump\t// in\n    tag_453:\n        /* \"#utility.yul\":9325:9432   */\n      tag_454\n        /* \"#utility.yul\":9425:9431   */\n      dup2\n        /* \"#utility.yul\":9420:9423   */\n      dup6\n        /* \"#utility.yul\":9325:9432   */\n      tag_311\n      jump\t// in\n    tag_454:\n        /* \"#utility.yul\":9318:9432   */\n      swap4\n      pop\n        /* \"#utility.yul\":9458:9461   */\n      dup4\n        /* \"#utility.yul\":9503:9507   */\n      0x20\n        /* \"#utility.yul\":9495:9501   */\n      dup3\n        /* \"#utility.yul\":9491:9508   */\n      mul\n        /* \"#utility.yul\":9486:9489   */\n      dup6\n        /* \"#utility.yul\":9482:9509   */\n      add\n        /* \"#utility.yul\":9533:9610   */\n      tag_455\n        /* \"#utility.yul\":9604:9609   */\n      dup6\n        /* \"#utility.yul\":9533:9610   */\n      tag_312\n      jump\t// in\n    tag_455:\n        /* \"#utility.yul\":9633:9640   */\n      dup1\n        /* \"#utility.yul\":9664:9665   */\n      0x00\n        /* \"#utility.yul\":9649:10078   */\n    tag_456:\n        /* \"#utility.yul\":9674:9680   */\n      dup6\n        /* \"#utility.yul\":9671:9672   */\n      dup2\n        /* \"#utility.yul\":9668:9681   */\n      lt\n        /* \"#utility.yul\":9649:10078   */\n      iszero\n      tag_458\n      jumpi\n        /* \"#utility.yul\":9745:9754   */\n      dup5\n        /* \"#utility.yul\":9739:9743   */\n      dup5\n        /* \"#utility.yul\":9735:9755   */\n      sub\n        /* \"#utility.yul\":9730:9733   */\n      dup10\n        /* \"#utility.yul\":9723:9756   */\n      mstore\n        /* \"#utility.yul\":9796:9802   */\n      dup2\n        /* \"#utility.yul\":9790:9803   */\n      mload\n        /* \"#utility.yul\":9824:9930   */\n      tag_459\n        /* \"#utility.yul\":9925:9929   */\n      dup6\n        /* \"#utility.yul\":9910:9923   */\n      dup3\n        /* \"#utility.yul\":9824:9930   */\n      tag_318\n      jump\t// in\n    tag_459:\n        /* \"#utility.yul\":9816:9930   */\n      swap5\n      pop\n        /* \"#utility.yul\":9953:10034   */\n      tag_460\n        /* \"#utility.yul\":10027:10033   */\n      dup4\n        /* \"#utility.yul\":9953:10034   */\n      tag_319\n      jump\t// in\n    tag_460:\n        /* \"#utility.yul\":9943:10034   */\n      swap3\n      pop\n        /* \"#utility.yul\":10063:10067   */\n      0x20\n        /* \"#utility.yul\":10058:10061   */\n      dup11\n        /* \"#utility.yul\":10054:10068   */\n      add\n        /* \"#utility.yul\":10047:10068   */\n      swap10\n      pop\n        /* \"#utility.yul\":9709:10078   */\n      pop\n        /* \"#utility.yul\":9696:9697   */\n      0x01\n        /* \"#utility.yul\":9693:9694   */\n      dup2\n        /* \"#utility.yul\":9689:9698   */\n      add\n        /* \"#utility.yul\":9684:9698   */\n      swap1\n      pop\n        /* \"#utility.yul\":9649:10078   */\n      jump(tag_456)\n    tag_458:\n        /* \"#utility.yul\":9653:9667   */\n      pop\n        /* \"#utility.yul\":10094:10098   */\n      dup3\n        /* \"#utility.yul\":10087:10098   */\n      swap8\n      pop\n        /* \"#utility.yul\":10114:10117   */\n      dup8\n        /* \"#utility.yul\":10107:10117   */\n      swap6\n      pop\n        /* \"#utility.yul\":9210:10123   */\n      pop\n      pop\n      pop\n      pop\n      pop\n        /* \"#utility.yul\":9044:10123   */\n      swap3\n      swap2\n      pop\n      pop\n      jump\t// out\n        /* \"#utility.yul\":10129:10586   */\n    tag_35:\n        /* \"#utility.yul\":10314:10318   */\n      0x00\n        /* \"#utility.yul\":10352:10354   */\n      0x20\n        /* \"#utility.yul\":10341:10350   */\n      dup3\n        /* \"#utility.yul\":10337:10355   */\n      add\n        /* \"#utility.yul\":10329:10355   */\n      swap1\n      pop\n        /* \"#utility.yul\":10401:10410   */\n      dup2\n        /* \"#utility.yul\":10395:10399   */\n      dup2\n        /* \"#utility.yul\":10391:10411   */\n      sub\n        /* \"#utility.yul\":10387:10388   */\n      0x00\n        /* \"#utility.yul\":10376:10385   */\n      dup4\n        /* \"#utility.yul\":10372:10389   */\n      add\n        /* \"#utility.yul\":10365:10412   */\n      mstore\n        /* \"#utility.yul\":10429:10579   */\n      tag_462\n        /* \"#utility.yul\":10574:10578   */\n      dup2\n        /* \"#utility.yul\":10565:10571   */\n      dup5\n        /* \"#utility.yul\":10429:10579   */\n      tag_320\n      jump\t// in\n    tag_462:\n        /* \"#utility.yul\":10421:10579   */\n      swap1\n      pop\n        /* \"#utility.yul\":10129:10586   */\n      swap3\n      swap2\n      pop\n      pop\n      jump\t// out\n        /* \"#utility.yul\":10592:10714   */\n    tag_321:\n        /* \"#utility.yul\":10665:10689   */\n      tag_464\n        /* \"#utility.yul\":10683:10688   */\n      dup2\n        /* \"#utility.yul\":10665:10689   */\n      tag_299\n      jump\t// in\n    tag_464:\n        /* \"#utility.yul\":10658:10663   */\n      dup2\n        /* \"#utility.yul\":10655:10690   */\n      eq\n        /* \"#utility.yul\":10645:10708   */\n      tag_465\n      jumpi\n        /* \"#utility.yul\":10704:10705   */\n      0x00\n        /* \"#utility.yul\":10701:10702   */\n      dup1\n        /* \"#utility.yul\":10694:10706   */\n      revert\n        /* \"#utility.yul\":10645:10708   */\n    tag_465:\n        /* \"#utility.yul\":10592:10714   */\n      pop\n      jump\t// out\n        /* \"#utility.yul\":10720:10859   */\n    tag_322:\n        /* \"#utility.yul\":10766:10771   */\n      0x00\n        /* \"#utility.yul\":10804:10810   */\n      dup2\n        /* \"#utility.yul\":10791:10811   */\n      calldataload\n        /* \"#utility.yul\":10782:10811   */\n      swap1\n      pop\n        /* \"#utility.yul\":10820:10853   */\n      tag_467\n        /* \"#utility.yul\":10847:10852   */\n      dup2\n        /* \"#utility.yul\":10820:10853   */\n      tag_321\n      jump\t// in\n    tag_467:\n        /* \"#utility.yul\":10720:10859   */\n      swap3\n      swap2\n      pop\n      pop\n      jump\t// out\n        /* \"#utility.yul\":10865:11194   */\n    tag_38:\n        /* \"#utility.yul\":10924:10930   */\n      0x00\n        /* \"#utility.yul\":10973:10975   */\n      0x20\n        /* \"#utility.yul\":10961:10970   */\n      dup3\n        /* \"#utility.yul\":10952:10959   */\n      dup5\n        /* \"#utility.yul\":10948:10971   */\n      sub\n        /* \"#utility.yul\":10944:10976   */\n      slt\n        /* \"#utility.yul\":10941:11060   */\n      iszero\n      tag_469\n      jumpi\n        /* \"#utility.yul\":10979:11058   */\n      tag_470\n      tag_288\n      jump\t// in\n    tag_470:\n        /* \"#utility.yul\":10941:11060   */\n    tag_469:\n        /* \"#utility.yul\":11099:11100   */\n      0x00\n        /* \"#utility.yul\":11124:11177   */\n      tag_471\n        /* \"#utility.yul\":11169:11176   */\n      dup5\n        /* \"#utility.yul\":11160:11166   */\n      dup3\n        /* \"#utility.yul\":11149:11158   */\n      dup6\n        /* \"#utility.yul\":11145:11167   */\n      add\n        /* \"#utility.yul\":11124:11177   */\n      tag_322\n      jump\t// in\n    tag_471:\n        /* \"#utility.yul\":11114:11177   */\n      swap2\n      pop\n        /* \"#utility.yul\":11070:11187   */\n      pop\n        /* \"#utility.yul\":10865:11194   */\n      swap3\n      swap2\n      pop\n      pop\n      jump\t// out\n        /* \"#utility.yul\":11200:11422   */\n    tag_41:\n        /* \"#utility.yul\":11293:11297   */\n      0x00\n        /* \"#utility.yul\":11331:11333   */\n      0x20\n        /* \"#utility.yul\":11320:11329   */\n      dup3\n        /* \"#utility.yul\":11316:11334   */\n      add\n        /* \"#utility.yul\":11308:11334   */\n      swap1\n      pop\n        /* \"#utility.yul\":11344:11415   */\n      tag_473\n        /* \"#utility.yul\":11412:11413   */\n      0x00\n        /* \"#utility.yul\":11401:11410   */\n      dup4\n        /* \"#utility.yul\":11397:11414   */\n      add\n        /* \"#utility.yul\":11388:11394   */\n      dup5\n        /* \"#utility.yul\":11344:11415   */\n      tag_301\n      jump\t// in\n    tag_473:\n        /* \"#utility.yul\":11200:11422   */\n      swap3\n      swap2\n      pop\n      pop\n      jump\t// out\n        /* \"#utility.yul\":11428:12587   */\n    tag_44:\n        /* \"#utility.yul\":11535:11541   */\n      0x00\n        /* \"#utility.yul\":11543:11549   */\n      dup1\n        /* \"#utility.yul\":11551:11557   */\n      0x00\n        /* \"#utility.yul\":11600:11602   */\n      0x60\n        /* \"#utility.yul\":11588:11597   */\n      dup5\n        /* \"#utility.yul\":11579:11586   */\n      dup7\n        /* \"#utility.yul\":11575:11598   */\n      sub\n        /* \"#utility.yul\":11571:11603   */\n      slt\n        /* \"#utility.yul\":11568:11687   */\n      iszero\n      tag_475\n      jumpi\n        /* \"#utility.yul\":11606:11685   */\n      tag_476\n      tag_288\n      jump\t// in\n    tag_476:\n        /* \"#utility.yul\":11568:11687   */\n    tag_475:\n        /* \"#utility.yul\":11754:11755   */\n      0x00\n        /* \"#utility.yul\":11743:11752   */\n      dup5\n        /* \"#utility.yul\":11739:11756   */\n      add\n        /* \"#utility.yul\":11726:11757   */\n      calldataload\n        /* \"#utility.yul\":11784:11802   */\n      0xffffffffffffffff\n        /* \"#utility.yul\":11776:11782   */\n      dup2\n        /* \"#utility.yul\":11773:11803   */\n      gt\n        /* \"#utility.yul\":11770:11887   */\n      iszero\n      tag_477\n      jumpi\n        /* \"#utility.yul\":11806:11885   */\n      tag_478\n      tag_289\n      jump\t// in\n    tag_478:\n        /* \"#utility.yul\":11770:11887   */\n    tag_477:\n        /* \"#utility.yul\":11911:11974   */\n      tag_479\n        /* \"#utility.yul\":11966:11973   */\n      dup7\n        /* \"#utility.yul\":11957:11963   */\n      dup3\n        /* \"#utility.yul\":11946:11955   */\n      dup8\n        /* \"#utility.yul\":11942:11964   */\n      add\n        /* \"#utility.yul\":11911:11974   */\n      tag_309\n      jump\t// in\n    tag_479:\n        /* \"#utility.yul\":11901:11974   */\n      swap4\n      pop\n        /* \"#utility.yul\":11697:11984   */\n      pop\n        /* \"#utility.yul\":12051:12053   */\n      0x20\n        /* \"#utility.yul\":12040:12049   */\n      dup5\n        /* \"#utility.yul\":12036:12054   */\n      add\n        /* \"#utility.yul\":12023:12055   */\n      calldataload\n        /* \"#utility.yul\":12082:12100   */\n      0xffffffffffffffff\n        /* \"#utility.yul\":12074:12080   */\n      dup2\n        /* \"#utility.yul\":12071:12101   */\n      gt\n        /* \"#utility.yul\":12068:12185   */\n      iszero\n      tag_480\n      jumpi\n        /* \"#utility.yul\":12104:12183   */\n      tag_481\n      tag_289\n      jump\t// in\n    tag_481:\n        /* \"#utility.yul\":12068:12185   */\n    tag_480:\n        /* \"#utility.yul\":12209:12272   */\n      tag_482\n        /* \"#utility.yul\":12264:12271   */\n      dup7\n        /* \"#utility.yul\":12255:12261   */\n      dup3\n        /* \"#utility.yul\":12244:12253   */\n      dup8\n        /* \"#utility.yul\":12240:12262   */\n      add\n        /* \"#utility.yul\":12209:12272   */\n      tag_309\n      jump\t// in\n    tag_482:\n        /* \"#utility.yul\":12199:12272   */\n      swap3\n      pop\n        /* \"#utility.yul\":11994:12282   */\n      pop\n        /* \"#utility.yul\":12349:12351   */\n      0x40\n        /* \"#utility.yul\":12338:12347   */\n      dup5\n        /* \"#utility.yul\":12334:12352   */\n      add\n        /* \"#utility.yul\":12321:12353   */\n      calldataload\n        /* \"#utility.yul\":12380:12398   */\n      0xffffffffffffffff\n        /* \"#utility.yul\":12372:12378   */\n      dup2\n        /* \"#utility.yul\":12369:12399   */\n      gt\n        /* \"#utility.yul\":12366:12483   */\n      iszero\n      tag_483\n      jumpi\n        /* \"#utility.yul\":12402:12481   */\n      tag_484\n      tag_289\n      jump\t// in\n    tag_484:\n        /* \"#utility.yul\":12366:12483   */\n    tag_483:\n        /* \"#utility.yul\":12507:12570   */\n      tag_485\n        /* \"#utility.yul\":12562:12569   */\n      dup7\n        /* \"#utility.yul\":12553:12559   */\n      dup3\n        /* \"#utility.yul\":12542:12551   */\n      dup8\n        /* \"#utility.yul\":12538:12560   */\n      add\n        /* \"#utility.yul\":12507:12570   */\n      tag_309\n      jump\t// in\n    tag_485:\n        /* \"#utility.yul\":12497:12570   */\n      swap2\n      pop\n        /* \"#utility.yul\":12292:12580   */\n      pop\n        /* \"#utility.yul\":11428:12587   */\n      swap3\n      pop\n      swap3\n      pop\n      swap3\n      jump\t// out\n        /* \"#utility.yul\":12593:12717   */\n    tag_323:\n        /* \"#utility.yul\":12670:12676   */\n      0x00\n        /* \"#utility.yul\":12704:12709   */\n      dup2\n        /* \"#utility.yul\":12698:12710   */\n      mload\n        /* \"#utility.yul\":12688:12710   */\n      swap1\n      pop\n        /* \"#utility.yul\":12593:12717   */\n      swap2\n      swap1\n      pop\n      jump\t// out\n        /* \"#utility.yul\":12723:12917   */\n    tag_324:\n        /* \"#utility.yul\":12832:12843   */\n      0x00\n        /* \"#utility.yul\":12866:12872   */\n      dup3\n        /* \"#utility.yul\":12861:12864   */\n      dup3\n        /* \"#utility.yul\":12854:12873   */\n      mstore\n        /* \"#utility.yul\":12906:12910   */\n      0x20\n        /* \"#utility.yul\":12901:12904   */\n      dup3\n        /* \"#utility.yul\":12897:12911   */\n      add\n        /* \"#utility.yul\":12882:12911   */\n      swap1\n      pop\n        /* \"#utility.yul\":12723:12917   */\n      swap3\n      swap2\n      pop\n      pop\n      jump\t// out\n        /* \"#utility.yul\":12923:13065   */\n    tag_325:\n        /* \"#utility.yul\":13000:13004   */\n      0x00\n        /* \"#utility.yul\":13023:13026   */\n      dup2\n        /* \"#utility.yul\":13015:13026   */\n      swap1\n      pop\n        /* \"#utility.yul\":13053:13057   */\n      0x20\n        /* \"#utility.yul\":13048:13051   */\n      dup3\n        /* \"#utility.yul\":13044:13058   */\n      add\n        /* \"#utility.yul\":13036:13058   */\n      swap1\n      pop\n        /* \"#utility.yul\":12923:13065   */\n      swap2\n      swap1\n      pop\n      jump\t// out\n        /* \"#utility.yul\":13071:13267   */\n    tag_326:\n        /* \"#utility.yul\":13160:13170   */\n      0x00\n        /* \"#utility.yul\":13195:13261   */\n      tag_490\n        /* \"#utility.yul\":13257:13260   */\n      dup4\n        /* \"#utility.yul\":13249:13255   */\n      dup4\n        /* \"#utility.yul\":13195:13261   */\n      tag_315\n      jump\t// in\n    tag_490:\n        /* \"#utility.yul\":13181:13261   */\n      swap1\n      pop\n        /* \"#utility.yul\":13071:13267   */\n      swap3\n      swap2\n      pop\n      pop\n      jump\t// out\n        /* \"#utility.yul\":13273:13396   */\n    tag_327:\n        /* \"#utility.yul\":13353:13357   */\n      0x00\n        /* \"#utility.yul\":13385:13389   */\n      0x20\n        /* \"#utility.yul\":13380:13383   */\n      dup3\n        /* \"#utility.yul\":13376:13390   */\n      add\n        /* \"#utility.yul\":13368:13390   */\n      swap1\n      pop\n        /* \"#utility.yul\":13273:13396   */\n      swap2\n      swap1\n      pop\n      jump\t// out\n        /* \"#utility.yul\":13430:14421   */\n    tag_328:\n        /* \"#utility.yul\":13569:13572   */\n      0x00\n        /* \"#utility.yul\":13598:13662   */\n      tag_493\n        /* \"#utility.yul\":13656:13661   */\n      dup3\n        /* \"#utility.yul\":13598:13662   */\n      tag_323\n      jump\t// in\n    tag_493:\n        /* \"#utility.yul\":13678:13774   */\n      tag_494\n        /* \"#utility.yul\":13767:13773   */\n      dup2\n        /* \"#utility.yul\":13762:13765   */\n      dup6\n        /* \"#utility.yul\":13678:13774   */\n      tag_324\n      jump\t// in\n    tag_494:\n        /* \"#utility.yul\":13671:13774   */\n      swap4\n      pop\n        /* \"#utility.yul\":13800:13803   */\n      dup4\n        /* \"#utility.yul\":13845:13849   */\n      0x20\n        /* \"#utility.yul\":13837:13843   */\n      dup3\n        /* \"#utility.yul\":13833:13850   */\n      mul\n        /* \"#utility.yul\":13828:13831   */\n      dup6\n        /* \"#utility.yul\":13824:13851   */\n      add\n        /* \"#utility.yul\":13875:13941   */\n      tag_495\n        /* \"#utility.yul\":13935:13940   */\n      dup6\n        /* \"#utility.yul\":13875:13941   */\n      tag_325\n      jump\t// in\n    tag_495:\n        /* \"#utility.yul\":13964:13971   */\n      dup1\n        /* \"#utility.yul\":13995:13996   */\n      0x00\n        /* \"#utility.yul\":13980:14376   */\n    tag_496:\n        /* \"#utility.yul\":14005:14011   */\n      dup6\n        /* \"#utility.yul\":14002:14003   */\n      dup2\n        /* \"#utility.yul\":13999:14012   */\n      lt\n        /* \"#utility.yul\":13980:14376   */\n      iszero\n      tag_498\n      jumpi\n        /* \"#utility.yul\":14076:14085   */\n      dup5\n        /* \"#utility.yul\":14070:14074   */\n      dup5\n        /* \"#utility.yul\":14066:14086   */\n      sub\n        /* \"#utility.yul\":14061:14064   */\n      dup10\n        /* \"#utility.yul\":14054:14087   */\n      mstore\n        /* \"#utility.yul\":14127:14133   */\n      dup2\n        /* \"#utility.yul\":14121:14134   */\n      mload\n        /* \"#utility.yul\":14155:14239   */\n      tag_499\n        /* \"#utility.yul\":14234:14238   */\n      dup6\n        /* \"#utility.yul\":14219:14232   */\n      dup3\n        /* \"#utility.yul\":14155:14239   */\n      tag_326\n      jump\t// in\n    tag_499:\n        /* \"#utility.yul\":14147:14239   */\n      swap5\n      pop\n        /* \"#utility.yul\":14262:14332   */\n      tag_500\n        /* \"#utility.yul\":14325:14331   */\n      dup4\n        /* \"#utility.yul\":14262:14332   */\n      tag_327\n      jump\t// in\n    tag_500:\n        /* \"#utility.yul\":14252:14332   */\n      swap3\n      pop\n        /* \"#utility.yul\":14361:14365   */\n      0x20\n        /* \"#utility.yul\":14356:14359   */\n      dup11\n        /* \"#utility.yul\":14352:14366   */\n      add\n        /* \"#utility.yul\":14345:14366   */\n      swap10\n      pop\n        /* \"#utility.yul\":14040:14376   */\n      pop\n        /* \"#utility.yul\":14027:14028   */\n      0x01\n        /* \"#utility.yul\":14024:14025   */\n      dup2\n        /* \"#utility.yul\":14020:14029   */\n      add\n        /* \"#utility.yul\":14015:14029   */\n      swap1\n      pop\n        /* \"#utility.yul\":13980:14376   */\n      jump(tag_496)\n    tag_498:\n        /* \"#utility.yul\":13984:13998   */\n      pop\n        /* \"#utility.yul\":14392:14396   */\n      dup3\n        /* \"#utility.yul\":14385:14396   */\n      swap8\n      pop\n        /* \"#utility.yul\":14412:14415   */\n      dup8\n        /* \"#utility.yul\":14405:14415   */\n      swap6\n      pop\n        /* \"#utility.yul\":13574:14421   */\n      pop\n      pop\n      pop\n      pop\n      pop\n        /* \"#utility.yul\":13430:14421   */\n      swap3\n      swap2\n      pop\n      pop\n      jump\t// out\n        /* \"#utility.yul\":14427:14840   */\n    tag_50:\n        /* \"#utility.yul\":14590:14594   */\n      0x00\n        /* \"#utility.yul\":14628:14630   */\n      0x20\n        /* \"#utility.yul\":14617:14626   */\n      dup3\n        /* \"#utility.yul\":14613:14631   */\n      add\n        /* \"#utility.yul\":14605:14631   */\n      swap1\n      pop\n        /* \"#utility.yul\":14677:14686   */\n      dup2\n        /* \"#utility.yul\":14671:14675   */\n      dup2\n        /* \"#utility.yul\":14667:14687   */\n      sub\n        /* \"#utility.yul\":14663:14664   */\n      0x00\n        /* \"#utility.yul\":14652:14661   */\n      dup4\n        /* \"#utility.yul\":14648:14665   */\n      add\n        /* \"#utility.yul\":14641:14688   */\n      mstore\n        /* \"#utility.yul\":14705:14833   */\n      tag_502\n        /* \"#utility.yul\":14828:14832   */\n      dup2\n        /* \"#utility.yul\":14819:14825   */\n      dup5\n        /* \"#utility.yul\":14705:14833   */\n      tag_328\n      jump\t// in\n    tag_502:\n        /* \"#utility.yul\":14697:14833   */\n      swap1\n      pop\n        /* \"#utility.yul\":14427:14840   */\n      swap3\n      swap2\n      pop\n      pop\n      jump\t// out\n        /* \"#utility.yul\":14846:15320   */\n    tag_53:\n        /* \"#utility.yul\":14914:14920   */\n      0x00\n        /* \"#utility.yul\":14922:14928   */\n      dup1\n        /* \"#utility.yul\":14971:14973   */\n      0x40\n        /* \"#utility.yul\":14959:14968   */\n      dup4\n        /* \"#utility.yul\":14950:14957   */\n      dup6\n        /* \"#utility.yul\":14946:14969   */\n      sub\n        /* \"#utility.yul\":14942:14974   */\n      slt\n        /* \"#utility.yul\":14939:15058   */\n      iszero\n      tag_504\n      jumpi\n        /* \"#utility.yul\":14977:15056   */\n      tag_505\n      tag_288\n      jump\t// in\n    tag_505:\n        /* \"#utility.yul\":14939:15058   */\n    tag_504:\n        /* \"#utility.yul\":15097:15098   */\n      0x00\n        /* \"#utility.yul\":15122:15175   */\n      tag_506\n        /* \"#utility.yul\":15167:15174   */\n      dup6\n        /* \"#utility.yul\":15158:15164   */\n      dup3\n        /* \"#utility.yul\":15147:15156   */\n      dup7\n        /* \"#utility.yul\":15143:15165   */\n      add\n        /* \"#utility.yul\":15122:15175   */\n      tag_293\n      jump\t// in\n    tag_506:\n        /* \"#utility.yul\":15112:15175   */\n      swap3\n      pop\n        /* \"#utility.yul\":15068:15185   */\n      pop\n        /* \"#utility.yul\":15224:15226   */\n      0x20\n        /* \"#utility.yul\":15250:15303   */\n      tag_507\n        /* \"#utility.yul\":15295:15302   */\n      dup6\n        /* \"#utility.yul\":15286:15292   */\n      dup3\n        /* \"#utility.yul\":15275:15284   */\n      dup7\n        /* \"#utility.yul\":15271:15293   */\n      add\n        /* \"#utility.yul\":15250:15303   */\n      tag_293\n      jump\t// in\n    tag_507:\n        /* \"#utility.yul\":15240:15303   */\n      swap2\n      pop\n        /* \"#utility.yul\":15195:15313   */\n      pop\n        /* \"#utility.yul\":14846:15320   */\n      swap3\n      pop\n      swap3\n      swap1\n      pop\n      jump\t// out\n        /* \"#utility.yul\":15326:15416   */\n    tag_329:\n        /* \"#utility.yul\":15360:15367   */\n      0x00\n        /* \"#utility.yul\":15403:15408   */\n      dup2\n        /* \"#utility.yul\":15396:15409   */\n      iszero\n        /* \"#utility.yul\":15389:15410   */\n      iszero\n        /* \"#utility.yul\":15378:15410   */\n      swap1\n      pop\n        /* \"#utility.yul\":15326:15416   */\n      swap2\n      swap1\n      pop\n      jump\t// out\n        /* \"#utility.yul\":15422:15531   */\n    tag_330:\n        /* \"#utility.yul\":15503:15524   */\n      tag_510\n        /* \"#utility.yul\":15518:15523   */\n      dup2\n        /* \"#utility.yul\":15503:15524   */\n      tag_329\n      jump\t// in\n    tag_510:\n        /* \"#utility.yul\":15498:15501   */\n      dup3\n        /* \"#utility.yul\":15491:15525   */\n      mstore\n        /* \"#utility.yul\":15422:15531   */\n      pop\n      pop\n      jump\t// out\n        /* \"#utility.yul\":15537:15747   */\n    tag_56:\n        /* \"#utility.yul\":15624:15628   */\n      0x00\n        /* \"#utility.yul\":15662:15664   */\n      0x20\n        /* \"#utility.yul\":15651:15660   */\n      dup3\n        /* \"#utility.yul\":15647:15665   */\n      add\n        /* \"#utility.yul\":15639:15665   */\n      swap1\n      pop\n        /* \"#utility.yul\":15675:15740   */\n      tag_512\n        /* \"#utility.yul\":15737:15738   */\n      0x00\n        /* \"#utility.yul\":15726:15735   */\n      dup4\n        /* \"#utility.yul\":15722:15739   */\n      add\n        /* \"#utility.yul\":15713:15719   */\n      dup5\n        /* \"#utility.yul\":15675:15740   */\n      tag_330\n      jump\t// in\n    tag_512:\n        /* \"#utility.yul\":15537:15747   */\n      swap3\n      swap2\n      pop\n      pop\n      jump\t// out\n        /* \"#utility.yul\":15753:15867   */\n    tag_331:\n        /* \"#utility.yul\":15820:15826   */\n      0x00\n        /* \"#utility.yul\":15854:15859   */\n      dup2\n        /* \"#utility.yul\":15848:15860   */\n      mload\n        /* \"#utility.yul\":15838:15860   */\n      swap1\n      pop\n        /* \"#utility.yul\":15753:15867   */\n      swap2\n      swap1\n      pop\n      jump\t// out\n        /* \"#utility.yul\":15873:16057   */\n    tag_332:\n        /* \"#utility.yul\":15972:15983   */\n      0x00\n        /* \"#utility.yul\":16006:16012   */\n      dup3\n        /* \"#utility.yul\":16001:16004   */\n      dup3\n        /* \"#utility.yul\":15994:16013   */\n      mstore\n        /* \"#utility.yul\":16046:16050   */\n      0x20\n        /* \"#utility.yul\":16041:16044   */\n      dup3\n        /* \"#utility.yul\":16037:16051   */\n      add\n        /* \"#utility.yul\":16022:16051   */\n      swap1\n      pop\n        /* \"#utility.yul\":15873:16057   */\n      swap3\n      swap2\n      pop\n      pop\n      jump\t// out\n        /* \"#utility.yul\":16063:16195   */\n    tag_333:\n        /* \"#utility.yul\":16130:16134   */\n      0x00\n        /* \"#utility.yul\":16153:16156   */\n      dup2\n        /* \"#utility.yul\":16145:16156   */\n      swap1\n      pop\n        /* \"#utility.yul\":16183:16187   */\n      0x20\n        /* \"#utility.yul\":16178:16181   */\n      dup3\n        /* \"#utility.yul\":16174:16188   */\n      add\n        /* \"#utility.yul\":16166:16188   */\n      swap1\n      pop\n        /* \"#utility.yul\":16063:16195   */\n      swap2\n      swap1\n      pop\n      jump\t// out\n        /* \"#utility.yul\":16201:16380   */\n    tag_334:\n        /* \"#utility.yul\":16270:16280   */\n      0x00\n        /* \"#utility.yul\":16291:16337   */\n      tag_517\n        /* \"#utility.yul\":16333:16336   */\n      dup4\n        /* \"#utility.yul\":16325:16331   */\n      dup4\n        /* \"#utility.yul\":16291:16337   */\n      tag_316\n      jump\t// in\n    tag_517:\n        /* \"#utility.yul\":16369:16373   */\n      0x20\n        /* \"#utility.yul\":16364:16367   */\n      dup4\n        /* \"#utility.yul\":16360:16374   */\n      add\n        /* \"#utility.yul\":16346:16374   */\n      swap1\n      pop\n        /* \"#utility.yul\":16201:16380   */\n      swap3\n      swap2\n      pop\n      pop\n      jump\t// out\n        /* \"#utility.yul\":16386:16499   */\n    tag_335:\n        /* \"#utility.yul\":16456:16460   */\n      0x00\n        /* \"#utility.yul\":16488:16492   */\n      0x20\n        /* \"#utility.yul\":16483:16486   */\n      dup3\n        /* \"#utility.yul\":16479:16493   */\n      add\n        /* \"#utility.yul\":16471:16493   */\n      swap1\n      pop\n        /* \"#utility.yul\":16386:16499   */\n      swap2\n      swap1\n      pop\n      jump\t// out\n        /* \"#utility.yul\":16535:17267   */\n    tag_336:\n        /* \"#utility.yul\":16654:16657   */\n      0x00\n        /* \"#utility.yul\":16683:16737   */\n      tag_520\n        /* \"#utility.yul\":16731:16736   */\n      dup3\n        /* \"#utility.yul\":16683:16737   */\n      tag_331\n      jump\t// in\n    tag_520:\n        /* \"#utility.yul\":16753:16839   */\n      tag_521\n        /* \"#utility.yul\":16832:16838   */\n      dup2\n        /* \"#utility.yul\":16827:16830   */\n      dup6\n        /* \"#utility.yul\":16753:16839   */\n      tag_332\n      jump\t// in\n    tag_521:\n        /* \"#utility.yul\":16746:16839   */\n      swap4\n      pop\n        /* \"#utility.yul\":16863:16919   */\n      tag_522\n        /* \"#utility.yul\":16913:16918   */\n      dup4\n        /* \"#utility.yul\":16863:16919   */\n      tag_333\n      jump\t// in\n    tag_522:\n        /* \"#utility.yul\":16942:16949   */\n      dup1\n        /* \"#utility.yul\":16973:16974   */\n      0x00\n        /* \"#utility.yul\":16958:17242   */\n    tag_523:\n        /* \"#utility.yul\":16983:16989   */\n      dup4\n        /* \"#utility.yul\":16980:16981   */\n      dup2\n        /* \"#utility.yul\":16977:16990   */\n      lt\n        /* \"#utility.yul\":16958:17242   */\n      iszero\n      tag_525\n      jumpi\n        /* \"#utility.yul\":17059:17065   */\n      dup2\n        /* \"#utility.yul\":17053:17066   */\n      mload\n        /* \"#utility.yul\":17086:17149   */\n      tag_526\n        /* \"#utility.yul\":17145:17148   */\n      dup9\n        /* \"#utility.yul\":17130:17143   */\n      dup3\n        /* \"#utility.yul\":17086:17149   */\n      tag_334\n      jump\t// in\n    tag_526:\n        /* \"#utility.yul\":17079:17149   */\n      swap8\n      pop\n        /* \"#utility.yul\":17172:17232   */\n      tag_527\n        /* \"#utility.yul\":17225:17231   */\n      dup4\n        /* \"#utility.yul\":17172:17232   */\n      tag_335\n      jump\t// in\n    tag_527:\n        /* \"#utility.yul\":17162:17232   */\n      swap3\n      pop\n        /* \"#utility.yul\":17018:17242   */\n      pop\n        /* \"#utility.yul\":17005:17006   */\n      0x01\n        /* \"#utility.yul\":17002:17003   */\n      dup2\n        /* \"#utility.yul\":16998:17007   */\n      add\n        /* \"#utility.yul\":16993:17007   */\n      swap1\n      pop\n        /* \"#utility.yul\":16958:17242   */\n      jump(tag_523)\n    tag_525:\n        /* \"#utility.yul\":16962:16976   */\n      pop\n        /* \"#utility.yul\":17258:17261   */\n      dup6\n        /* \"#utility.yul\":17251:17261   */\n      swap4\n      pop\n        /* \"#utility.yul\":16659:17267   */\n      pop\n      pop\n      pop\n        /* \"#utility.yul\":16535:17267   */\n      swap3\n      swap2\n      pop\n      pop\n      jump\t// out\n        /* \"#utility.yul\":17273:17646   */\n    tag_63:\n        /* \"#utility.yul\":17416:17420   */\n      0x00\n        /* \"#utility.yul\":17454:17456   */\n      0x20\n        /* \"#utility.yul\":17443:17452   */\n      dup3\n        /* \"#utility.yul\":17439:17457   */\n      add\n        /* \"#utility.yul\":17431:17457   */\n      swap1\n      pop\n        /* \"#utility.yul\":17503:17512   */\n      dup2\n        /* \"#utility.yul\":17497:17501   */\n      dup2\n        /* \"#utility.yul\":17493:17513   */\n      sub\n        /* \"#utility.yul\":17489:17490   */\n      0x00\n        /* \"#utility.yul\":17478:17487   */\n      dup4\n        /* \"#utility.yul\":17474:17491   */\n      add\n        /* \"#utility.yul\":17467:17514   */\n      mstore\n        /* \"#utility.yul\":17531:17639   */\n      tag_529\n        /* \"#utility.yul\":17634:17638   */\n      dup2\n        /* \"#utility.yul\":17625:17631   */\n      dup5\n        /* \"#utility.yul\":17531:17639   */\n      tag_336\n      jump\t// in\n    tag_529:\n        /* \"#utility.yul\":17523:17639   */\n      swap1\n      pop\n        /* \"#utility.yul\":17273:17646   */\n      swap3\n      swap2\n      pop\n      pop\n      jump\t// out\n        /* \"#utility.yul\":17652:18957   */\n    tag_73:\n        /* \"#utility.yul\":17768:17774   */\n      0x00\n        /* \"#utility.yul\":17776:17782   */\n      dup1\n        /* \"#utility.yul\":17784:17790   */\n      0x00\n        /* \"#utility.yul\":17792:17798   */\n      dup1\n        /* \"#utility.yul\":17841:17844   */\n      0x80\n        /* \"#utility.yul\":17829:17838   */\n      dup6\n        /* \"#utility.yul\":17820:17827   */\n      dup8\n        /* \"#utility.yul\":17816:17839   */\n      sub\n        /* \"#utility.yul\":17812:17845   */\n      slt\n        /* \"#utility.yul\":17809:17929   */\n      iszero\n      tag_531\n      jumpi\n        /* \"#utility.yul\":17848:17927   */\n      tag_532\n      tag_288\n      jump\t// in\n    tag_532:\n        /* \"#utility.yul\":17809:17929   */\n    tag_531:\n        /* \"#utility.yul\":17996:17997   */\n      0x00\n        /* \"#utility.yul\":17985:17994   */\n      dup6\n        /* \"#utility.yul\":17981:17998   */\n      add\n        /* \"#utility.yul\":17968:17999   */\n      calldataload\n        /* \"#utility.yul\":18026:18044   */\n      0xffffffffffffffff\n        /* \"#utility.yul\":18018:18024   */\n      dup2\n        /* \"#utility.yul\":18015:18045   */\n      gt\n        /* \"#utility.yul\":18012:18129   */\n      iszero\n      tag_533\n      jumpi\n        /* \"#utility.yul\":18048:18127   */\n      tag_534\n      tag_289\n      jump\t// in\n    tag_534:\n        /* \"#utility.yul\":18012:18129   */\n    tag_533:\n        /* \"#utility.yul\":18153:18216   */\n      tag_535\n        /* \"#utility.yul\":18208:18215   */\n      dup8\n        /* \"#utility.yul\":18199:18205   */\n      dup3\n        /* \"#utility.yul\":18188:18197   */\n      dup9\n        /* \"#utility.yul\":18184:18206   */\n      add\n        /* \"#utility.yul\":18153:18216   */\n      tag_309\n      jump\t// in\n    tag_535:\n        /* \"#utility.yul\":18143:18216   */\n      swap5\n      pop\n        /* \"#utility.yul\":17939:18226   */\n      pop\n        /* \"#utility.yul\":18293:18295   */\n      0x20\n        /* \"#utility.yul\":18282:18291   */\n      dup6\n        /* \"#utility.yul\":18278:18296   */\n      add\n        /* \"#utility.yul\":18265:18297   */\n      calldataload\n        /* \"#utility.yul\":18324:18342   */\n      0xffffffffffffffff\n        /* \"#utility.yul\":18316:18322   */\n      dup2\n        /* \"#utility.yul\":18313:18343   */\n      gt\n        /* \"#utility.yul\":18310:18427   */\n      iszero\n      tag_536\n      jumpi\n        /* \"#utility.yul\":18346:18425   */\n      tag_537\n      tag_289\n      jump\t// in\n    tag_537:\n        /* \"#utility.yul\":18310:18427   */\n    tag_536:\n        /* \"#utility.yul\":18451:18514   */\n      tag_538\n        /* \"#utility.yul\":18506:18513   */\n      dup8\n        /* \"#utility.yul\":18497:18503   */\n      dup3\n        /* \"#utility.yul\":18486:18495   */\n      dup9\n        /* \"#utility.yul\":18482:18504   */\n      add\n        /* \"#utility.yul\":18451:18514   */\n      tag_309\n      jump\t// in\n    tag_538:\n        /* \"#utility.yul\":18441:18514   */\n      swap4\n      pop\n        /* \"#utility.yul\":18236:18524   */\n      pop\n        /* \"#utility.yul\":18563:18565   */\n      0x40\n        /* \"#utility.yul\":18589:18642   */\n      tag_539\n        /* \"#utility.yul\":18634:18641   */\n      dup8\n        /* \"#utility.yul\":18625:18631   */\n      dup3\n        /* \"#utility.yul\":18614:18623   */\n      dup9\n        /* \"#utility.yul\":18610:18632   */\n      add\n        /* \"#utility.yul\":18589:18642   */\n      tag_322\n      jump\t// in\n    tag_539:\n        /* \"#utility.yul\":18579:18642   */\n      swap3\n      pop\n        /* \"#utility.yul\":18534:18652   */\n      pop\n        /* \"#utility.yul\":18719:18721   */\n      0x60\n        /* \"#utility.yul\":18708:18717   */\n      dup6\n        /* \"#utility.yul\":18704:18722   */\n      add\n        /* \"#utility.yul\":18691:18723   */\n      calldataload\n        /* \"#utility.yul\":18750:18768   */\n      0xffffffffffffffff\n        /* \"#utility.yul\":18742:18748   */\n      dup2\n        /* \"#utility.yul\":18739:18769   */\n      gt\n        /* \"#utility.yul\":18736:18853   */\n      iszero\n      tag_540\n      jumpi\n        /* \"#utility.yul\":18772:18851   */\n      tag_541\n      tag_289\n      jump\t// in\n    tag_541:\n        /* \"#utility.yul\":18736:18853   */\n    tag_540:\n        /* \"#utility.yul\":18877:18940   */\n      tag_542\n        /* \"#utility.yul\":18932:18939   */\n      dup8\n        /* \"#utility.yul\":18923:18929   */\n      dup3\n        /* \"#utility.yul\":18912:18921   */\n      dup9\n        /* \"#utility.yul\":18908:18930   */\n      add\n        /* \"#utility.yul\":18877:18940   */\n      tag_309\n      jump\t// in\n    tag_542:\n        /* \"#utility.yul\":18867:18940   */\n      swap2\n      pop\n        /* \"#utility.yul\":18662:18950   */\n      pop\n        /* \"#utility.yul\":17652:18957   */\n      swap3\n      swap6\n      swap2\n      swap5\n      pop\n      swap3\n      pop\n      jump\t// out\n        /* \"#utility.yul\":18963:19789   */\n    tag_83:\n        /* \"#utility.yul\":19200:19204   */\n      0x00\n        /* \"#utility.yul\":19238:19241   */\n      0x80\n        /* \"#utility.yul\":19227:19236   */\n      dup3\n        /* \"#utility.yul\":19223:19242   */\n      add\n        /* \"#utility.yul\":19215:19242   */\n      swap1\n      pop\n        /* \"#utility.yul\":19288:19297   */\n      dup2\n        /* \"#utility.yul\":19282:19286   */\n      dup2\n        /* \"#utility.yul\":19278:19298   */\n      sub\n        /* \"#utility.yul\":19274:19275   */\n      0x00\n        /* \"#utility.yul\":19263:19272   */\n      dup4\n        /* \"#utility.yul\":19259:19276   */\n      add\n        /* \"#utility.yul\":19252:19299   */\n      mstore\n        /* \"#utility.yul\":19316:19394   */\n      tag_544\n        /* \"#utility.yul\":19389:19393   */\n      dup2\n        /* \"#utility.yul\":19380:19386   */\n      dup8\n        /* \"#utility.yul\":19316:19394   */\n      tag_298\n      jump\t// in\n    tag_544:\n        /* \"#utility.yul\":19308:19394   */\n      swap1\n      pop\n        /* \"#utility.yul\":19441:19450   */\n      dup2\n        /* \"#utility.yul\":19435:19439   */\n      dup2\n        /* \"#utility.yul\":19431:19451   */\n      sub\n        /* \"#utility.yul\":19426:19428   */\n      0x20\n        /* \"#utility.yul\":19415:19424   */\n      dup4\n        /* \"#utility.yul\":19411:19429   */\n      add\n        /* \"#utility.yul\":19404:19452   */\n      mstore\n        /* \"#utility.yul\":19469:19547   */\n      tag_545\n        /* \"#utility.yul\":19542:19546   */\n      dup2\n        /* \"#utility.yul\":19533:19539   */\n      dup7\n        /* \"#utility.yul\":19469:19547   */\n      tag_298\n      jump\t// in\n    tag_545:\n        /* \"#utility.yul\":19461:19547   */\n      swap1\n      pop\n        /* \"#utility.yul\":19594:19603   */\n      dup2\n        /* \"#utility.yul\":19588:19592   */\n      dup2\n        /* \"#utility.yul\":19584:19604   */\n      sub\n        /* \"#utility.yul\":19579:19581   */\n      0x40\n        /* \"#utility.yul\":19568:19577   */\n      dup4\n        /* \"#utility.yul\":19564:19582   */\n      add\n        /* \"#utility.yul\":19557:19605   */\n      mstore\n        /* \"#utility.yul\":19622:19700   */\n      tag_546\n        /* \"#utility.yul\":19695:19699   */\n      dup2\n        /* \"#utility.yul\":19686:19692   */\n      dup6\n        /* \"#utility.yul\":19622:19700   */\n      tag_298\n      jump\t// in\n    tag_546:\n        /* \"#utility.yul\":19614:19700   */\n      swap1\n      pop\n        /* \"#utility.yul\":19710:19782   */\n      tag_547\n        /* \"#utility.yul\":19778:19780   */\n      0x60\n        /* \"#utility.yul\":19767:19776   */\n      dup4\n        /* \"#utility.yul\":19763:19781   */\n      add\n        /* \"#utility.yul\":19754:19760   */\n      dup5\n        /* \"#utility.yul\":19710:19782   */\n      tag_301\n      jump\t// in\n    tag_547:\n        /* \"#utility.yul\":18963:19789   */\n      swap6\n      swap5\n      pop\n      pop\n      pop\n      pop\n      pop\n      jump\t// out\n        /* \"#utility.yul\":19795:20732   */\n    tag_92:\n        /* \"#utility.yul\":20060:20064   */\n      0x00\n        /* \"#utility.yul\":20098:20101   */\n      0xa0\n        /* \"#utility.yul\":20087:20096   */\n      dup3\n        /* \"#utility.yul\":20083:20102   */\n      add\n        /* \"#utility.yul\":20075:20102   */\n      swap1\n      pop\n        /* \"#utility.yul\":20112:20183   */\n      tag_549\n        /* \"#utility.yul\":20180:20181   */\n      0x00\n        /* \"#utility.yul\":20169:20178   */\n      dup4\n        /* \"#utility.yul\":20165:20182   */\n      add\n        /* \"#utility.yul\":20156:20162   */\n      dup9\n        /* \"#utility.yul\":20112:20183   */\n      tag_300\n      jump\t// in\n    tag_549:\n        /* \"#utility.yul\":20230:20239   */\n      dup2\n        /* \"#utility.yul\":20224:20228   */\n      dup2\n        /* \"#utility.yul\":20220:20240   */\n      sub\n        /* \"#utility.yul\":20215:20217   */\n      0x20\n        /* \"#utility.yul\":20204:20213   */\n      dup4\n        /* \"#utility.yul\":20200:20218   */\n      add\n        /* \"#utility.yul\":20193:20241   */\n      mstore\n        /* \"#utility.yul\":20258:20336   */\n      tag_550\n        /* \"#utility.yul\":20331:20335   */\n      dup2\n        /* \"#utility.yul\":20322:20328   */\n      dup8\n        /* \"#utility.yul\":20258:20336   */\n      tag_298\n      jump\t// in\n    tag_550:\n        /* \"#utility.yul\":20250:20336   */\n      swap1\n      pop\n        /* \"#utility.yul\":20346:20418   */\n      tag_551\n        /* \"#utility.yul\":20414:20416   */\n      0x40\n        /* \"#utility.yul\":20403:20412   */\n      dup4\n        /* \"#utility.yul\":20399:20417   */\n      add\n        /* \"#utility.yul\":20390:20396   */\n      dup7\n        /* \"#utility.yul\":20346:20418   */\n      tag_301\n      jump\t// in\n    tag_551:\n        /* \"#utility.yul\":20465:20474   */\n      dup2\n        /* \"#utility.yul\":20459:20463   */\n      dup2\n        /* \"#utility.yul\":20455:20475   */\n      sub\n        /* \"#utility.yul\":20450:20452   */\n      0x60\n        /* \"#utility.yul\":20439:20448   */\n      dup4\n        /* \"#utility.yul\":20435:20453   */\n      add\n        /* \"#utility.yul\":20428:20476   */\n      mstore\n        /* \"#utility.yul\":20493:20571   */\n      tag_552\n        /* \"#utility.yul\":20566:20570   */\n      dup2\n        /* \"#utility.yul\":20557:20563   */\n      dup6\n        /* \"#utility.yul\":20493:20571   */\n      tag_298\n      jump\t// in\n    tag_552:\n        /* \"#utility.yul\":20485:20571   */\n      swap1\n      pop\n        /* \"#utility.yul\":20619:20628   */\n      dup2\n        /* \"#utility.yul\":20613:20617   */\n      dup2\n        /* \"#utility.yul\":20609:20629   */\n      sub\n        /* \"#utility.yul\":20603:20606   */\n      0x80\n        /* \"#utility.yul\":20592:20601   */\n      dup4\n        /* \"#utility.yul\":20588:20607   */\n      add\n        /* \"#utility.yul\":20581:20630   */\n      mstore\n        /* \"#utility.yul\":20647:20725   */\n      tag_553\n        /* \"#utility.yul\":20720:20724   */\n      dup2\n        /* \"#utility.yul\":20711:20717   */\n      dup5\n        /* \"#utility.yul\":20647:20725   */\n      tag_298\n      jump\t// in\n    tag_553:\n        /* \"#utility.yul\":20639:20725   */\n      swap1\n      pop\n        /* \"#utility.yul\":19795:20732   */\n      swap7\n      swap6\n      pop\n      pop\n      pop\n      pop\n      pop\n      pop\n      jump\t// out\n        /* \"#utility.yul\":20738:20918   */\n    tag_337:\n        /* \"#utility.yul\":20786:20863   */\n      0x4e487b7100000000000000000000000000000000000000000000000000000000\n        /* \"#utility.yul\":20783:20784   */\n      0x00\n        /* \"#utility.yul\":20776:20864   */\n      mstore\n        /* \"#utility.yul\":20883:20887   */\n      0x22\n        /* \"#utility.yul\":20880:20881   */\n      0x04\n        /* \"#utility.yul\":20873:20888   */\n      mstore\n        /* \"#utility.yul\":20907:20911   */\n      0x24\n        /* \"#utility.yul\":20904:20905   */\n      0x00\n        /* \"#utility.yul\":20897:20912   */\n      revert\n        /* \"#utility.yul\":20924:21244   */\n    tag_103:\n        /* \"#utility.yul\":20968:20974   */\n      0x00\n        /* \"#utility.yul\":21005:21006   */\n      0x02\n        /* \"#utility.yul\":20999:21003   */\n      dup3\n        /* \"#utility.yul\":20995:21007   */\n      div\n        /* \"#utility.yul\":20985:21007   */\n      swap1\n      pop\n        /* \"#utility.yul\":21052:21053   */\n      0x01\n        /* \"#utility.yul\":21046:21050   */\n      dup3\n        /* \"#utility.yul\":21042:21054   */\n      and\n        /* \"#utility.yul\":21073:21091   */\n      dup1\n        /* \"#utility.yul\":21063:21144   */\n      tag_556\n      jumpi\n        /* \"#utility.yul\":21129:21133   */\n      0x7f\n        /* \"#utility.yul\":21121:21127   */\n      dup3\n        /* \"#utility.yul\":21117:21134   */\n      and\n        /* \"#utility.yul\":21107:21134   */\n      swap2\n      pop\n        /* \"#utility.yul\":21063:21144   */\n    tag_556:\n        /* \"#utility.yul\":21191:21193   */\n      0x20\n        /* \"#utility.yul\":21183:21189   */\n      dup3\n        /* \"#utility.yul\":21180:21194   */\n      lt\n        /* \"#utility.yul\":21160:21178   */\n      dup2\n        /* \"#utility.yul\":21157:21195   */\n      sub\n        /* \"#utility.yul\":21154:21238   */\n      tag_557\n      jumpi\n        /* \"#utility.yul\":21210:21228   */\n      tag_558\n      tag_337\n      jump\t// in\n    tag_558:\n        /* \"#utility.yul\":21154:21238   */\n    tag_557:\n        /* \"#utility.yul\":20975:21244   */\n      pop\n        /* \"#utility.yul\":20924:21244   */\n      swap2\n      swap1\n      pop\n      jump\t// out\n        /* \"#utility.yul\":21250:21398   */\n    tag_338:\n        /* \"#utility.yul\":21352:21363   */\n      0x00\n        /* \"#utility.yul\":21389:21392   */\n      dup2\n        /* \"#utility.yul\":21374:21392   */\n      swap1\n      pop\n        /* \"#utility.yul\":21250:21398   */\n      swap3\n      swap2\n      pop\n      pop\n      jump\t// out\n        /* \"#utility.yul\":21404:21794   */\n    tag_339:\n        /* \"#utility.yul\":21510:21513   */\n      0x00\n        /* \"#utility.yul\":21538:21577   */\n      tag_561\n        /* \"#utility.yul\":21571:21576   */\n      dup3\n        /* \"#utility.yul\":21538:21577   */\n      tag_294\n      jump\t// in\n    tag_561:\n        /* \"#utility.yul\":21593:21682   */\n      tag_562\n        /* \"#utility.yul\":21675:21681   */\n      dup2\n        /* \"#utility.yul\":21670:21673   */\n      dup6\n        /* \"#utility.yul\":21593:21682   */\n      tag_338\n      jump\t// in\n    tag_562:\n        /* \"#utility.yul\":21586:21682   */\n      swap4\n      pop\n        /* \"#utility.yul\":21691:21756   */\n      tag_563\n        /* \"#utility.yul\":21749:21755   */\n      dup2\n        /* \"#utility.yul\":21744:21747   */\n      dup6\n        /* \"#utility.yul\":21737:21741   */\n      0x20\n        /* \"#utility.yul\":21730:21735   */\n      dup7\n        /* \"#utility.yul\":21726:21742   */\n      add\n        /* \"#utility.yul\":21691:21756   */\n      tag_296\n      jump\t// in\n    tag_563:\n        /* \"#utility.yul\":21781:21787   */\n      dup1\n        /* \"#utility.yul\":21776:21779   */\n      dup5\n        /* \"#utility.yul\":21772:21788   */\n      add\n        /* \"#utility.yul\":21765:21788   */\n      swap2\n      pop\n        /* \"#utility.yul\":21514:21794   */\n      pop\n        /* \"#utility.yul\":21404:21794   */\n      swap3\n      swap2\n      pop\n      pop\n      jump\t// out\n        /* \"#utility.yul\":21800:22075   */\n    tag_123:\n        /* \"#utility.yul\":21932:21935   */\n      0x00\n        /* \"#utility.yul\":21954:22049   */\n      tag_565\n        /* \"#utility.yul\":22045:22048   */\n      dup3\n        /* \"#utility.yul\":22036:22042   */\n      dup5\n        /* \"#utility.yul\":21954:22049   */\n      tag_339\n      jump\t// in\n    tag_565:\n        /* \"#utility.yul\":21947:22049   */\n      swap2\n      pop\n        /* \"#utility.yul\":22066:22069   */\n      dup2\n        /* \"#utility.yul\":22059:22069   */\n      swap1\n      pop\n        /* \"#utility.yul\":21800:22075   */\n      swap3\n      swap2\n      pop\n      pop\n      jump\t// out\n        /* \"#utility.yul\":22081:22261   */\n    tag_126:\n        /* \"#utility.yul\":22129:22206   */\n      0x4e487b7100000000000000000000000000000000000000000000000000000000\n        /* \"#utility.yul\":22126:22127   */\n      0x00\n        /* \"#utility.yul\":22119:22207   */\n      mstore\n        /* \"#utility.yul\":22226:22230   */\n      0x32\n        /* \"#utility.yul\":22223:22224   */\n      0x04\n        /* \"#utility.yul\":22216:22231   */\n      mstore\n        /* \"#utility.yul\":22250:22254   */\n      0x24\n        /* \"#utility.yul\":22247:22248   */\n      0x00\n        /* \"#utility.yul\":22240:22255   */\n      revert\n        /* \"#utility.yul\":22267:22408   */\n    tag_340:\n        /* \"#utility.yul\":22316:22320   */\n      0x00\n        /* \"#utility.yul\":22339:22342   */\n      dup2\n        /* \"#utility.yul\":22331:22342   */\n      swap1\n      pop\n        /* \"#utility.yul\":22362:22365   */\n      dup2\n        /* \"#utility.yul\":22359:22360   */\n      0x00\n        /* \"#utility.yul\":22352:22366   */\n      mstore\n        /* \"#utility.yul\":22396:22400   */\n      0x20\n        /* \"#utility.yul\":22393:22394   */\n      0x00\n        /* \"#utility.yul\":22383:22401   */\n      keccak256\n        /* \"#utility.yul\":22375:22401   */\n      swap1\n      pop\n        /* \"#utility.yul\":22267:22408   */\n      swap2\n      swap1\n      pop\n      jump\t// out\n        /* \"#utility.yul\":22438:23312   */\n    tag_341:\n        /* \"#utility.yul\":22541:22544   */\n      0x00\n        /* \"#utility.yul\":22578:22583   */\n      dup2\n        /* \"#utility.yul\":22572:22584   */\n      sload\n        /* \"#utility.yul\":22607:22643   */\n      tag_569\n        /* \"#utility.yul\":22633:22642   */\n      dup2\n        /* \"#utility.yul\":22607:22643   */\n      tag_103\n      jump\t// in\n    tag_569:\n        /* \"#utility.yul\":22659:22748   */\n      tag_570\n        /* \"#utility.yul\":22741:22747   */\n      dup2\n        /* \"#utility.yul\":22736:22739   */\n      dup7\n        /* \"#utility.yul\":22659:22748   */\n      tag_338\n      jump\t// in\n    tag_570:\n        /* \"#utility.yul\":22652:22748   */\n      swap5\n      pop\n        /* \"#utility.yul\":22779:22780   */\n      0x01\n        /* \"#utility.yul\":22768:22777   */\n      dup3\n        /* \"#utility.yul\":22764:22781   */\n      and\n        /* \"#utility.yul\":22795:22796   */\n      0x00\n        /* \"#utility.yul\":22790:22956   */\n      dup2\n      eq\n      tag_572\n      jumpi\n        /* \"#utility.yul\":22970:22971   */\n      0x01\n        /* \"#utility.yul\":22965:23306   */\n      dup2\n      eq\n      tag_573\n      jumpi\n        /* \"#utility.yul\":22757:23306   */\n      jump(tag_571)\n        /* \"#utility.yul\":22790:22956   */\n    tag_572:\n        /* \"#utility.yul\":22874:22878   */\n      0xff\n        /* \"#utility.yul\":22870:22879   */\n      not\n        /* \"#utility.yul\":22859:22868   */\n      dup4\n        /* \"#utility.yul\":22855:22880   */\n      and\n        /* \"#utility.yul\":22850:22853   */\n      dup7\n        /* \"#utility.yul\":22843:22881   */\n      mstore\n        /* \"#utility.yul\":22936:22942   */\n      dup2\n        /* \"#utility.yul\":22929:22943   */\n      iszero\n        /* \"#utility.yul\":22922:22944   */\n      iszero\n        /* \"#utility.yul\":22914:22920   */\n      dup3\n        /* \"#utility.yul\":22910:22945   */\n      mul\n        /* \"#utility.yul\":22905:22908   */\n      dup7\n        /* \"#utility.yul\":22901:22946   */\n      add\n        /* \"#utility.yul\":22894:22946   */\n      swap4\n      pop\n        /* \"#utility.yul\":22790:22956   */\n      jump(tag_571)\n        /* \"#utility.yul\":22965:23306   */\n    tag_573:\n        /* \"#utility.yul\":23032:23070   */\n      tag_574\n        /* \"#utility.yul\":23064:23069   */\n      dup6\n        /* \"#utility.yul\":23032:23070   */\n      tag_340\n      jump\t// in\n    tag_574:\n        /* \"#utility.yul\":23092:23093   */\n      0x00\n        /* \"#utility.yul\":23106:23260   */\n    tag_575:\n        /* \"#utility.yul\":23120:23126   */\n      dup4\n        /* \"#utility.yul\":23117:23118   */\n      dup2\n        /* \"#utility.yul\":23114:23127   */\n      lt\n        /* \"#utility.yul\":23106:23260   */\n      iszero\n      tag_577\n      jumpi\n        /* \"#utility.yul\":23194:23201   */\n      dup2\n        /* \"#utility.yul\":23188:23202   */\n      sload\n        /* \"#utility.yul\":23184:23185   */\n      dup2\n        /* \"#utility.yul\":23179:23182   */\n      dup10\n        /* \"#utility.yul\":23175:23186   */\n      add\n        /* \"#utility.yul\":23168:23203   */\n      mstore\n        /* \"#utility.yul\":23244:23245   */\n      0x01\n        /* \"#utility.yul\":23235:23242   */\n      dup3\n        /* \"#utility.yul\":23231:23246   */\n      add\n        /* \"#utility.yul\":23220:23246   */\n      swap2\n      pop\n        /* \"#utility.yul\":23142:23146   */\n      0x20\n        /* \"#utility.yul\":23139:23140   */\n      dup2\n        /* \"#utility.yul\":23135:23147   */\n      add\n        /* \"#utility.yul\":23130:23147   */\n      swap1\n      pop\n        /* \"#utility.yul\":23106:23260   */\n      jump(tag_575)\n    tag_577:\n        /* \"#utility.yul\":23289:23295   */\n      dup4\n        /* \"#utility.yul\":23284:23287   */\n      dup9\n        /* \"#utility.yul\":23280:23296   */\n      add\n        /* \"#utility.yul\":23273:23296   */\n      swap6\n      pop\n        /* \"#utility.yul\":22972:23306   */\n      pop\n      pop\n        /* \"#utility.yul\":22757:23306   */\n    tag_571:\n      pop\n        /* \"#utility.yul\":22545:23312   */\n      pop\n      pop\n        /* \"#utility.yul\":22438:23312   */\n      swap3\n      swap2\n      pop\n      pop\n      jump\t// out\n        /* \"#utility.yul\":23318:23587   */\n    tag_129:\n        /* \"#utility.yul\":23447:23450   */\n      0x00\n        /* \"#utility.yul\":23469:23561   */\n      tag_579\n        /* \"#utility.yul\":23557:23560   */\n      dup3\n        /* \"#utility.yul\":23548:23554   */\n      dup5\n        /* \"#utility.yul\":23469:23561   */\n      tag_341\n      jump\t// in\n    tag_579:\n        /* \"#utility.yul\":23462:23561   */\n      swap2\n      pop\n        /* \"#utility.yul\":23578:23581   */\n      dup2\n        /* \"#utility.yul\":23571:23581   */\n      swap1\n      pop\n        /* \"#utility.yul\":23318:23587   */\n      swap3\n      swap2\n      pop\n      pop\n      jump\t// out\n        /* \"#utility.yul\":23593:23773   */\n    tag_342:\n        /* \"#utility.yul\":23641:23718   */\n      0x4e487b7100000000000000000000000000000000000000000000000000000000\n        /* \"#utility.yul\":23638:23639   */\n      0x00\n        /* \"#utility.yul\":23631:23719   */\n      mstore\n        /* \"#utility.yul\":23738:23742   */\n      0x11\n        /* \"#utility.yul\":23735:23736   */\n      0x04\n        /* \"#utility.yul\":23728:23743   */\n      mstore\n        /* \"#utility.yul\":23762:23766   */\n      0x24\n        /* \"#utility.yul\":23759:23760   */\n      0x00\n        /* \"#utility.yul\":23752:23767   */\n      revert\n        /* \"#utility.yul\":23779:24012   */\n    tag_132:\n        /* \"#utility.yul\":23818:23821   */\n      0x00\n        /* \"#utility.yul\":23841:23865   */\n      tag_582\n        /* \"#utility.yul\":23859:23864   */\n      dup3\n        /* \"#utility.yul\":23841:23865   */\n      tag_299\n      jump\t// in\n    tag_582:\n        /* \"#utility.yul\":23832:23865   */\n      swap2\n      pop\n        /* \"#utility.yul\":23887:23953   */\n      0xffffffffffffffffffffffffffffffffffffffffffffffffffffffffffffffff\n        /* \"#utility.yul\":23880:23885   */\n      dup3\n        /* \"#utility.yul\":23877:23954   */\n      sub\n        /* \"#utility.yul\":23874:23977   */\n      tag_583\n      jumpi\n        /* \"#utility.yul\":23957:23975   */\n      tag_584\n      tag_342\n      jump\t// in\n    tag_584:\n        /* \"#utility.yul\":23874:23977   */\n    tag_583:\n        /* \"#utility.yul\":24004:24005   */\n      0x01\n        /* \"#utility.yul\":23997:24002   */\n      dup3\n        /* \"#utility.yul\":23993:24006   */\n      add\n        /* \"#utility.yul\":23986:24006   */\n      swap1\n      pop\n        /* \"#utility.yul\":23779:24012   */\n      swap2\n      swap1\n      pop\n      jump\t// out\n        /* \"#utility.yul\":24018:24264   */\n    tag_343:\n        /* \"#utility.yul\":24158:24192   */\n      0x596f752061726520616c72656164792072656769737465726564206173206569\n        /* \"#utility.yul\":24154:24155   */\n      0x00\n        /* \"#utility.yul\":24146:24152   */\n      dup3\n        /* \"#utility.yul\":24142:24156   */\n      add\n        /* \"#utility.yul\":24135:24193   */\n      mstore\n        /* \"#utility.yul\":24227:24256   */\n      0x7468657220612070617469656e74206f72206120646f63746f722e0000000000\n        /* \"#utility.yul\":24222:24224   */\n      0x20\n        /* \"#utility.yul\":24214:24220   */\n      dup3\n        /* \"#utility.yul\":24210:24225   */\n      add\n        /* \"#utility.yul\":24203:24257   */\n      mstore\n        /* \"#utility.yul\":24018:24264   */\n      pop\n      jump\t// out\n        /* \"#utility.yul\":24270:24636   */\n    tag_344:\n        /* \"#utility.yul\":24412:24415   */\n      0x00\n        /* \"#utility.yul\":24433:24500   */\n      tag_587\n        /* \"#utility.yul\":24497:24499   */\n      0x3b\n        /* \"#utility.yul\":24492:24495   */\n      dup4\n        /* \"#utility.yul\":24433:24500   */\n      tag_295\n      jump\t// in\n    tag_587:\n        /* \"#utility.yul\":24426:24500   */\n      swap2\n      pop\n        /* \"#utility.yul\":24509:24602   */\n      tag_588\n        /* \"#utility.yul\":24598:24601   */\n      dup3\n        /* \"#utility.yul\":24509:24602   */\n      tag_343\n      jump\t// in\n    tag_588:\n        /* \"#utility.yul\":24627:24629   */\n      0x40\n        /* \"#utility.yul\":24622:24625   */\n      dup3\n        /* \"#utility.yul\":24618:24630   */\n      add\n        /* \"#utility.yul\":24611:24630   */\n      swap1\n      pop\n        /* \"#utility.yul\":24270:24636   */\n      swap2\n      swap1\n      pop\n      jump\t// out\n        /* \"#utility.yul\":24642:25061   */\n    tag_176:\n        /* \"#utility.yul\":24808:24812   */\n      0x00\n        /* \"#utility.yul\":24846:24848   */\n      0x20\n        /* \"#utility.yul\":24835:24844   */\n      dup3\n        /* \"#utility.yul\":24831:24849   */\n      add\n        /* \"#utility.yul\":24823:24849   */\n      swap1\n      pop\n        /* \"#utility.yul\":24895:24904   */\n      dup2\n        /* \"#utility.yul\":24889:24893   */\n      dup2\n        /* \"#utility.yul\":24885:24905   */\n      sub\n        /* \"#utility.yul\":24881:24882   */\n      0x00\n        /* \"#utility.yul\":24870:24879   */\n      dup4\n        /* \"#utility.yul\":24866:24883   */\n      add\n        /* \"#utility.yul\":24859:24906   */\n      mstore\n        /* \"#utility.yul\":24923:25054   */\n      tag_590\n        /* \"#utility.yul\":25049:25053   */\n      dup2\n        /* \"#utility.yul\":24923:25054   */\n      tag_344\n      jump\t// in\n    tag_590:\n        /* \"#utility.yul\":24915:25054   */\n      swap1\n      pop\n        /* \"#utility.yul\":24642:25061   */\n      swap2\n      swap1\n      pop\n      jump\t// out\n        /* \"#utility.yul\":25067:25160   */\n    tag_345:\n        /* \"#utility.yul\":25104:25110   */\n      0x00\n        /* \"#utility.yul\":25151:25153   */\n      0x20\n        /* \"#utility.yul\":25146:25148   */\n      0x1f\n        /* \"#utility.yul\":25139:25144   */\n      dup4\n        /* \"#utility.yul\":25135:25149   */\n      add\n        /* \"#utility.yul\":25131:25154   */\n      div\n        /* \"#utility.yul\":25121:25154   */\n      swap1\n      pop\n        /* \"#utility.yul\":25067:25160   */\n      swap2\n      swap1\n      pop\n      jump\t// out\n        /* \"#utility.yul\":25166:25273   */\n    tag_346:\n        /* \"#utility.yul\":25210:25218   */\n      0x00\n        /* \"#utility.yul\":25260:25265   */\n      dup3\n        /* \"#utility.yul\":25254:25258   */\n      dup3\n        /* \"#utility.yul\":25250:25266   */\n      shl\n        /* \"#utility.yul\":25229:25266   */\n      swap1\n      pop\n        /* \"#utility.yul\":25166:25273   */\n      swap3\n      swap2\n      pop\n      pop\n      jump\t// out\n        /* \"#utility.yul\":25279:25672   */\n    tag_347:\n        /* \"#utility.yul\":25348:25354   */\n      0x00\n        /* \"#utility.yul\":25398:25399   */\n      0x08\n        /* \"#utility.yul\":25386:25396   */\n      dup4\n        /* \"#utility.yul\":25382:25400   */\n      mul\n        /* \"#utility.yul\":25421:25518   */\n      tag_594\n        /* \"#utility.yul\":25451:25517   */\n      0xffffffffffffffffffffffffffffffffffffffffffffffffffffffffffffffff\n        /* \"#utility.yul\":25440:25449   */\n      dup3\n        /* \"#utility.yul\":25421:25518   */\n      tag_346\n      jump\t// in\n    tag_594:\n        /* \"#utility.yul\":25539:25578   */\n      tag_595\n        /* \"#utility.yul\":25569:25577   */\n      dup7\n        /* \"#utility.yul\":25558:25567   */\n      dup4\n        /* \"#utility.yul\":25539:25578   */\n      tag_346\n      jump\t// in\n    tag_595:\n        /* \"#utility.yul\":25527:25578   */\n      swap6\n      pop\n        /* \"#utility.yul\":25611:25615   */\n      dup1\n        /* \"#utility.yul\":25607:25616   */\n      not\n        /* \"#utility.yul\":25600:25605   */\n      dup5\n        /* \"#utility.yul\":25596:25617   */\n      and\n        /* \"#utility.yul\":25587:25617   */\n      swap4\n      pop\n        /* \"#utility.yul\":25660:25664   */\n      dup1\n        /* \"#utility.yul\":25650:25658   */\n      dup7\n        /* \"#utility.yul\":25646:25665   */\n      and\n        /* \"#utility.yul\":25639:25644   */\n      dup5\n        /* \"#utility.yul\":25636:25666   */\n      or\n        /* \"#utility.yul\":25626:25666   */\n      swap3\n      pop\n        /* \"#utility.yul\":25355:25672   */\n      pop\n      pop\n        /* \"#utility.yul\":25279:25672   */\n      swap4\n      swap3\n      pop\n      pop\n      pop\n      jump\t// out\n        /* \"#utility.yul\":25678:25738   */\n    tag_348:\n        /* \"#utility.yul\":25706:25709   */\n      0x00\n        /* \"#utility.yul\":25727:25732   */\n      dup2\n        /* \"#utility.yul\":25720:25732   */\n      swap1\n      pop\n        /* \"#utility.yul\":25678:25738   */\n      swap2\n      swap1\n      pop\n      jump\t// out\n        /* \"#utility.yul\":25744:25886   */\n    tag_349:\n        /* \"#utility.yul\":25794:25803   */\n      0x00\n        /* \"#utility.yul\":25827:25880   */\n      tag_598\n        /* \"#utility.yul\":25845:25879   */\n      tag_599\n        /* \"#utility.yul\":25854:25878   */\n      tag_600\n        /* \"#utility.yul\":25872:25877   */\n      dup5\n        /* \"#utility.yul\":25854:25878   */\n      tag_299\n      jump\t// in\n    tag_600:\n        /* \"#utility.yul\":25845:25879   */\n      tag_348\n      jump\t// in\n    tag_599:\n        /* \"#utility.yul\":25827:25880   */\n      tag_299\n      jump\t// in\n    tag_598:\n        /* \"#utility.yul\":25814:25880   */\n      swap1\n      pop\n        /* \"#utility.yul\":25744:25886   */\n      swap2\n      swap1\n      pop\n      jump\t// out\n        /* \"#utility.yul\":25892:25967   */\n    tag_350:\n        /* \"#utility.yul\":25935:25938   */\n      0x00\n        /* \"#utility.yul\":25956:25961   */\n      dup2\n        /* \"#utility.yul\":25949:25961   */\n      swap1\n      pop\n        /* \"#utility.yul\":25892:25967   */\n      swap2\n      swap1\n      pop\n      jump\t// out\n        /* \"#utility.yul\":25973:26242   */\n    tag_351:\n        /* \"#utility.yul\":26083:26122   */\n      tag_603\n        /* \"#utility.yul\":26114:26121   */\n      dup4\n        /* \"#utility.yul\":26083:26122   */\n      tag_349\n      jump\t// in\n    tag_603:\n        /* \"#utility.yul\":26144:26235   */\n      tag_604\n        /* \"#utility.yul\":26193:26234   */\n      tag_605\n        /* \"#utility.yul\":26217:26233   */\n      dup3\n        /* \"#utility.yul\":26193:26234   */\n      tag_350\n      jump\t// in\n    tag_605:\n        /* \"#utility.yul\":26185:26191   */\n      dup5\n        /* \"#utility.yul\":26178:26182   */\n      dup5\n        /* \"#utility.yul\":26172:26183   */\n      sload\n        /* \"#utility.yul\":26144:26235   */\n      tag_347\n      jump\t// in\n    tag_604:\n        /* \"#utility.yul\":26138:26142   */\n      dup3\n        /* \"#utility.yul\":26131:26236   */\n      sstore\n        /* \"#utility.yul\":26049:26242   */\n      pop\n        /* \"#utility.yul\":25973:26242   */\n      pop\n      pop\n      pop\n      jump\t// out\n        /* \"#utility.yul\":26248:26321   */\n    tag_352:\n        /* \"#utility.yul\":26293:26296   */\n      0x00\n        /* \"#utility.yul\":26248:26321   */\n      swap1\n      jump\t// out\n        /* \"#utility.yul\":26327:26516   */\n    tag_353:\n        /* \"#utility.yul\":26404:26436   */\n      tag_608\n      tag_352\n      jump\t// in\n    tag_608:\n        /* \"#utility.yul\":26445:26510   */\n      tag_609\n        /* \"#utility.yul\":26503:26509   */\n      dup2\n        /* \"#utility.yul\":26495:26501   */\n      dup5\n        /* \"#utility.yul\":26489:26493   */\n      dup5\n        /* \"#utility.yul\":26445:26510   */\n      tag_351\n      jump\t// in\n    tag_609:\n        /* \"#utility.yul\":26380:26516   */\n      pop\n        /* \"#utility.yul\":26327:26516   */\n      pop\n      pop\n      jump\t// out\n        /* \"#utility.yul\":26522:26708   */\n    tag_354:\n        /* \"#utility.yul\":26582:26702   */\n    tag_611:\n        /* \"#utility.yul\":26599:26602   */\n      dup2\n        /* \"#utility.yul\":26592:26597   */\n      dup2\n        /* \"#utility.yul\":26589:26603   */\n      lt\n        /* \"#utility.yul\":26582:26702   */\n      iszero\n      tag_613\n      jumpi\n        /* \"#utility.yul\":26653:26692   */\n      tag_614\n        /* \"#utility.yul\":26690:26691   */\n      0x00\n        /* \"#utility.yul\":26683:26688   */\n      dup3\n        /* \"#utility.yul\":26653:26692   */\n      tag_353\n      jump\t// in\n    tag_614:\n        /* \"#utility.yul\":26626:26627   */\n      0x01\n        /* \"#utility.yul\":26619:26624   */\n      dup2\n        /* \"#utility.yul\":26615:26628   */\n      add\n        /* \"#utility.yul\":26606:26628   */\n      swap1\n      pop\n        /* \"#utility.yul\":26582:26702   */\n      jump(tag_611)\n    tag_613:\n        /* \"#utility.yul\":26522:26708   */\n      pop\n      pop\n      jump\t// out\n        /* \"#utility.yul\":26714:27257   */\n    tag_355:\n        /* \"#utility.yul\":26815:26817   */\n      0x1f\n        /* \"#utility.yul\":26810:26813   */\n      dup3\n        /* \"#utility.yul\":26807:26818   */\n      gt\n        /* \"#utility.yul\":26804:27250   */\n      iszero\n      tag_616\n      jumpi\n        /* \"#utility.yul\":26849:26887   */\n      tag_617\n        /* \"#utility.yul\":26881:26886   */\n      dup2\n        /* \"#utility.yul\":26849:26887   */\n      tag_340\n      jump\t// in\n    tag_617:\n        /* \"#utility.yul\":26933:26962   */\n      tag_618\n        /* \"#utility.yul\":26951:26961   */\n      dup5\n        /* \"#utility.yul\":26933:26962   */\n      tag_345\n      jump\t// in\n    tag_618:\n        /* \"#utility.yul\":26923:26931   */\n      dup2\n        /* \"#utility.yul\":26919:26963   */\n      add\n        /* \"#utility.yul\":27116:27118   */\n      0x20\n        /* \"#utility.yul\":27104:27114   */\n      dup6\n        /* \"#utility.yul\":27101:27119   */\n      lt\n        /* \"#utility.yul\":27098:27147   */\n      iszero\n      tag_619\n      jumpi\n        /* \"#utility.yul\":27137:27145   */\n      dup2\n        /* \"#utility.yul\":27122:27145   */\n      swap1\n      pop\n        /* \"#utility.yul\":27098:27147   */\n    tag_619:\n        /* \"#utility.yul\":27160:27240   */\n      tag_620\n        /* \"#utility.yul\":27216:27238   */\n      tag_621\n        /* \"#utility.yul\":27234:27237   */\n      dup6\n        /* \"#utility.yul\":27216:27238   */\n      tag_345\n      jump\t// in\n    tag_621:\n        /* \"#utility.yul\":27206:27214   */\n      dup4\n        /* \"#utility.yul\":27202:27239   */\n      add\n        /* \"#utility.yul\":27189:27200   */\n      dup3\n        /* \"#utility.yul\":27160:27240   */\n      tag_354\n      jump\t// in\n    tag_620:\n        /* \"#utility.yul\":26819:27250   */\n      pop\n      pop\n        /* \"#utility.yul\":26804:27250   */\n    tag_616:\n        /* \"#utility.yul\":26714:27257   */\n      pop\n      pop\n      pop\n      jump\t// out\n        /* \"#utility.yul\":27263:27380   */\n    tag_356:\n        /* \"#utility.yul\":27317:27325   */\n      0x00\n        /* \"#utility.yul\":27367:27372   */\n      dup3\n        /* \"#utility.yul\":27361:27365   */\n      dup3\n        /* \"#utility.yul\":27357:27373   */\n      shr\n        /* \"#utility.yul\":27336:27373   */\n      swap1\n      pop\n        /* \"#utility.yul\":27263:27380   */\n      swap3\n      swap2\n      pop\n      pop\n      jump\t// out\n        /* \"#utility.yul\":27386:27555   */\n    tag_357:\n        /* \"#utility.yul\":27430:27436   */\n      0x00\n        /* \"#utility.yul\":27463:27514   */\n      tag_624\n        /* \"#utility.yul\":27511:27512   */\n      0x00\n        /* \"#utility.yul\":27507:27513   */\n      not\n        /* \"#utility.yul\":27499:27504   */\n      dup5\n        /* \"#utility.yul\":27496:27497   */\n      0x08\n        /* \"#utility.yul\":27492:27505   */\n      mul\n        /* \"#utility.yul\":27463:27514   */\n      tag_356\n      jump\t// in\n    tag_624:\n        /* \"#utility.yul\":27459:27515   */\n      not\n        /* \"#utility.yul\":27544:27548   */\n      dup1\n        /* \"#utility.yul\":27538:27542   */\n      dup4\n        /* \"#utility.yul\":27534:27549   */\n      and\n        /* \"#utility.yul\":27524:27549   */\n      swap2\n      pop\n        /* \"#utility.yul\":27437:27555   */\n      pop\n        /* \"#utility.yul\":27386:27555   */\n      swap3\n      swap2\n      pop\n      pop\n      jump\t// out\n        /* \"#utility.yul\":27560:27855   */\n    tag_358:\n        /* \"#utility.yul\":27636:27640   */\n      0x00\n        /* \"#utility.yul\":27782:27811   */\n      tag_626\n        /* \"#utility.yul\":27807:27810   */\n      dup4\n        /* \"#utility.yul\":27801:27805   */\n      dup4\n        /* \"#utility.yul\":27782:27811   */\n      tag_357\n      jump\t// in\n    tag_626:\n        /* \"#utility.yul\":27774:27811   */\n      swap2\n      pop\n        /* \"#utility.yul\":27844:27847   */\n      dup3\n        /* \"#utility.yul\":27841:27842   */\n      0x02\n        /* \"#utility.yul\":27837:27848   */\n      mul\n        /* \"#utility.yul\":27831:27835   */\n      dup3\n        /* \"#utility.yul\":27828:27849   */\n      or\n        /* \"#utility.yul\":27820:27849   */\n      swap1\n      pop\n        /* \"#utility.yul\":27560:27855   */\n      swap3\n      swap2\n      pop\n      pop\n      jump\t// out\n        /* \"#utility.yul\":27860:29255   */\n    tag_178:\n        /* \"#utility.yul\":27977:28014   */\n      tag_628\n        /* \"#utility.yul\":28010:28013   */\n      dup3\n        /* \"#utility.yul\":27977:28014   */\n      tag_294\n      jump\t// in\n    tag_628:\n        /* \"#utility.yul\":28079:28097   */\n      0xffffffffffffffff\n        /* \"#utility.yul\":28071:28077   */\n      dup2\n        /* \"#utility.yul\":28068:28098   */\n      gt\n        /* \"#utility.yul\":28065:28121   */\n      iszero\n      tag_629\n      jumpi\n        /* \"#utility.yul\":28101:28119   */\n      tag_630\n      tag_135\n      jump\t// in\n    tag_630:\n        /* \"#utility.yul\":28065:28121   */\n    tag_629:\n        /* \"#utility.yul\":28145:28183   */\n      tag_631\n        /* \"#utility.yul\":28177:28181   */\n      dup3\n        /* \"#utility.yul\":28171:28182   */\n      sload\n        /* \"#utility.yul\":28145:28183   */\n      tag_103\n      jump\t// in\n    tag_631:\n        /* \"#utility.yul\":28230:28297   */\n      tag_632\n        /* \"#utility.yul\":28290:28296   */\n      dup3\n        /* \"#utility.yul\":28282:28288   */\n      dup3\n        /* \"#utility.yul\":28276:28280   */\n      dup6\n        /* \"#utility.yul\":28230:28297   */\n      tag_355\n      jump\t// in\n    tag_632:\n        /* \"#utility.yul\":28324:28325   */\n      0x00\n        /* \"#utility.yul\":28348:28352   */\n      0x20\n        /* \"#utility.yul\":28335:28352   */\n      swap1\n      pop\n        /* \"#utility.yul\":28380:28382   */\n      0x1f\n        /* \"#utility.yul\":28372:28378   */\n      dup4\n        /* \"#utility.yul\":28369:28383   */\n      gt\n        /* \"#utility.yul\":28397:28398   */\n      0x01\n        /* \"#utility.yul\":28392:29010   */\n      dup2\n      eq\n      tag_634\n      jumpi\n        /* \"#utility.yul\":29054:29055   */\n      0x00\n        /* \"#utility.yul\":29071:29077   */\n      dup5\n        /* \"#utility.yul\":29068:29145   */\n      iszero\n      tag_635\n      jumpi\n        /* \"#utility.yul\":29120:29129   */\n      dup3\n        /* \"#utility.yul\":29115:29118   */\n      dup8\n        /* \"#utility.yul\":29111:29130   */\n      add\n        /* \"#utility.yul\":29105:29131   */\n      mload\n        /* \"#utility.yul\":29096:29131   */\n      swap1\n      pop\n        /* \"#utility.yul\":29068:29145   */\n    tag_635:\n        /* \"#utility.yul\":29171:29238   */\n      tag_636\n        /* \"#utility.yul\":29231:29237   */\n      dup6\n        /* \"#utility.yul\":29224:29229   */\n      dup3\n        /* \"#utility.yul\":29171:29238   */\n      tag_358\n      jump\t// in\n    tag_636:\n        /* \"#utility.yul\":29165:29169   */\n      dup7\n        /* \"#utility.yul\":29158:29239   */\n      sstore\n        /* \"#utility.yul\":29027:29249   */\n      pop\n        /* \"#utility.yul\":28362:29249   */\n      jump(tag_633)\n        /* \"#utility.yul\":28392:29010   */\n    tag_634:\n        /* \"#utility.yul\":28444:28448   */\n      0x1f\n        /* \"#utility.yul\":28440:28449   */\n      not\n        /* \"#utility.yul\":28432:28438   */\n      dup5\n        /* \"#utility.yul\":28428:28450   */\n      and\n        /* \"#utility.yul\":28478:28515   */\n      tag_637\n        /* \"#utility.yul\":28510:28514   */\n      dup7\n        /* \"#utility.yul\":28478:28515   */\n      tag_340\n      jump\t// in\n    tag_637:\n        /* \"#utility.yul\":28537:28538   */\n      0x00\n        /* \"#utility.yul\":28551:28759   */\n    tag_638:\n        /* \"#utility.yul\":28565:28572   */\n      dup3\n        /* \"#utility.yul\":28562:28563   */\n      dup2\n        /* \"#utility.yul\":28559:28573   */\n      lt\n        /* \"#utility.yul\":28551:28759   */\n      iszero\n      tag_640\n      jumpi\n        /* \"#utility.yul\":28644:28653   */\n      dup5\n        /* \"#utility.yul\":28639:28642   */\n      dup10\n        /* \"#utility.yul\":28635:28654   */\n      add\n        /* \"#utility.yul\":28629:28655   */\n      mload\n        /* \"#utility.yul\":28621:28627   */\n      dup3\n        /* \"#utility.yul\":28614:28656   */\n      sstore\n        /* \"#utility.yul\":28695:28696   */\n      0x01\n        /* \"#utility.yul\":28687:28693   */\n      dup3\n        /* \"#utility.yul\":28683:28697   */\n      add\n        /* \"#utility.yul\":28673:28697   */\n      swap2\n      pop\n        /* \"#utility.yul\":28742:28744   */\n      0x20\n        /* \"#utility.yul\":28731:28740   */\n      dup6\n        /* \"#utility.yul\":28727:28745   */\n      add\n        /* \"#utility.yul\":28714:28745   */\n      swap5\n      pop\n        /* \"#utility.yul\":28588:28592   */\n      0x20\n        /* \"#utility.yul\":28585:28586   */\n      dup2\n        /* \"#utility.yul\":28581:28593   */\n      add\n        /* \"#utility.yul\":28576:28593   */\n      swap1\n      pop\n        /* \"#utility.yul\":28551:28759   */\n      jump(tag_638)\n    tag_640:\n        /* \"#utility.yul\":28787:28793   */\n      dup7\n        /* \"#utility.yul\":28778:28785   */\n      dup4\n        /* \"#utility.yul\":28775:28794   */\n      lt\n        /* \"#utility.yul\":28772:28951   */\n      iszero\n      tag_641\n      jumpi\n        /* \"#utility.yul\":28845:28854   */\n      dup5\n        /* \"#utility.yul\":28840:28843   */\n      dup10\n        /* \"#utility.yul\":28836:28855   */\n      add\n        /* \"#utility.yul\":28830:28856   */\n      mload\n        /* \"#utility.yul\":28888:28936   */\n      tag_642\n        /* \"#utility.yul\":28930:28934   */\n      0x1f\n        /* \"#utility.yul\":28922:28928   */\n      dup10\n        /* \"#utility.yul\":28918:28935   */\n      and\n        /* \"#utility.yul\":28907:28916   */\n      dup3\n        /* \"#utility.yul\":28888:28936   */\n      tag_357\n      jump\t// in\n    tag_642:\n        /* \"#utility.yul\":28880:28886   */\n      dup4\n        /* \"#utility.yul\":28873:28937   */\n      sstore\n        /* \"#utility.yul\":28795:28951   */\n      pop\n        /* \"#utility.yul\":28772:28951   */\n    tag_641:\n        /* \"#utility.yul\":28997:28998   */\n      0x01\n        /* \"#utility.yul\":28993:28994   */\n      0x02\n        /* \"#utility.yul\":28985:28991   */\n      dup9\n        /* \"#utility.yul\":28981:28995   */\n      mul\n        /* \"#utility.yul\":28977:28999   */\n      add\n        /* \"#utility.yul\":28971:28975   */\n      dup9\n        /* \"#utility.yul\":28964:29000   */\n      sstore\n        /* \"#utility.yul\":28399:29010   */\n      pop\n      pop\n      pop\n        /* \"#utility.yul\":28362:29249   */\n    tag_633:\n      pop\n        /* \"#utility.yul\":27952:29255   */\n      pop\n      pop\n      pop\n        /* \"#utility.yul\":27860:29255   */\n      pop\n      pop\n      jump\t// out\n        /* \"#utility.yul\":29261:29497   */\n    tag_359:\n        /* \"#utility.yul\":29401:29435   */\n      0x596f7520646f206e6f742068617665207065726d697373696f6e20746f206163\n        /* \"#utility.yul\":29397:29398   */\n      0x00\n        /* \"#utility.yul\":29389:29395   */\n      dup3\n        /* \"#utility.yul\":29385:29399   */\n      add\n        /* \"#utility.yul\":29378:29436   */\n      mstore\n        /* \"#utility.yul\":29470:29489   */\n      0x636573732074686973207265636f72642e000000000000000000000000000000\n        /* \"#utility.yul\":29465:29467   */\n      0x20\n        /* \"#utility.yul\":29457:29463   */\n      dup3\n        /* \"#utility.yul\":29453:29468   */\n      add\n        /* \"#utility.yul\":29446:29490   */\n      mstore\n        /* \"#utility.yul\":29261:29497   */\n      pop\n      jump\t// out\n        /* \"#utility.yul\":29503:29869   */\n    tag_360:\n        /* \"#utility.yul\":29645:29648   */\n      0x00\n        /* \"#utility.yul\":29666:29733   */\n      tag_645\n        /* \"#utility.yul\":29730:29732   */\n      0x31\n        /* \"#utility.yul\":29725:29728   */\n      dup4\n        /* \"#utility.yul\":29666:29733   */\n      tag_295\n      jump\t// in\n    tag_645:\n        /* \"#utility.yul\":29659:29733   */\n      swap2\n      pop\n        /* \"#utility.yul\":29742:29835   */\n      tag_646\n        /* \"#utility.yul\":29831:29834   */\n      dup3\n        /* \"#utility.yul\":29742:29835   */\n      tag_359\n      jump\t// in\n    tag_646:\n        /* \"#utility.yul\":29860:29862   */\n      0x40\n        /* \"#utility.yul\":29855:29858   */\n      dup3\n        /* \"#utility.yul\":29851:29863   */\n      add\n        /* \"#utility.yul\":29844:29863   */\n      swap1\n      pop\n        /* \"#utility.yul\":29503:29869   */\n      swap2\n      swap1\n      pop\n      jump\t// out\n        /* \"#utility.yul\":29875:30294   */\n    tag_185:\n        /* \"#utility.yul\":30041:30045   */\n      0x00\n        /* \"#utility.yul\":30079:30081   */\n      0x20\n        /* \"#utility.yul\":30068:30077   */\n      dup3\n        /* \"#utility.yul\":30064:30082   */\n      add\n        /* \"#utility.yul\":30056:30082   */\n      swap1\n      pop\n        /* \"#utility.yul\":30128:30137   */\n      dup2\n        /* \"#utility.yul\":30122:30126   */\n      dup2\n        /* \"#utility.yul\":30118:30138   */\n      sub\n        /* \"#utility.yul\":30114:30115   */\n      0x00\n        /* \"#utility.yul\":30103:30112   */\n      dup4\n        /* \"#utility.yul\":30099:30116   */\n      add\n        /* \"#utility.yul\":30092:30139   */\n      mstore\n        /* \"#utility.yul\":30156:30287   */\n      tag_648\n        /* \"#utility.yul\":30282:30286   */\n      dup2\n        /* \"#utility.yul\":30156:30287   */\n      tag_360\n      jump\t// in\n    tag_648:\n        /* \"#utility.yul\":30148:30287   */\n      swap1\n      pop\n        /* \"#utility.yul\":29875:30294   */\n      swap2\n      swap1\n      pop\n      jump\t// out\n        /* \"#utility.yul\":30300:30474   */\n    tag_361:\n        /* \"#utility.yul\":30440:30466   */\n      0x596f7520617265206e6f74207468652070617469656e742e0000000000000000\n        /* \"#utility.yul\":30436:30437   */\n      0x00\n        /* \"#utility.yul\":30428:30434   */\n      dup3\n        /* \"#utility.yul\":30424:30438   */\n      add\n        /* \"#utility.yul\":30417:30467   */\n      mstore\n        /* \"#utility.yul\":30300:30474   */\n      pop\n      jump\t// out\n        /* \"#utility.yul\":30480:30846   */\n    tag_362:\n        /* \"#utility.yul\":30622:30625   */\n      0x00\n        /* \"#utility.yul\":30643:30710   */\n      tag_651\n        /* \"#utility.yul\":30707:30709   */\n      0x18\n        /* \"#utility.yul\":30702:30705   */\n      dup4\n        /* \"#utility.yul\":30643:30710   */\n      tag_295\n      jump\t// in\n    tag_651:\n        /* \"#utility.yul\":30636:30710   */\n      swap2\n      pop\n        /* \"#utility.yul\":30719:30812   */\n      tag_652\n        /* \"#utility.yul\":30808:30811   */\n      dup3\n        /* \"#utility.yul\":30719:30812   */\n      tag_361\n      jump\t// in\n    tag_652:\n        /* \"#utility.yul\":30837:30839   */\n      0x20\n        /* \"#utility.yul\":30832:30835   */\n      dup3\n        /* \"#utility.yul\":30828:30840   */\n      add\n        /* \"#utility.yul\":30821:30840   */\n      swap1\n      pop\n        /* \"#utility.yul\":30480:30846   */\n      swap2\n      swap1\n      pop\n      jump\t// out\n        /* \"#utility.yul\":30852:31271   */\n    tag_209:\n        /* \"#utility.yul\":31018:31022   */\n      0x00\n        /* \"#utility.yul\":31056:31058   */\n      0x20\n        /* \"#utility.yul\":31045:31054   */\n      dup3\n        /* \"#utility.yul\":31041:31059   */\n      add\n        /* \"#utility.yul\":31033:31059   */\n      swap1\n      pop\n        /* \"#utility.yul\":31105:31114   */\n      dup2\n        /* \"#utility.yul\":31099:31103   */\n      dup2\n        /* \"#utility.yul\":31095:31115   */\n      sub\n        /* \"#utility.yul\":31091:31092   */\n      0x00\n        /* \"#utility.yul\":31080:31089   */\n      dup4\n        /* \"#utility.yul\":31076:31093   */\n      add\n        /* \"#utility.yul\":31069:31116   */\n      mstore\n        /* \"#utility.yul\":31133:31264   */\n      tag_654\n        /* \"#utility.yul\":31259:31263   */\n      dup2\n        /* \"#utility.yul\":31133:31264   */\n      tag_362\n      jump\t// in\n    tag_654:\n        /* \"#utility.yul\":31125:31264   */\n      swap1\n      pop\n        /* \"#utility.yul\":30852:31271   */\n      swap2\n      swap1\n      pop\n      jump\t// out\n\n    auxdata: 0xa2646970667358221220fee4c3abf793ad8001c7d271b70aeb7fab0c0f107c0e94dcca322d2295a630b464736f6c634300081a0033\n}\n",
				"bytecode": {
					"linkReferences": {},
					"object": "6080604052348015600e575f80fd5b50612e848061001c5f395ff3fe608060405234801561000f575f80fd5b5060043610610114575f3560e01c80638f9c79ed116100a0578063b40f16911161006f578063b40f16911461032d578063b60e73db1461035d578063be12c4d814610391578063d46d2031146103af578063eed14218146103cd57610114565b80638f9c79ed1461027e57806396b58fdf146102ae578063996440c6146102ca578063a9583c22146102fa57610114565b80636052f825116100e75780636052f825146101c857806364b3b525146101f85780636d9ea78c146102285780637395be371461024457806385e685311461026257610114565b80630869cfbc146101185780633710cb191461014c5780633ba51e7c1461017c57806350c7a912146101ac575b5f80fd5b610132600480360381019061012d9190611f81565b6103e9565b604051610143959493929190612043565b60405180910390f35b610166600480360381019061016191906121d5565b6105cb565b60405161017391906123be565b60405180910390f35b61019660048036038101906101919190612408565b6109ca565b6040516101a39190612433565b60405180910390f35b6101c660048036038101906101c1919061244c565b610a05565b005b6101e260048036038101906101dd9190611f81565b610c99565b6040516101ef91906125ab565b60405180910390f35b610212600480360381019061020d91906125cb565b610e72565b60405161021f9190612623565b60405180910390f35b610242600480360381019061023d91906121d5565b610e9c565b005b61024c611048565b60405161025991906126e4565b60405180910390f35b61027c60048036038101906102779190611f81565b6110d3565b005b61029860048036038101906102939190611f81565b611249565b6040516102a59190612623565b60405180910390f35b6102c860048036038101906102c39190612704565b611266565b005b6102e460048036038101906102df9190611f81565b611532565b6040516102f19190612623565b60405180910390f35b610314600480360381019061030f9190611f81565b61154f565b60405161032494939291906127bc565b60405180910390f35b61034760048036038101906103429190612408565b61172c565b6040516103549190612433565b60405180910390f35b61037760048036038101906103729190612408565b611767565b604051610388959493929190612814565b60405180910390f35b610399611959565b6040516103a691906123be565b60405180910390f35b6103b7611bc3565b6040516103c491906126e4565b60405180910390f35b6103e760048036038101906103e29190611f81565b611c4e565b005b5f602052805f5260405f205f91509050805f018054610407906128a7565b80601f0160208091040260200160405190810160405280929190818152602001828054610433906128a7565b801561047e5780601f106104555761010080835404028352916020019161047e565b820191905f5260205f20905b81548152906001019060200180831161046157829003601f168201915b505050505090806001018054610493906128a7565b80601f01602080910402602001604051908101604052809291908181526020018280546104bf906128a7565b801561050a5780601f106104e15761010080835404028352916020019161050a565b820191905f5260205f20905b8154815290600101906020018083116104ed57829003601f168201915b505050505090806002015490806003018054610525906128a7565b80601f0160208091040260200160405190810160405280929190818152602001828054610551906128a7565b801561059c5780601f106105735761010080835404028352916020019161059c565b820191905f5260205f20905b81548152906001019060200180831161057f57829003601f168201915b505050505090806004015f9054906101000a900473ffffffffffffffffffffffffffffffffffffffff16905085565b60605f805b60038054905081101561066e57836040516020016105ee9190612911565b604051602081830303815290604052805190602001206003828154811061061857610617612927565b5b905f5260205f20906005020160030160405160200161063791906129e6565b604051602081830303815290604052805190602001200361066157818061065d90612a29565b9250505b80806001019150506105d0565b505f8167ffffffffffffffff81111561068a576106896120b1565b5b6040519080825280602002602001820160405280156106c357816020015b6106b0611ed3565b8152602001906001900390816106a85790505b5090505f805b6003805490508110156109be57856040516020016106e79190612911565b604051602081830303815290604052805190602001206003828154811061071157610710612927565b5b905f5260205f20906005020160030160405160200161073091906129e6565b60405160208183030381529060405280519060200120036109b1576003818154811061075f5761075e612927565b5b905f5260205f2090600502016040518060a00160405290815f820154815260200160018201805461078f906128a7565b80601f01602080910402602001604051908101604052809291908181526020018280546107bb906128a7565b80156108065780601f106107dd57610100808354040283529160200191610806565b820191905f5260205f20905b8154815290600101906020018083116107e957829003601f168201915b50505050508152602001600282015f9054906101000a900473ffffffffffffffffffffffffffffffffffffffff1673ffffffffffffffffffffffffffffffffffffffff1673ffffffffffffffffffffffffffffffffffffffff168152602001600382018054610874906128a7565b80601f01602080910402602001604051908101604052809291908181526020018280546108a0906128a7565b80156108eb5780601f106108c2576101008083540402835291602001916108eb565b820191905f5260205f20905b8154815290600101906020018083116108ce57829003601f168201915b50505050508152602001600482018054610904906128a7565b80601f0160208091040260200160405190810160405280929190818152602001828054610930906128a7565b801561097b5780601f106109525761010080835404028352916020019161097b565b820191905f5260205f20905b81548152906001019060200180831161095e57829003601f168201915b50505050508152505083838151811061099757610996612927565b5b602002602001018190525081806109ad90612a29565b9250505b80806001019150506106c9565b50819350505050919050565b600581815481106109d9575f80fd5b905f5260205f20015f915054906101000a900473ffffffffffffffffffffffffffffffffffffffff1681565b60065f3373ffffffffffffffffffffffffffffffffffffffff1673ffffffffffffffffffffffffffffffffffffffff1681526020019081526020015f205f9054906101000a900460ff16158015610aa3575060075f3373ffffffffffffffffffffffffffffffffffffffff1673ffffffffffffffffffffffffffffffffffffffff1681526020019081526020015f205f9054906101000a900460ff16155b610ae2576040517f08c379a0000000000000000000000000000000000000000000000000000000008152600401610ad990612ae0565b60405180910390fd5b60405180608001604052808481526020018381526020018281526020013373ffffffffffffffffffffffffffffffffffffffff1681525060015f3373ffffffffffffffffffffffffffffffffffffffff1673ffffffffffffffffffffffffffffffffffffffff1681526020019081526020015f205f820151815f019081610b699190612c89565b506020820151816001019081610b7f9190612c89565b506040820151816002019081610b959190612c89565b506060820151816003015f6101000a81548173ffffffffffffffffffffffffffffffffffffffff021916908373ffffffffffffffffffffffffffffffffffffffff160217905550905050600160075f3373ffffffffffffffffffffffffffffffffffffffff1673ffffffffffffffffffffffffffffffffffffffff1681526020019081526020015f205f6101000a81548160ff021916908315150217905550600533908060018154018082558091505060019003905f5260205f20015f9091909190916101000a81548173ffffffffffffffffffffffffffffffffffffffff021916908373ffffffffffffffffffffffffffffffffffffffff160217905550505050565b60608160025f8273ffffffffffffffffffffffffffffffffffffffff1673ffffffffffffffffffffffffffffffffffffffff1681526020019081526020015f205f3373ffffffffffffffffffffffffffffffffffffffff1673ffffffffffffffffffffffffffffffffffffffff1681526020019081526020015f205f9054906101000a900460ff16610d60576040517f08c379a0000000000000000000000000000000000000000000000000000000008152600401610d5790612dc8565b60405180910390fd5b5f808473ffffffffffffffffffffffffffffffffffffffff1673ffffffffffffffffffffffffffffffffffffffff1681526020019081526020015f20600501805480602002602001604051908101604052809291908181526020015f905b82821015610e66578382905f5260205f20018054610ddb906128a7565b80601f0160208091040260200160405190810160405280929190818152602001828054610e07906128a7565b8015610e525780601f10610e2957610100808354040283529160200191610e52565b820191905f5260205f20905b815481529060010190602001808311610e3557829003601f168201915b505050505081526020019060010190610dbe565b50505050915050919050565b6002602052815f5260405f20602052805f5260405f205f915091509054906101000a900460ff1681565b3360025f8273ffffffffffffffffffffffffffffffffffffffff1673ffffffffffffffffffffffffffffffffffffffff1681526020019081526020015f205f3373ffffffffffffffffffffffffffffffffffffffff1673ffffffffffffffffffffffffffffffffffffffff1681526020019081526020015f205f9054906101000a900460ff16610f61576040517f08c379a0000000000000000000000000000000000000000000000000000000008152600401610f5890612dc8565b60405180910390fd5b5f803373ffffffffffffffffffffffffffffffffffffffff1673ffffffffffffffffffffffffffffffffffffffff1681526020019081526020015f2060050182908060018154018082558091505060019003905f5260205f20015f909190919091509081610fcf9190612c89565b506110446040518060400160405280600e81526020017f5265636f726420757064617465640000000000000000000000000000000000008152506040518060400160405280600681526020017f5570646174650000000000000000000000000000000000000000000000000000815250611dc5565b5050565b606060048054806020026020016040519081016040528092919081815260200182805480156110c957602002820191905f5260205f20905b815f9054906101000a900473ffffffffffffffffffffffffffffffffffffffff1673ffffffffffffffffffffffffffffffffffffffff1681526020019060010190808311611080575b5050505050905090565b338073ffffffffffffffffffffffffffffffffffffffff163373ffffffffffffffffffffffffffffffffffffffff1614611142576040517f08c379a000000000000000000000000000000000000000000000000000000000815260040161113990612e30565b60405180910390fd5b5f60025f3373ffffffffffffffffffffffffffffffffffffffff1673ffffffffffffffffffffffffffffffffffffffff1681526020019081526020015f205f8473ffffffffffffffffffffffffffffffffffffffff1673ffffffffffffffffffffffffffffffffffffffff1681526020019081526020015f205f6101000a81548160ff0219169083151502179055506112456040518060400160405280600e81526020017f416363657373207265766f6b65640000000000000000000000000000000000008152506040518060400160405280600a81526020017f5065726d697373696f6e00000000000000000000000000000000000000000000815250611dc5565b5050565b6006602052805f5260405f205f915054906101000a900460ff1681565b60065f3373ffffffffffffffffffffffffffffffffffffffff1673ffffffffffffffffffffffffffffffffffffffff1681526020019081526020015f205f9054906101000a900460ff16158015611304575060075f3373ffffffffffffffffffffffffffffffffffffffff1673ffffffffffffffffffffffffffffffffffffffff1681526020019081526020015f205f9054906101000a900460ff16155b611343576040517f08c379a000000000000000000000000000000000000000000000000000000000815260040161133a90612ae0565b60405180910390fd5b5f805f3373ffffffffffffffffffffffffffffffffffffffff1673ffffffffffffffffffffffffffffffffffffffff1681526020019081526020015f20905084815f0190816113929190612c89565b50838160010190816113a49190612c89565b50828160020181905550818160030190816113bf9190612c89565b5033816004015f6101000a81548173ffffffffffffffffffffffffffffffffffffffff021916908373ffffffffffffffffffffffffffffffffffffffff160217905550600160065f3373ffffffffffffffffffffffffffffffffffffffff1673ffffffffffffffffffffffffffffffffffffffff1681526020019081526020015f205f6101000a81548160ff021916908315150217905550600433908060018154018082558091505060019003905f5260205f20015f9091909190916101000a81548173ffffffffffffffffffffffffffffffffffffffff021916908373ffffffffffffffffffffffffffffffffffffffff16021790555061152b6040518060400160405280601481526020017f50617469656e7420726567697374726174696f6e0000000000000000000000008152506040518060400160405280600881526020017f4372656174696f6e000000000000000000000000000000000000000000000000815250611dc5565b5050505050565b6007602052805f5260405f205f915054906101000a900460ff1681565b6001602052805f5260405f205f91509050805f01805461156e906128a7565b80601f016020809104026020016040519081016040528092919081815260200182805461159a906128a7565b80156115e55780601f106115bc576101008083540402835291602001916115e5565b820191905f5260205f20905b8154815290600101906020018083116115c857829003601f168201915b5050505050908060010180546115fa906128a7565b80601f0160208091040260200160405190810160405280929190818152602001828054611626906128a7565b80156116715780601f1061164857610100808354040283529160200191611671565b820191905f5260205f20905b81548152906001019060200180831161165457829003601f168201915b505050505090806002018054611686906128a7565b80601f01602080910402602001604051908101604052809291908181526020018280546116b2906128a7565b80156116fd5780601f106116d4576101008083540402835291602001916116fd565b820191905f5260205f20905b8154815290600101906020018083116116e057829003601f168201915b505050505090806003015f9054906101000a900473ffffffffffffffffffffffffffffffffffffffff16905084565b6004818154811061173b575f80fd5b905f5260205f20015f915054906101000a900473ffffffffffffffffffffffffffffffffffffffff1681565b60038181548110611776575f80fd5b905f5260205f2090600502015f91509050805f01549080600101805461179b906128a7565b80601f01602080910402602001604051908101604052809291908181526020018280546117c7906128a7565b80156118125780601f106117e957610100808354040283529160200191611812565b820191905f5260205f20905b8154815290600101906020018083116117f557829003601f168201915b505050505090806002015f9054906101000a900473ffffffffffffffffffffffffffffffffffffffff169080600301805461184c906128a7565b80601f0160208091040260200160405190810160405280929190818152602001828054611878906128a7565b80156118c35780601f1061189a576101008083540402835291602001916118c3565b820191905f5260205f20905b8154815290600101906020018083116118a657829003601f168201915b5050505050908060040180546118d8906128a7565b80601f0160208091040260200160405190810160405280929190818152602001828054611904906128a7565b801561194f5780601f106119265761010080835404028352916020019161194f565b820191905f5260205f20905b81548152906001019060200180831161193257829003601f168201915b5050505050905085565b60606003805480602002602001604051908101604052809291908181526020015f905b82821015611bba578382905f5260205f2090600502016040518060a00160405290815f82015481526020016001820180546119b6906128a7565b80601f01602080910402602001604051908101604052809291908181526020018280546119e2906128a7565b8015611a2d5780601f10611a0457610100808354040283529160200191611a2d565b820191905f5260205f20905b815481529060010190602001808311611a1057829003601f168201915b50505050508152602001600282015f9054906101000a900473ffffffffffffffffffffffffffffffffffffffff1673ffffffffffffffffffffffffffffffffffffffff1673ffffffffffffffffffffffffffffffffffffffff168152602001600382018054611a9b906128a7565b80601f0160208091040260200160405190810160405280929190818152602001828054611ac7906128a7565b8015611b125780601f10611ae957610100808354040283529160200191611b12565b820191905f5260205f20905b815481529060010190602001808311611af557829003601f168201915b50505050508152602001600482018054611b2b906128a7565b80601f0160208091040260200160405190810160405280929190818152602001828054611b57906128a7565b8015611ba25780601f10611b7957610100808354040283529160200191611ba2565b820191905f5260205f20905b815481529060010190602001808311611b8557829003601f168201915b5050505050815250508152602001906001019061197c565b50505050905090565b60606005805480602002602001604051908101604052809291908181526020018280548015611c4457602002820191905f5260205f20905b815f9054906101000a900473ffffffffffffffffffffffffffffffffffffffff1673ffffffffffffffffffffffffffffffffffffffff1681526020019060010190808311611bfb575b5050505050905090565b338073ffffffffffffffffffffffffffffffffffffffff163373ffffffffffffffffffffffffffffffffffffffff1614611cbd576040517f08c379a0000000000000000000000000000000000000000000000000000000008152600401611cb490612e30565b60405180910390fd5b600160025f3373ffffffffffffffffffffffffffffffffffffffff1673ffffffffffffffffffffffffffffffffffffffff1681526020019081526020015f205f8473ffffffffffffffffffffffffffffffffffffffff1673ffffffffffffffffffffffffffffffffffffffff1681526020019081526020015f205f6101000a81548160ff021916908315150217905550611dc16040518060400160405280601181526020017f41636365737320617574686f72697a65640000000000000000000000000000008152506040518060400160405280600a81526020017f5065726d697373696f6e00000000000000000000000000000000000000000000815250611dc5565b5050565b5f6040518060a001604052804281526020018481526020013373ffffffffffffffffffffffffffffffffffffffff16815260200160405180602001604052805f8152508152602001838152509050600381908060018154018082558091505060019003905f5260205f2090600502015f909190919091505f820151815f01556020820151816001019081611e599190612c89565b506040820151816002015f6101000a81548173ffffffffffffffffffffffffffffffffffffffff021916908373ffffffffffffffffffffffffffffffffffffffff1602179055506060820151816003019081611eb59190612c89565b506080820151816004019081611ecb9190612c89565b505050505050565b6040518060a001604052805f8152602001606081526020015f73ffffffffffffffffffffffffffffffffffffffff16815260200160608152602001606081525090565b5f604051905090565b5f80fd5b5f80fd5b5f73ffffffffffffffffffffffffffffffffffffffff82169050919050565b5f611f5082611f27565b9050919050565b611f6081611f46565b8114611f6a575f80fd5b50565b5f81359050611f7b81611f57565b92915050565b5f60208284031215611f9657611f95611f1f565b5b5f611fa384828501611f6d565b91505092915050565b5f81519050919050565b5f82825260208201905092915050565b8281835e5f83830152505050565b5f601f19601f8301169050919050565b5f611fee82611fac565b611ff88185611fb6565b9350612008818560208601611fc6565b61201181611fd4565b840191505092915050565b5f819050919050565b61202e8161201c565b82525050565b61203d81611f46565b82525050565b5f60a0820190508181035f83015261205b8188611fe4565b9050818103602083015261206f8187611fe4565b905061207e6040830186612025565b81810360608301526120908185611fe4565b905061209f6080830184612034565b9695505050505050565b5f80fd5b5f80fd5b7f4e487b71000000000000000000000000000000000000000000000000000000005f52604160045260245ffd5b6120e782611fd4565b810181811067ffffffffffffffff82111715612106576121056120b1565b5b80604052505050565b5f612118611f16565b905061212482826120de565b919050565b5f67ffffffffffffffff821115612143576121426120b1565b5b61214c82611fd4565b9050602081019050919050565b828183375f83830152505050565b5f61217961217484612129565b61210f565b905082815260208101848484011115612195576121946120ad565b5b6121a0848285612159565b509392505050565b5f82601f8301126121bc576121bb6120a9565b5b81356121cc848260208601612167565b91505092915050565b5f602082840312156121ea576121e9611f1f565b5b5f82013567ffffffffffffffff81111561220757612206611f23565b5b612213848285016121a8565b91505092915050565b5f81519050919050565b5f82825260208201905092915050565b5f819050602082019050919050565b61224e8161201c565b82525050565b5f82825260208201905092915050565b5f61226e82611fac565b6122788185612254565b9350612288818560208601611fc6565b61229181611fd4565b840191505092915050565b6122a581611f46565b82525050565b5f60a083015f8301516122c05f860182612245565b50602083015184820360208601526122d88282612264565b91505060408301516122ed604086018261229c565b50606083015184820360608601526123058282612264565b9150506080830151848203608086015261231f8282612264565b9150508091505092915050565b5f61233783836122ab565b905092915050565b5f602082019050919050565b5f6123558261221c565b61235f8185612226565b93508360208202850161237185612236565b805f5b858110156123ac578484038952815161238d858261232c565b94506123988361233f565b925060208a01995050600181019050612374565b50829750879550505050505092915050565b5f6020820190508181035f8301526123d6818461234b565b905092915050565b6123e78161201c565b81146123f1575f80fd5b50565b5f81359050612402816123de565b92915050565b5f6020828403121561241d5761241c611f1f565b5b5f61242a848285016123f4565b91505092915050565b5f6020820190506124465f830184612034565b92915050565b5f805f6060848603121561246357612462611f1f565b5b5f84013567ffffffffffffffff8111156124805761247f611f23565b5b61248c868287016121a8565b935050602084013567ffffffffffffffff8111156124ad576124ac611f23565b5b6124b9868287016121a8565b925050604084013567ffffffffffffffff8111156124da576124d9611f23565b5b6124e6868287016121a8565b9150509250925092565b5f81519050919050565b5f82825260208201905092915050565b5f819050602082019050919050565b5f6125248383612264565b905092915050565b5f602082019050919050565b5f612542826124f0565b61254c81856124fa565b93508360208202850161255e8561250a565b805f5b85811015612599578484038952815161257a8582612519565b94506125858361252c565b925060208a01995050600181019050612561565b50829750879550505050505092915050565b5f6020820190508181035f8301526125c38184612538565b905092915050565b5f80604083850312156125e1576125e0611f1f565b5b5f6125ee85828601611f6d565b92505060206125ff85828601611f6d565b9150509250929050565b5f8115159050919050565b61261d81612609565b82525050565b5f6020820190506126365f830184612614565b92915050565b5f81519050919050565b5f82825260208201905092915050565b5f819050602082019050919050565b5f612670838361229c565b60208301905092915050565b5f602082019050919050565b5f6126928261263c565b61269c8185612646565b93506126a783612656565b805f5b838110156126d75781516126be8882612665565b97506126c98361267c565b9250506001810190506126aa565b5085935050505092915050565b5f6020820190508181035f8301526126fc8184612688565b905092915050565b5f805f806080858703121561271c5761271b611f1f565b5b5f85013567ffffffffffffffff81111561273957612738611f23565b5b612745878288016121a8565b945050602085013567ffffffffffffffff81111561276657612765611f23565b5b612772878288016121a8565b9350506040612783878288016123f4565b925050606085013567ffffffffffffffff8111156127a4576127a3611f23565b5b6127b0878288016121a8565b91505092959194509250565b5f6080820190508181035f8301526127d48187611fe4565b905081810360208301526127e88186611fe4565b905081810360408301526127fc8185611fe4565b905061280b6060830184612034565b95945050505050565b5f60a0820190506128275f830188612025565b81810360208301526128398187611fe4565b90506128486040830186612034565b818103606083015261285a8185611fe4565b9050818103608083015261286e8184611fe4565b90509695505050505050565b7f4e487b71000000000000000000000000000000000000000000000000000000005f52602260045260245ffd5b5f60028204905060018216806128be57607f821691505b6020821081036128d1576128d061287a565b5b50919050565b5f81905092915050565b5f6128eb82611fac565b6128f581856128d7565b9350612905818560208601611fc6565b80840191505092915050565b5f61291c82846128e1565b915081905092915050565b7f4e487b71000000000000000000000000000000000000000000000000000000005f52603260045260245ffd5b5f819050815f5260205f209050919050565b5f8154612972816128a7565b61297c81866128d7565b9450600182165f811461299657600181146129ab576129dd565b60ff19831686528115158202860193506129dd565b6129b485612954565b5f5b838110156129d5578154818901526001820191506020810190506129b6565b838801955050505b50505092915050565b5f6129f18284612966565b915081905092915050565b7f4e487b71000000000000000000000000000000000000000000000000000000005f52601160045260245ffd5b5f612a338261201c565b91507fffffffffffffffffffffffffffffffffffffffffffffffffffffffffffffffff8203612a6557612a646129fc565b5b600182019050919050565b7f596f752061726520616c726561647920726567697374657265642061732065695f8201527f7468657220612070617469656e74206f72206120646f63746f722e0000000000602082015250565b5f612aca603b83611fb6565b9150612ad582612a70565b604082019050919050565b5f6020820190508181035f830152612af781612abe565b9050919050565b5f6020601f8301049050919050565b5f82821b905092915050565b5f60088302612b487fffffffffffffffffffffffffffffffffffffffffffffffffffffffffffffffff82612b0d565b612b528683612b0d565b95508019841693508086168417925050509392505050565b5f819050919050565b5f612b8d612b88612b838461201c565b612b6a565b61201c565b9050919050565b5f819050919050565b612ba683612b73565b612bba612bb282612b94565b848454612b19565b825550505050565b5f90565b612bce612bc2565b612bd9818484612b9d565b505050565b5b81811015612bfc57612bf15f82612bc6565b600181019050612bdf565b5050565b601f821115612c4157612c1281612954565b612c1b84612afe565b81016020851015612c2a578190505b612c3e612c3685612afe565b830182612bde565b50505b505050565b5f82821c905092915050565b5f612c615f1984600802612c46565b1980831691505092915050565b5f612c798383612c52565b9150826002028217905092915050565b612c9282611fac565b67ffffffffffffffff811115612cab57612caa6120b1565b5b612cb582546128a7565b612cc0828285612c00565b5f60209050601f831160018114612cf1575f8415612cdf578287015190505b612ce98582612c6e565b865550612d50565b601f198416612cff86612954565b5f5b82811015612d2657848901518255600182019150602085019450602081019050612d01565b86831015612d435784890151612d3f601f891682612c52565b8355505b6001600288020188555050505b505050505050565b7f596f7520646f206e6f742068617665207065726d697373696f6e20746f2061635f8201527f636573732074686973207265636f72642e000000000000000000000000000000602082015250565b5f612db2603183611fb6565b9150612dbd82612d58565b604082019050919050565b5f6020820190508181035f830152612ddf81612da6565b9050919050565b7f596f7520617265206e6f74207468652070617469656e742e00000000000000005f82015250565b5f612e1a601883611fb6565b9150612e2582612de6565b602082019050919050565b5f6020820190508181035f830152612e4781612e0e565b905091905056fea2646970667358221220fee4c3abf793ad8001c7d271b70aeb7fab0c0f107c0e94dcca322d2295a630b464736f6c634300081a0033",
					"opcodes": "PUSH1 0x80 PUSH1 0x40 MSTORE CALLVALUE DUP1 ISZERO PUSH1 0xE JUMPI PUSH0 DUP1 REVERT JUMPDEST POP PUSH2 0x2E84 DUP1 PUSH2 0x1C PUSH0 CODECOPY PUSH0 RETURN INVALID PUSH1 0x80 PUSH1 0x40 MSTORE CALLVALUE DUP1 ISZERO PUSH2 0xF JUMPI PUSH0 DUP1 REVERT JUMPDEST POP PUSH1 0x4 CALLDATASIZE LT PUSH2 0x114 JUMPI PUSH0 CALLDATALOAD PUSH1 0xE0 SHR DUP1 PUSH4 0x8F9C79ED GT PUSH2 0xA0 JUMPI DUP1 PUSH4 0xB40F1691 GT PUSH2 0x6F JUMPI DUP1 PUSH4 0xB40F1691 EQ PUSH2 0x32D JUMPI DUP1 PUSH4 0xB60E73DB EQ PUSH2 0x35D JUMPI DUP1 PUSH4 0xBE12C4D8 EQ PUSH2 0x391 JUMPI DUP1 PUSH4 0xD46D2031 EQ PUSH2 0x3AF JUMPI DUP1 PUSH4 0xEED14218 EQ PUSH2 0x3CD JUMPI PUSH2 0x114 JUMP JUMPDEST DUP1 PUSH4 0x8F9C79ED EQ PUSH2 0x27E JUMPI DUP1 PUSH4 0x96B58FDF EQ PUSH2 0x2AE JUMPI DUP1 PUSH4 0x996440C6 EQ PUSH2 0x2CA JUMPI DUP1 PUSH4 0xA9583C22 EQ PUSH2 0x2FA JUMPI PUSH2 0x114 JUMP JUMPDEST DUP1 PUSH4 0x6052F825 GT PUSH2 0xE7 JUMPI DUP1 PUSH4 0x6052F825 EQ PUSH2 0x1C8 JUMPI DUP1 PUSH4 0x64B3B525 EQ PUSH2 0x1F8 JUMPI DUP1 PUSH4 0x6D9EA78C EQ PUSH2 0x228 JUMPI DUP1 PUSH4 0x7395BE37 EQ PUSH2 0x244 JUMPI DUP1 PUSH4 0x85E68531 EQ PUSH2 0x262 JUMPI PUSH2 0x114 JUMP JUMPDEST DUP1 PUSH4 0x869CFBC EQ PUSH2 0x118 JUMPI DUP1 PUSH4 0x3710CB19 EQ PUSH2 0x14C JUMPI DUP1 PUSH4 0x3BA51E7C EQ PUSH2 0x17C JUMPI DUP1 PUSH4 0x50C7A912 EQ PUSH2 0x1AC JUMPI JUMPDEST PUSH0 DUP1 REVERT JUMPDEST PUSH2 0x132 PUSH1 0x4 DUP1 CALLDATASIZE SUB DUP2 ADD SWAP1 PUSH2 0x12D SWAP2 SWAP1 PUSH2 0x1F81 JUMP JUMPDEST PUSH2 0x3E9 JUMP JUMPDEST PUSH1 0x40 MLOAD PUSH2 0x143 SWAP6 SWAP5 SWAP4 SWAP3 SWAP2 SWAP1 PUSH2 0x2043 JUMP JUMPDEST PUSH1 0x40 MLOAD DUP1 SWAP2 SUB SWAP1 RETURN JUMPDEST PUSH2 0x166 PUSH1 0x4 DUP1 CALLDATASIZE SUB DUP2 ADD SWAP1 PUSH2 0x161 SWAP2 SWAP1 PUSH2 0x21D5 JUMP JUMPDEST PUSH2 0x5CB JUMP JUMPDEST PUSH1 0x40 MLOAD PUSH2 0x173 SWAP2 SWAP1 PUSH2 0x23BE JUMP JUMPDEST PUSH1 0x40 MLOAD DUP1 SWAP2 SUB SWAP1 RETURN JUMPDEST PUSH2 0x196 PUSH1 0x4 DUP1 CALLDATASIZE SUB DUP2 ADD SWAP1 PUSH2 0x191 SWAP2 SWAP1 PUSH2 0x2408 JUMP JUMPDEST PUSH2 0x9CA JUMP JUMPDEST PUSH1 0x40 MLOAD PUSH2 0x1A3 SWAP2 SWAP1 PUSH2 0x2433 JUMP JUMPDEST PUSH1 0x40 MLOAD DUP1 SWAP2 SUB SWAP1 RETURN JUMPDEST PUSH2 0x1C6 PUSH1 0x4 DUP1 CALLDATASIZE SUB DUP2 ADD SWAP1 PUSH2 0x1C1 SWAP2 SWAP1 PUSH2 0x244C JUMP JUMPDEST PUSH2 0xA05 JUMP JUMPDEST STOP JUMPDEST PUSH2 0x1E2 PUSH1 0x4 DUP1 CALLDATASIZE SUB DUP2 ADD SWAP1 PUSH2 0x1DD SWAP2 SWAP1 PUSH2 0x1F81 JUMP JUMPDEST PUSH2 0xC99 JUMP JUMPDEST PUSH1 0x40 MLOAD PUSH2 0x1EF SWAP2 SWAP1 PUSH2 0x25AB JUMP JUMPDEST PUSH1 0x40 MLOAD DUP1 SWAP2 SUB SWAP1 RETURN JUMPDEST PUSH2 0x212 PUSH1 0x4 DUP1 CALLDATASIZE SUB DUP2 ADD SWAP1 PUSH2 0x20D SWAP2 SWAP1 PUSH2 0x25CB JUMP JUMPDEST PUSH2 0xE72 JUMP JUMPDEST PUSH1 0x40 MLOAD PUSH2 0x21F SWAP2 SWAP1 PUSH2 0x2623 JUMP JUMPDEST PUSH1 0x40 MLOAD DUP1 SWAP2 SUB SWAP1 RETURN JUMPDEST PUSH2 0x242 PUSH1 0x4 DUP1 CALLDATASIZE SUB DUP2 ADD SWAP1 PUSH2 0x23D SWAP2 SWAP1 PUSH2 0x21D5 JUMP JUMPDEST PUSH2 0xE9C JUMP JUMPDEST STOP JUMPDEST PUSH2 0x24C PUSH2 0x1048 JUMP JUMPDEST PUSH1 0x40 MLOAD PUSH2 0x259 SWAP2 SWAP1 PUSH2 0x26E4 JUMP JUMPDEST PUSH1 0x40 MLOAD DUP1 SWAP2 SUB SWAP1 RETURN JUMPDEST PUSH2 0x27C PUSH1 0x4 DUP1 CALLDATASIZE SUB DUP2 ADD SWAP1 PUSH2 0x277 SWAP2 SWAP1 PUSH2 0x1F81 JUMP JUMPDEST PUSH2 0x10D3 JUMP JUMPDEST STOP JUMPDEST PUSH2 0x298 PUSH1 0x4 DUP1 CALLDATASIZE SUB DUP2 ADD SWAP1 PUSH2 0x293 SWAP2 SWAP1 PUSH2 0x1F81 JUMP JUMPDEST PUSH2 0x1249 JUMP JUMPDEST PUSH1 0x40 MLOAD PUSH2 0x2A5 SWAP2 SWAP1 PUSH2 0x2623 JUMP JUMPDEST PUSH1 0x40 MLOAD DUP1 SWAP2 SUB SWAP1 RETURN JUMPDEST PUSH2 0x2C8 PUSH1 0x4 DUP1 CALLDATASIZE SUB DUP2 ADD SWAP1 PUSH2 0x2C3 SWAP2 SWAP1 PUSH2 0x2704 JUMP JUMPDEST PUSH2 0x1266 JUMP JUMPDEST STOP JUMPDEST PUSH2 0x2E4 PUSH1 0x4 DUP1 CALLDATASIZE SUB DUP2 ADD SWAP1 PUSH2 0x2DF SWAP2 SWAP1 PUSH2 0x1F81 JUMP JUMPDEST PUSH2 0x1532 JUMP JUMPDEST PUSH1 0x40 MLOAD PUSH2 0x2F1 SWAP2 SWAP1 PUSH2 0x2623 JUMP JUMPDEST PUSH1 0x40 MLOAD DUP1 SWAP2 SUB SWAP1 RETURN JUMPDEST PUSH2 0x314 PUSH1 0x4 DUP1 CALLDATASIZE SUB DUP2 ADD SWAP1 PUSH2 0x30F SWAP2 SWAP1 PUSH2 0x1F81 JUMP JUMPDEST PUSH2 0x154F JUMP JUMPDEST PUSH1 0x40 MLOAD PUSH2 0x324 SWAP5 SWAP4 SWAP3 SWAP2 SWAP1 PUSH2 0x27BC JUMP JUMPDEST PUSH1 0x40 MLOAD DUP1 SWAP2 SUB SWAP1 RETURN JUMPDEST PUSH2 0x347 PUSH1 0x4 DUP1 CALLDATASIZE SUB DUP2 ADD SWAP1 PUSH2 0x342 SWAP2 SWAP1 PUSH2 0x2408 JUMP JUMPDEST PUSH2 0x172C JUMP JUMPDEST PUSH1 0x40 MLOAD PUSH2 0x354 SWAP2 SWAP1 PUSH2 0x2433 JUMP JUMPDEST PUSH1 0x40 MLOAD DUP1 SWAP2 SUB SWAP1 RETURN JUMPDEST PUSH2 0x377 PUSH1 0x4 DUP1 CALLDATASIZE SUB DUP2 ADD SWAP1 PUSH2 0x372 SWAP2 SWAP1 PUSH2 0x2408 JUMP JUMPDEST PUSH2 0x1767 JUMP JUMPDEST PUSH1 0x40 MLOAD PUSH2 0x388 SWAP6 SWAP5 SWAP4 SWAP3 SWAP2 SWAP1 PUSH2 0x2814 JUMP JUMPDEST PUSH1 0x40 MLOAD DUP1 SWAP2 SUB SWAP1 RETURN JUMPDEST PUSH2 0x399 PUSH2 0x1959 JUMP JUMPDEST PUSH1 0x40 MLOAD PUSH2 0x3A6 SWAP2 SWAP1 PUSH2 0x23BE JUMP JUMPDEST PUSH1 0x40 MLOAD DUP1 SWAP2 SUB SWAP1 RETURN JUMPDEST PUSH2 0x3B7 PUSH2 0x1BC3 JUMP JUMPDEST PUSH1 0x40 MLOAD PUSH2 0x3C4 SWAP2 SWAP1 PUSH2 0x26E4 JUMP JUMPDEST PUSH1 0x40 MLOAD DUP1 SWAP2 SUB SWAP1 RETURN JUMPDEST PUSH2 0x3E7 PUSH1 0x4 DUP1 CALLDATASIZE SUB DUP2 ADD SWAP1 PUSH2 0x3E2 SWAP2 SWAP1 PUSH2 0x1F81 JUMP JUMPDEST PUSH2 0x1C4E JUMP JUMPDEST STOP JUMPDEST PUSH0 PUSH1 0x20 MSTORE DUP1 PUSH0 MSTORE PUSH1 0x40 PUSH0 KECCAK256 PUSH0 SWAP2 POP SWAP1 POP DUP1 PUSH0 ADD DUP1 SLOAD PUSH2 0x407 SWAP1 PUSH2 0x28A7 JUMP JUMPDEST DUP1 PUSH1 0x1F ADD PUSH1 0x20 DUP1 SWAP2 DIV MUL PUSH1 0x20 ADD PUSH1 0x40 MLOAD SWAP1 DUP2 ADD PUSH1 0x40 MSTORE DUP1 SWAP3 SWAP2 SWAP1 DUP2 DUP2 MSTORE PUSH1 0x20 ADD DUP3 DUP1 SLOAD PUSH2 0x433 SWAP1 PUSH2 0x28A7 JUMP JUMPDEST DUP1 ISZERO PUSH2 0x47E JUMPI DUP1 PUSH1 0x1F LT PUSH2 0x455 JUMPI PUSH2 0x100 DUP1 DUP4 SLOAD DIV MUL DUP4 MSTORE SWAP2 PUSH1 0x20 ADD SWAP2 PUSH2 0x47E JUMP JUMPDEST DUP3 ADD SWAP2 SWAP1 PUSH0 MSTORE PUSH1 0x20 PUSH0 KECCAK256 SWAP1 JUMPDEST DUP2 SLOAD DUP2 MSTORE SWAP1 PUSH1 0x1 ADD SWAP1 PUSH1 0x20 ADD DUP1 DUP4 GT PUSH2 0x461 JUMPI DUP3 SWAP1 SUB PUSH1 0x1F AND DUP3 ADD SWAP2 JUMPDEST POP POP POP POP POP SWAP1 DUP1 PUSH1 0x1 ADD DUP1 SLOAD PUSH2 0x493 SWAP1 PUSH2 0x28A7 JUMP JUMPDEST DUP1 PUSH1 0x1F ADD PUSH1 0x20 DUP1 SWAP2 DIV MUL PUSH1 0x20 ADD PUSH1 0x40 MLOAD SWAP1 DUP2 ADD PUSH1 0x40 MSTORE DUP1 SWAP3 SWAP2 SWAP1 DUP2 DUP2 MSTORE PUSH1 0x20 ADD DUP3 DUP1 SLOAD PUSH2 0x4BF SWAP1 PUSH2 0x28A7 JUMP JUMPDEST DUP1 ISZERO PUSH2 0x50A JUMPI DUP1 PUSH1 0x1F LT PUSH2 0x4E1 JUMPI PUSH2 0x100 DUP1 DUP4 SLOAD DIV MUL DUP4 MSTORE SWAP2 PUSH1 0x20 ADD SWAP2 PUSH2 0x50A JUMP JUMPDEST DUP3 ADD SWAP2 SWAP1 PUSH0 MSTORE PUSH1 0x20 PUSH0 KECCAK256 SWAP1 JUMPDEST DUP2 SLOAD DUP2 MSTORE SWAP1 PUSH1 0x1 ADD SWAP1 PUSH1 0x20 ADD DUP1 DUP4 GT PUSH2 0x4ED JUMPI DUP3 SWAP1 SUB PUSH1 0x1F AND DUP3 ADD SWAP2 JUMPDEST POP POP POP POP POP SWAP1 DUP1 PUSH1 0x2 ADD SLOAD SWAP1 DUP1 PUSH1 0x3 ADD DUP1 SLOAD PUSH2 0x525 SWAP1 PUSH2 0x28A7 JUMP JUMPDEST DUP1 PUSH1 0x1F ADD PUSH1 0x20 DUP1 SWAP2 DIV MUL PUSH1 0x20 ADD PUSH1 0x40 MLOAD SWAP1 DUP2 ADD PUSH1 0x40 MSTORE DUP1 SWAP3 SWAP2 SWAP1 DUP2 DUP2 MSTORE PUSH1 0x20 ADD DUP3 DUP1 SLOAD PUSH2 0x551 SWAP1 PUSH2 0x28A7 JUMP JUMPDEST DUP1 ISZERO PUSH2 0x59C JUMPI DUP1 PUSH1 0x1F LT PUSH2 0x573 JUMPI PUSH2 0x100 DUP1 DUP4 SLOAD DIV MUL DUP4 MSTORE SWAP2 PUSH1 0x20 ADD SWAP2 PUSH2 0x59C JUMP JUMPDEST DUP3 ADD SWAP2 SWAP1 PUSH0 MSTORE PUSH1 0x20 PUSH0 KECCAK256 SWAP1 JUMPDEST DUP2 SLOAD DUP2 MSTORE SWAP1 PUSH1 0x1 ADD SWAP1 PUSH1 0x20 ADD DUP1 DUP4 GT PUSH2 0x57F JUMPI DUP3 SWAP1 SUB PUSH1 0x1F AND DUP3 ADD SWAP2 JUMPDEST POP POP POP POP POP SWAP1 DUP1 PUSH1 0x4 ADD PUSH0 SWAP1 SLOAD SWAP1 PUSH2 0x100 EXP SWAP1 DIV PUSH20 0xFFFFFFFFFFFFFFFFFFFFFFFFFFFFFFFFFFFFFFFF AND SWAP1 POP DUP6 JUMP JUMPDEST PUSH1 0x60 PUSH0 DUP1 JUMPDEST PUSH1 0x3 DUP1 SLOAD SWAP1 POP DUP2 LT ISZERO PUSH2 0x66E JUMPI DUP4 PUSH1 0x40 MLOAD PUSH1 0x20 ADD PUSH2 0x5EE SWAP2 SWAP1 PUSH2 0x2911 JUMP JUMPDEST PUSH1 0x40 MLOAD PUSH1 0x20 DUP2 DUP4 SUB SUB DUP2 MSTORE SWAP1 PUSH1 0x40 MSTORE DUP1 MLOAD SWAP1 PUSH1 0x20 ADD KECCAK256 PUSH1 0x3 DUP3 DUP2 SLOAD DUP2 LT PUSH2 0x618 JUMPI PUSH2 0x617 PUSH2 0x2927 JUMP JUMPDEST JUMPDEST SWAP1 PUSH0 MSTORE PUSH1 0x20 PUSH0 KECCAK256 SWAP1 PUSH1 0x5 MUL ADD PUSH1 0x3 ADD PUSH1 0x40 MLOAD PUSH1 0x20 ADD PUSH2 0x637 SWAP2 SWAP1 PUSH2 0x29E6 JUMP JUMPDEST PUSH1 0x40 MLOAD PUSH1 0x20 DUP2 DUP4 SUB SUB DUP2 MSTORE SWAP1 PUSH1 0x40 MSTORE DUP1 MLOAD SWAP1 PUSH1 0x20 ADD KECCAK256 SUB PUSH2 0x661 JUMPI DUP2 DUP1 PUSH2 0x65D SWAP1 PUSH2 0x2A29 JUMP JUMPDEST SWAP3 POP POP JUMPDEST DUP1 DUP1 PUSH1 0x1 ADD SWAP2 POP POP PUSH2 0x5D0 JUMP JUMPDEST POP PUSH0 DUP2 PUSH8 0xFFFFFFFFFFFFFFFF DUP2 GT ISZERO PUSH2 0x68A JUMPI PUSH2 0x689 PUSH2 0x20B1 JUMP JUMPDEST JUMPDEST PUSH1 0x40 MLOAD SWAP1 DUP1 DUP3 MSTORE DUP1 PUSH1 0x20 MUL PUSH1 0x20 ADD DUP3 ADD PUSH1 0x40 MSTORE DUP1 ISZERO PUSH2 0x6C3 JUMPI DUP2 PUSH1 0x20 ADD JUMPDEST PUSH2 0x6B0 PUSH2 0x1ED3 JUMP JUMPDEST DUP2 MSTORE PUSH1 0x20 ADD SWAP1 PUSH1 0x1 SWAP1 SUB SWAP1 DUP2 PUSH2 0x6A8 JUMPI SWAP1 POP JUMPDEST POP SWAP1 POP PUSH0 DUP1 JUMPDEST PUSH1 0x3 DUP1 SLOAD SWAP1 POP DUP2 LT ISZERO PUSH2 0x9BE JUMPI DUP6 PUSH1 0x40 MLOAD PUSH1 0x20 ADD PUSH2 0x6E7 SWAP2 SWAP1 PUSH2 0x2911 JUMP JUMPDEST PUSH1 0x40 MLOAD PUSH1 0x20 DUP2 DUP4 SUB SUB DUP2 MSTORE SWAP1 PUSH1 0x40 MSTORE DUP1 MLOAD SWAP1 PUSH1 0x20 ADD KECCAK256 PUSH1 0x3 DUP3 DUP2 SLOAD DUP2 LT PUSH2 0x711 JUMPI PUSH2 0x710 PUSH2 0x2927 JUMP JUMPDEST JUMPDEST SWAP1 PUSH0 MSTORE PUSH1 0x20 PUSH0 KECCAK256 SWAP1 PUSH1 0x5 MUL ADD PUSH1 0x3 ADD PUSH1 0x40 MLOAD PUSH1 0x20 ADD PUSH2 0x730 SWAP2 SWAP1 PUSH2 0x29E6 JUMP JUMPDEST PUSH1 0x40 MLOAD PUSH1 0x20 DUP2 DUP4 SUB SUB DUP2 MSTORE SWAP1 PUSH1 0x40 MSTORE DUP1 MLOAD SWAP1 PUSH1 0x20 ADD KECCAK256 SUB PUSH2 0x9B1 JUMPI PUSH1 0x3 DUP2 DUP2 SLOAD DUP2 LT PUSH2 0x75F JUMPI PUSH2 0x75E PUSH2 0x2927 JUMP JUMPDEST JUMPDEST SWAP1 PUSH0 MSTORE PUSH1 0x20 PUSH0 KECCAK256 SWAP1 PUSH1 0x5 MUL ADD PUSH1 0x40 MLOAD DUP1 PUSH1 0xA0 ADD PUSH1 0x40 MSTORE SWAP1 DUP2 PUSH0 DUP3 ADD SLOAD DUP2 MSTORE PUSH1 0x20 ADD PUSH1 0x1 DUP3 ADD DUP1 SLOAD PUSH2 0x78F SWAP1 PUSH2 0x28A7 JUMP JUMPDEST DUP1 PUSH1 0x1F ADD PUSH1 0x20 DUP1 SWAP2 DIV MUL PUSH1 0x20 ADD PUSH1 0x40 MLOAD SWAP1 DUP2 ADD PUSH1 0x40 MSTORE DUP1 SWAP3 SWAP2 SWAP1 DUP2 DUP2 MSTORE PUSH1 0x20 ADD DUP3 DUP1 SLOAD PUSH2 0x7BB SWAP1 PUSH2 0x28A7 JUMP JUMPDEST DUP1 ISZERO PUSH2 0x806 JUMPI DUP1 PUSH1 0x1F LT PUSH2 0x7DD JUMPI PUSH2 0x100 DUP1 DUP4 SLOAD DIV MUL DUP4 MSTORE SWAP2 PUSH1 0x20 ADD SWAP2 PUSH2 0x806 JUMP JUMPDEST DUP3 ADD SWAP2 SWAP1 PUSH0 MSTORE PUSH1 0x20 PUSH0 KECCAK256 SWAP1 JUMPDEST DUP2 SLOAD DUP2 MSTORE SWAP1 PUSH1 0x1 ADD SWAP1 PUSH1 0x20 ADD DUP1 DUP4 GT PUSH2 0x7E9 JUMPI DUP3 SWAP1 SUB PUSH1 0x1F AND DUP3 ADD SWAP2 JUMPDEST POP POP POP POP POP DUP2 MSTORE PUSH1 0x20 ADD PUSH1 0x2 DUP3 ADD PUSH0 SWAP1 SLOAD SWAP1 PUSH2 0x100 EXP SWAP1 DIV PUSH20 0xFFFFFFFFFFFFFFFFFFFFFFFFFFFFFFFFFFFFFFFF AND PUSH20 0xFFFFFFFFFFFFFFFFFFFFFFFFFFFFFFFFFFFFFFFF AND PUSH20 0xFFFFFFFFFFFFFFFFFFFFFFFFFFFFFFFFFFFFFFFF AND DUP2 MSTORE PUSH1 0x20 ADD PUSH1 0x3 DUP3 ADD DUP1 SLOAD PUSH2 0x874 SWAP1 PUSH2 0x28A7 JUMP JUMPDEST DUP1 PUSH1 0x1F ADD PUSH1 0x20 DUP1 SWAP2 DIV MUL PUSH1 0x20 ADD PUSH1 0x40 MLOAD SWAP1 DUP2 ADD PUSH1 0x40 MSTORE DUP1 SWAP3 SWAP2 SWAP1 DUP2 DUP2 MSTORE PUSH1 0x20 ADD DUP3 DUP1 SLOAD PUSH2 0x8A0 SWAP1 PUSH2 0x28A7 JUMP JUMPDEST DUP1 ISZERO PUSH2 0x8EB JUMPI DUP1 PUSH1 0x1F LT PUSH2 0x8C2 JUMPI PUSH2 0x100 DUP1 DUP4 SLOAD DIV MUL DUP4 MSTORE SWAP2 PUSH1 0x20 ADD SWAP2 PUSH2 0x8EB JUMP JUMPDEST DUP3 ADD SWAP2 SWAP1 PUSH0 MSTORE PUSH1 0x20 PUSH0 KECCAK256 SWAP1 JUMPDEST DUP2 SLOAD DUP2 MSTORE SWAP1 PUSH1 0x1 ADD SWAP1 PUSH1 0x20 ADD DUP1 DUP4 GT PUSH2 0x8CE JUMPI DUP3 SWAP1 SUB PUSH1 0x1F AND DUP3 ADD SWAP2 JUMPDEST POP POP POP POP POP DUP2 MSTORE PUSH1 0x20 ADD PUSH1 0x4 DUP3 ADD DUP1 SLOAD PUSH2 0x904 SWAP1 PUSH2 0x28A7 JUMP JUMPDEST DUP1 PUSH1 0x1F ADD PUSH1 0x20 DUP1 SWAP2 DIV MUL PUSH1 0x20 ADD PUSH1 0x40 MLOAD SWAP1 DUP2 ADD PUSH1 0x40 MSTORE DUP1 SWAP3 SWAP2 SWAP1 DUP2 DUP2 MSTORE PUSH1 0x20 ADD DUP3 DUP1 SLOAD PUSH2 0x930 SWAP1 PUSH2 0x28A7 JUMP JUMPDEST DUP1 ISZERO PUSH2 0x97B JUMPI DUP1 PUSH1 0x1F LT PUSH2 0x952 JUMPI PUSH2 0x100 DUP1 DUP4 SLOAD DIV MUL DUP4 MSTORE SWAP2 PUSH1 0x20 ADD SWAP2 PUSH2 0x97B JUMP JUMPDEST DUP3 ADD SWAP2 SWAP1 PUSH0 MSTORE PUSH1 0x20 PUSH0 KECCAK256 SWAP1 JUMPDEST DUP2 SLOAD DUP2 MSTORE SWAP1 PUSH1 0x1 ADD SWAP1 PUSH1 0x20 ADD DUP1 DUP4 GT PUSH2 0x95E JUMPI DUP3 SWAP1 SUB PUSH1 0x1F AND DUP3 ADD SWAP2 JUMPDEST POP POP POP POP POP DUP2 MSTORE POP POP DUP4 DUP4 DUP2 MLOAD DUP2 LT PUSH2 0x997 JUMPI PUSH2 0x996 PUSH2 0x2927 JUMP JUMPDEST JUMPDEST PUSH1 0x20 MUL PUSH1 0x20 ADD ADD DUP2 SWAP1 MSTORE POP DUP2 DUP1 PUSH2 0x9AD SWAP1 PUSH2 0x2A29 JUMP JUMPDEST SWAP3 POP POP JUMPDEST DUP1 DUP1 PUSH1 0x1 ADD SWAP2 POP POP PUSH2 0x6C9 JUMP JUMPDEST POP DUP2 SWAP4 POP POP POP POP SWAP2 SWAP1 POP JUMP JUMPDEST PUSH1 0x5 DUP2 DUP2 SLOAD DUP2 LT PUSH2 0x9D9 JUMPI PUSH0 DUP1 REVERT JUMPDEST SWAP1 PUSH0 MSTORE PUSH1 0x20 PUSH0 KECCAK256 ADD PUSH0 SWAP2 POP SLOAD SWAP1 PUSH2 0x100 EXP SWAP1 DIV PUSH20 0xFFFFFFFFFFFFFFFFFFFFFFFFFFFFFFFFFFFFFFFF AND DUP2 JUMP JUMPDEST PUSH1 0x6 PUSH0 CALLER PUSH20 0xFFFFFFFFFFFFFFFFFFFFFFFFFFFFFFFFFFFFFFFF AND PUSH20 0xFFFFFFFFFFFFFFFFFFFFFFFFFFFFFFFFFFFFFFFF AND DUP2 MSTORE PUSH1 0x20 ADD SWAP1 DUP2 MSTORE PUSH1 0x20 ADD PUSH0 KECCAK256 PUSH0 SWAP1 SLOAD SWAP1 PUSH2 0x100 EXP SWAP1 DIV PUSH1 0xFF AND ISZERO DUP1 ISZERO PUSH2 0xAA3 JUMPI POP PUSH1 0x7 PUSH0 CALLER PUSH20 0xFFFFFFFFFFFFFFFFFFFFFFFFFFFFFFFFFFFFFFFF AND PUSH20 0xFFFFFFFFFFFFFFFFFFFFFFFFFFFFFFFFFFFFFFFF AND DUP2 MSTORE PUSH1 0x20 ADD SWAP1 DUP2 MSTORE PUSH1 0x20 ADD PUSH0 KECCAK256 PUSH0 SWAP1 SLOAD SWAP1 PUSH2 0x100 EXP SWAP1 DIV PUSH1 0xFF AND ISZERO JUMPDEST PUSH2 0xAE2 JUMPI PUSH1 0x40 MLOAD PUSH32 0x8C379A000000000000000000000000000000000000000000000000000000000 DUP2 MSTORE PUSH1 0x4 ADD PUSH2 0xAD9 SWAP1 PUSH2 0x2AE0 JUMP JUMPDEST PUSH1 0x40 MLOAD DUP1 SWAP2 SUB SWAP1 REVERT JUMPDEST PUSH1 0x40 MLOAD DUP1 PUSH1 0x80 ADD PUSH1 0x40 MSTORE DUP1 DUP5 DUP2 MSTORE PUSH1 0x20 ADD DUP4 DUP2 MSTORE PUSH1 0x20 ADD DUP3 DUP2 MSTORE PUSH1 0x20 ADD CALLER PUSH20 0xFFFFFFFFFFFFFFFFFFFFFFFFFFFFFFFFFFFFFFFF AND DUP2 MSTORE POP PUSH1 0x1 PUSH0 CALLER PUSH20 0xFFFFFFFFFFFFFFFFFFFFFFFFFFFFFFFFFFFFFFFF AND PUSH20 0xFFFFFFFFFFFFFFFFFFFFFFFFFFFFFFFFFFFFFFFF AND DUP2 MSTORE PUSH1 0x20 ADD SWAP1 DUP2 MSTORE PUSH1 0x20 ADD PUSH0 KECCAK256 PUSH0 DUP3 ADD MLOAD DUP2 PUSH0 ADD SWAP1 DUP2 PUSH2 0xB69 SWAP2 SWAP1 PUSH2 0x2C89 JUMP JUMPDEST POP PUSH1 0x20 DUP3 ADD MLOAD DUP2 PUSH1 0x1 ADD SWAP1 DUP2 PUSH2 0xB7F SWAP2 SWAP1 PUSH2 0x2C89 JUMP JUMPDEST POP PUSH1 0x40 DUP3 ADD MLOAD DUP2 PUSH1 0x2 ADD SWAP1 DUP2 PUSH2 0xB95 SWAP2 SWAP1 PUSH2 0x2C89 JUMP JUMPDEST POP PUSH1 0x60 DUP3 ADD MLOAD DUP2 PUSH1 0x3 ADD PUSH0 PUSH2 0x100 EXP DUP2 SLOAD DUP2 PUSH20 0xFFFFFFFFFFFFFFFFFFFFFFFFFFFFFFFFFFFFFFFF MUL NOT AND SWAP1 DUP4 PUSH20 0xFFFFFFFFFFFFFFFFFFFFFFFFFFFFFFFFFFFFFFFF AND MUL OR SWAP1 SSTORE POP SWAP1 POP POP PUSH1 0x1 PUSH1 0x7 PUSH0 CALLER PUSH20 0xFFFFFFFFFFFFFFFFFFFFFFFFFFFFFFFFFFFFFFFF AND PUSH20 0xFFFFFFFFFFFFFFFFFFFFFFFFFFFFFFFFFFFFFFFF AND DUP2 MSTORE PUSH1 0x20 ADD SWAP1 DUP2 MSTORE PUSH1 0x20 ADD PUSH0 KECCAK256 PUSH0 PUSH2 0x100 EXP DUP2 SLOAD DUP2 PUSH1 0xFF MUL NOT AND SWAP1 DUP4 ISZERO ISZERO MUL OR SWAP1 SSTORE POP PUSH1 0x5 CALLER SWAP1 DUP1 PUSH1 0x1 DUP2 SLOAD ADD DUP1 DUP3 SSTORE DUP1 SWAP2 POP POP PUSH1 0x1 SWAP1 SUB SWAP1 PUSH0 MSTORE PUSH1 0x20 PUSH0 KECCAK256 ADD PUSH0 SWAP1 SWAP2 SWAP1 SWAP2 SWAP1 SWAP2 PUSH2 0x100 EXP DUP2 SLOAD DUP2 PUSH20 0xFFFFFFFFFFFFFFFFFFFFFFFFFFFFFFFFFFFFFFFF MUL NOT AND SWAP1 DUP4 PUSH20 0xFFFFFFFFFFFFFFFFFFFFFFFFFFFFFFFFFFFFFFFF AND MUL OR SWAP1 SSTORE POP POP POP POP JUMP JUMPDEST PUSH1 0x60 DUP2 PUSH1 0x2 PUSH0 DUP3 PUSH20 0xFFFFFFFFFFFFFFFFFFFFFFFFFFFFFFFFFFFFFFFF AND PUSH20 0xFFFFFFFFFFFFFFFFFFFFFFFFFFFFFFFFFFFFFFFF AND DUP2 MSTORE PUSH1 0x20 ADD SWAP1 DUP2 MSTORE PUSH1 0x20 ADD PUSH0 KECCAK256 PUSH0 CALLER PUSH20 0xFFFFFFFFFFFFFFFFFFFFFFFFFFFFFFFFFFFFFFFF AND PUSH20 0xFFFFFFFFFFFFFFFFFFFFFFFFFFFFFFFFFFFFFFFF AND DUP2 MSTORE PUSH1 0x20 ADD SWAP1 DUP2 MSTORE PUSH1 0x20 ADD PUSH0 KECCAK256 PUSH0 SWAP1 SLOAD SWAP1 PUSH2 0x100 EXP SWAP1 DIV PUSH1 0xFF AND PUSH2 0xD60 JUMPI PUSH1 0x40 MLOAD PUSH32 0x8C379A000000000000000000000000000000000000000000000000000000000 DUP2 MSTORE PUSH1 0x4 ADD PUSH2 0xD57 SWAP1 PUSH2 0x2DC8 JUMP JUMPDEST PUSH1 0x40 MLOAD DUP1 SWAP2 SUB SWAP1 REVERT JUMPDEST PUSH0 DUP1 DUP5 PUSH20 0xFFFFFFFFFFFFFFFFFFFFFFFFFFFFFFFFFFFFFFFF AND PUSH20 0xFFFFFFFFFFFFFFFFFFFFFFFFFFFFFFFFFFFFFFFF AND DUP2 MSTORE PUSH1 0x20 ADD SWAP1 DUP2 MSTORE PUSH1 0x20 ADD PUSH0 KECCAK256 PUSH1 0x5 ADD DUP1 SLOAD DUP1 PUSH1 0x20 MUL PUSH1 0x20 ADD PUSH1 0x40 MLOAD SWAP1 DUP2 ADD PUSH1 0x40 MSTORE DUP1 SWAP3 SWAP2 SWAP1 DUP2 DUP2 MSTORE PUSH1 0x20 ADD PUSH0 SWAP1 JUMPDEST DUP3 DUP3 LT ISZERO PUSH2 0xE66 JUMPI DUP4 DUP3 SWAP1 PUSH0 MSTORE PUSH1 0x20 PUSH0 KECCAK256 ADD DUP1 SLOAD PUSH2 0xDDB SWAP1 PUSH2 0x28A7 JUMP JUMPDEST DUP1 PUSH1 0x1F ADD PUSH1 0x20 DUP1 SWAP2 DIV MUL PUSH1 0x20 ADD PUSH1 0x40 MLOAD SWAP1 DUP2 ADD PUSH1 0x40 MSTORE DUP1 SWAP3 SWAP2 SWAP1 DUP2 DUP2 MSTORE PUSH1 0x20 ADD DUP3 DUP1 SLOAD PUSH2 0xE07 SWAP1 PUSH2 0x28A7 JUMP JUMPDEST DUP1 ISZERO PUSH2 0xE52 JUMPI DUP1 PUSH1 0x1F LT PUSH2 0xE29 JUMPI PUSH2 0x100 DUP1 DUP4 SLOAD DIV MUL DUP4 MSTORE SWAP2 PUSH1 0x20 ADD SWAP2 PUSH2 0xE52 JUMP JUMPDEST DUP3 ADD SWAP2 SWAP1 PUSH0 MSTORE PUSH1 0x20 PUSH0 KECCAK256 SWAP1 JUMPDEST DUP2 SLOAD DUP2 MSTORE SWAP1 PUSH1 0x1 ADD SWAP1 PUSH1 0x20 ADD DUP1 DUP4 GT PUSH2 0xE35 JUMPI DUP3 SWAP1 SUB PUSH1 0x1F AND DUP3 ADD SWAP2 JUMPDEST POP POP POP POP POP DUP2 MSTORE PUSH1 0x20 ADD SWAP1 PUSH1 0x1 ADD SWAP1 PUSH2 0xDBE JUMP JUMPDEST POP POP POP POP SWAP2 POP POP SWAP2 SWAP1 POP JUMP JUMPDEST PUSH1 0x2 PUSH1 0x20 MSTORE DUP2 PUSH0 MSTORE PUSH1 0x40 PUSH0 KECCAK256 PUSH1 0x20 MSTORE DUP1 PUSH0 MSTORE PUSH1 0x40 PUSH0 KECCAK256 PUSH0 SWAP2 POP SWAP2 POP SWAP1 SLOAD SWAP1 PUSH2 0x100 EXP SWAP1 DIV PUSH1 0xFF AND DUP2 JUMP JUMPDEST CALLER PUSH1 0x2 PUSH0 DUP3 PUSH20 0xFFFFFFFFFFFFFFFFFFFFFFFFFFFFFFFFFFFFFFFF AND PUSH20 0xFFFFFFFFFFFFFFFFFFFFFFFFFFFFFFFFFFFFFFFF AND DUP2 MSTORE PUSH1 0x20 ADD SWAP1 DUP2 MSTORE PUSH1 0x20 ADD PUSH0 KECCAK256 PUSH0 CALLER PUSH20 0xFFFFFFFFFFFFFFFFFFFFFFFFFFFFFFFFFFFFFFFF AND PUSH20 0xFFFFFFFFFFFFFFFFFFFFFFFFFFFFFFFFFFFFFFFF AND DUP2 MSTORE PUSH1 0x20 ADD SWAP1 DUP2 MSTORE PUSH1 0x20 ADD PUSH0 KECCAK256 PUSH0 SWAP1 SLOAD SWAP1 PUSH2 0x100 EXP SWAP1 DIV PUSH1 0xFF AND PUSH2 0xF61 JUMPI PUSH1 0x40 MLOAD PUSH32 0x8C379A000000000000000000000000000000000000000000000000000000000 DUP2 MSTORE PUSH1 0x4 ADD PUSH2 0xF58 SWAP1 PUSH2 0x2DC8 JUMP JUMPDEST PUSH1 0x40 MLOAD DUP1 SWAP2 SUB SWAP1 REVERT JUMPDEST PUSH0 DUP1 CALLER PUSH20 0xFFFFFFFFFFFFFFFFFFFFFFFFFFFFFFFFFFFFFFFF AND PUSH20 0xFFFFFFFFFFFFFFFFFFFFFFFFFFFFFFFFFFFFFFFF AND DUP2 MSTORE PUSH1 0x20 ADD SWAP1 DUP2 MSTORE PUSH1 0x20 ADD PUSH0 KECCAK256 PUSH1 0x5 ADD DUP3 SWAP1 DUP1 PUSH1 0x1 DUP2 SLOAD ADD DUP1 DUP3 SSTORE DUP1 SWAP2 POP POP PUSH1 0x1 SWAP1 SUB SWAP1 PUSH0 MSTORE PUSH1 0x20 PUSH0 KECCAK256 ADD PUSH0 SWAP1 SWAP2 SWAP1 SWAP2 SWAP1 SWAP2 POP SWAP1 DUP2 PUSH2 0xFCF SWAP2 SWAP1 PUSH2 0x2C89 JUMP JUMPDEST POP PUSH2 0x1044 PUSH1 0x40 MLOAD DUP1 PUSH1 0x40 ADD PUSH1 0x40 MSTORE DUP1 PUSH1 0xE DUP2 MSTORE PUSH1 0x20 ADD PUSH32 0x5265636F72642075706461746564000000000000000000000000000000000000 DUP2 MSTORE POP PUSH1 0x40 MLOAD DUP1 PUSH1 0x40 ADD PUSH1 0x40 MSTORE DUP1 PUSH1 0x6 DUP2 MSTORE PUSH1 0x20 ADD PUSH32 0x5570646174650000000000000000000000000000000000000000000000000000 DUP2 MSTORE POP PUSH2 0x1DC5 JUMP JUMPDEST POP POP JUMP JUMPDEST PUSH1 0x60 PUSH1 0x4 DUP1 SLOAD DUP1 PUSH1 0x20 MUL PUSH1 0x20 ADD PUSH1 0x40 MLOAD SWAP1 DUP2 ADD PUSH1 0x40 MSTORE DUP1 SWAP3 SWAP2 SWAP1 DUP2 DUP2 MSTORE PUSH1 0x20 ADD DUP3 DUP1 SLOAD DUP1 ISZERO PUSH2 0x10C9 JUMPI PUSH1 0x20 MUL DUP3 ADD SWAP2 SWAP1 PUSH0 MSTORE PUSH1 0x20 PUSH0 KECCAK256 SWAP1 JUMPDEST DUP2 PUSH0 SWAP1 SLOAD SWAP1 PUSH2 0x100 EXP SWAP1 DIV PUSH20 0xFFFFFFFFFFFFFFFFFFFFFFFFFFFFFFFFFFFFFFFF AND PUSH20 0xFFFFFFFFFFFFFFFFFFFFFFFFFFFFFFFFFFFFFFFF AND DUP2 MSTORE PUSH1 0x20 ADD SWAP1 PUSH1 0x1 ADD SWAP1 DUP1 DUP4 GT PUSH2 0x1080 JUMPI JUMPDEST POP POP POP POP POP SWAP1 POP SWAP1 JUMP JUMPDEST CALLER DUP1 PUSH20 0xFFFFFFFFFFFFFFFFFFFFFFFFFFFFFFFFFFFFFFFF AND CALLER PUSH20 0xFFFFFFFFFFFFFFFFFFFFFFFFFFFFFFFFFFFFFFFF AND EQ PUSH2 0x1142 JUMPI PUSH1 0x40 MLOAD PUSH32 0x8C379A000000000000000000000000000000000000000000000000000000000 DUP2 MSTORE PUSH1 0x4 ADD PUSH2 0x1139 SWAP1 PUSH2 0x2E30 JUMP JUMPDEST PUSH1 0x40 MLOAD DUP1 SWAP2 SUB SWAP1 REVERT JUMPDEST PUSH0 PUSH1 0x2 PUSH0 CALLER PUSH20 0xFFFFFFFFFFFFFFFFFFFFFFFFFFFFFFFFFFFFFFFF AND PUSH20 0xFFFFFFFFFFFFFFFFFFFFFFFFFFFFFFFFFFFFFFFF AND DUP2 MSTORE PUSH1 0x20 ADD SWAP1 DUP2 MSTORE PUSH1 0x20 ADD PUSH0 KECCAK256 PUSH0 DUP5 PUSH20 0xFFFFFFFFFFFFFFFFFFFFFFFFFFFFFFFFFFFFFFFF AND PUSH20 0xFFFFFFFFFFFFFFFFFFFFFFFFFFFFFFFFFFFFFFFF AND DUP2 MSTORE PUSH1 0x20 ADD SWAP1 DUP2 MSTORE PUSH1 0x20 ADD PUSH0 KECCAK256 PUSH0 PUSH2 0x100 EXP DUP2 SLOAD DUP2 PUSH1 0xFF MUL NOT AND SWAP1 DUP4 ISZERO ISZERO MUL OR SWAP1 SSTORE POP PUSH2 0x1245 PUSH1 0x40 MLOAD DUP1 PUSH1 0x40 ADD PUSH1 0x40 MSTORE DUP1 PUSH1 0xE DUP2 MSTORE PUSH1 0x20 ADD PUSH32 0x416363657373207265766F6B6564000000000000000000000000000000000000 DUP2 MSTORE POP PUSH1 0x40 MLOAD DUP1 PUSH1 0x40 ADD PUSH1 0x40 MSTORE DUP1 PUSH1 0xA DUP2 MSTORE PUSH1 0x20 ADD PUSH32 0x5065726D697373696F6E00000000000000000000000000000000000000000000 DUP2 MSTORE POP PUSH2 0x1DC5 JUMP JUMPDEST POP POP JUMP JUMPDEST PUSH1 0x6 PUSH1 0x20 MSTORE DUP1 PUSH0 MSTORE PUSH1 0x40 PUSH0 KECCAK256 PUSH0 SWAP2 POP SLOAD SWAP1 PUSH2 0x100 EXP SWAP1 DIV PUSH1 0xFF AND DUP2 JUMP JUMPDEST PUSH1 0x6 PUSH0 CALLER PUSH20 0xFFFFFFFFFFFFFFFFFFFFFFFFFFFFFFFFFFFFFFFF AND PUSH20 0xFFFFFFFFFFFFFFFFFFFFFFFFFFFFFFFFFFFFFFFF AND DUP2 MSTORE PUSH1 0x20 ADD SWAP1 DUP2 MSTORE PUSH1 0x20 ADD PUSH0 KECCAK256 PUSH0 SWAP1 SLOAD SWAP1 PUSH2 0x100 EXP SWAP1 DIV PUSH1 0xFF AND ISZERO DUP1 ISZERO PUSH2 0x1304 JUMPI POP PUSH1 0x7 PUSH0 CALLER PUSH20 0xFFFFFFFFFFFFFFFFFFFFFFFFFFFFFFFFFFFFFFFF AND PUSH20 0xFFFFFFFFFFFFFFFFFFFFFFFFFFFFFFFFFFFFFFFF AND DUP2 MSTORE PUSH1 0x20 ADD SWAP1 DUP2 MSTORE PUSH1 0x20 ADD PUSH0 KECCAK256 PUSH0 SWAP1 SLOAD SWAP1 PUSH2 0x100 EXP SWAP1 DIV PUSH1 0xFF AND ISZERO JUMPDEST PUSH2 0x1343 JUMPI PUSH1 0x40 MLOAD PUSH32 0x8C379A000000000000000000000000000000000000000000000000000000000 DUP2 MSTORE PUSH1 0x4 ADD PUSH2 0x133A SWAP1 PUSH2 0x2AE0 JUMP JUMPDEST PUSH1 0x40 MLOAD DUP1 SWAP2 SUB SWAP1 REVERT JUMPDEST PUSH0 DUP1 PUSH0 CALLER PUSH20 0xFFFFFFFFFFFFFFFFFFFFFFFFFFFFFFFFFFFFFFFF AND PUSH20 0xFFFFFFFFFFFFFFFFFFFFFFFFFFFFFFFFFFFFFFFF AND DUP2 MSTORE PUSH1 0x20 ADD SWAP1 DUP2 MSTORE PUSH1 0x20 ADD PUSH0 KECCAK256 SWAP1 POP DUP5 DUP2 PUSH0 ADD SWAP1 DUP2 PUSH2 0x1392 SWAP2 SWAP1 PUSH2 0x2C89 JUMP JUMPDEST POP DUP4 DUP2 PUSH1 0x1 ADD SWAP1 DUP2 PUSH2 0x13A4 SWAP2 SWAP1 PUSH2 0x2C89 JUMP JUMPDEST POP DUP3 DUP2 PUSH1 0x2 ADD DUP2 SWAP1 SSTORE POP DUP2 DUP2 PUSH1 0x3 ADD SWAP1 DUP2 PUSH2 0x13BF SWAP2 SWAP1 PUSH2 0x2C89 JUMP JUMPDEST POP CALLER DUP2 PUSH1 0x4 ADD PUSH0 PUSH2 0x100 EXP DUP2 SLOAD DUP2 PUSH20 0xFFFFFFFFFFFFFFFFFFFFFFFFFFFFFFFFFFFFFFFF MUL NOT AND SWAP1 DUP4 PUSH20 0xFFFFFFFFFFFFFFFFFFFFFFFFFFFFFFFFFFFFFFFF AND MUL OR SWAP1 SSTORE POP PUSH1 0x1 PUSH1 0x6 PUSH0 CALLER PUSH20 0xFFFFFFFFFFFFFFFFFFFFFFFFFFFFFFFFFFFFFFFF AND PUSH20 0xFFFFFFFFFFFFFFFFFFFFFFFFFFFFFFFFFFFFFFFF AND DUP2 MSTORE PUSH1 0x20 ADD SWAP1 DUP2 MSTORE PUSH1 0x20 ADD PUSH0 KECCAK256 PUSH0 PUSH2 0x100 EXP DUP2 SLOAD DUP2 PUSH1 0xFF MUL NOT AND SWAP1 DUP4 ISZERO ISZERO MUL OR SWAP1 SSTORE POP PUSH1 0x4 CALLER SWAP1 DUP1 PUSH1 0x1 DUP2 SLOAD ADD DUP1 DUP3 SSTORE DUP1 SWAP2 POP POP PUSH1 0x1 SWAP1 SUB SWAP1 PUSH0 MSTORE PUSH1 0x20 PUSH0 KECCAK256 ADD PUSH0 SWAP1 SWAP2 SWAP1 SWAP2 SWAP1 SWAP2 PUSH2 0x100 EXP DUP2 SLOAD DUP2 PUSH20 0xFFFFFFFFFFFFFFFFFFFFFFFFFFFFFFFFFFFFFFFF MUL NOT AND SWAP1 DUP4 PUSH20 0xFFFFFFFFFFFFFFFFFFFFFFFFFFFFFFFFFFFFFFFF AND MUL OR SWAP1 SSTORE POP PUSH2 0x152B PUSH1 0x40 MLOAD DUP1 PUSH1 0x40 ADD PUSH1 0x40 MSTORE DUP1 PUSH1 0x14 DUP2 MSTORE PUSH1 0x20 ADD PUSH32 0x50617469656E7420726567697374726174696F6E000000000000000000000000 DUP2 MSTORE POP PUSH1 0x40 MLOAD DUP1 PUSH1 0x40 ADD PUSH1 0x40 MSTORE DUP1 PUSH1 0x8 DUP2 MSTORE PUSH1 0x20 ADD PUSH32 0x4372656174696F6E000000000000000000000000000000000000000000000000 DUP2 MSTORE POP PUSH2 0x1DC5 JUMP JUMPDEST POP POP POP POP POP JUMP JUMPDEST PUSH1 0x7 PUSH1 0x20 MSTORE DUP1 PUSH0 MSTORE PUSH1 0x40 PUSH0 KECCAK256 PUSH0 SWAP2 POP SLOAD SWAP1 PUSH2 0x100 EXP SWAP1 DIV PUSH1 0xFF AND DUP2 JUMP JUMPDEST PUSH1 0x1 PUSH1 0x20 MSTORE DUP1 PUSH0 MSTORE PUSH1 0x40 PUSH0 KECCAK256 PUSH0 SWAP2 POP SWAP1 POP DUP1 PUSH0 ADD DUP1 SLOAD PUSH2 0x156E SWAP1 PUSH2 0x28A7 JUMP JUMPDEST DUP1 PUSH1 0x1F ADD PUSH1 0x20 DUP1 SWAP2 DIV MUL PUSH1 0x20 ADD PUSH1 0x40 MLOAD SWAP1 DUP2 ADD PUSH1 0x40 MSTORE DUP1 SWAP3 SWAP2 SWAP1 DUP2 DUP2 MSTORE PUSH1 0x20 ADD DUP3 DUP1 SLOAD PUSH2 0x159A SWAP1 PUSH2 0x28A7 JUMP JUMPDEST DUP1 ISZERO PUSH2 0x15E5 JUMPI DUP1 PUSH1 0x1F LT PUSH2 0x15BC JUMPI PUSH2 0x100 DUP1 DUP4 SLOAD DIV MUL DUP4 MSTORE SWAP2 PUSH1 0x20 ADD SWAP2 PUSH2 0x15E5 JUMP JUMPDEST DUP3 ADD SWAP2 SWAP1 PUSH0 MSTORE PUSH1 0x20 PUSH0 KECCAK256 SWAP1 JUMPDEST DUP2 SLOAD DUP2 MSTORE SWAP1 PUSH1 0x1 ADD SWAP1 PUSH1 0x20 ADD DUP1 DUP4 GT PUSH2 0x15C8 JUMPI DUP3 SWAP1 SUB PUSH1 0x1F AND DUP3 ADD SWAP2 JUMPDEST POP POP POP POP POP SWAP1 DUP1 PUSH1 0x1 ADD DUP1 SLOAD PUSH2 0x15FA SWAP1 PUSH2 0x28A7 JUMP JUMPDEST DUP1 PUSH1 0x1F ADD PUSH1 0x20 DUP1 SWAP2 DIV MUL PUSH1 0x20 ADD PUSH1 0x40 MLOAD SWAP1 DUP2 ADD PUSH1 0x40 MSTORE DUP1 SWAP3 SWAP2 SWAP1 DUP2 DUP2 MSTORE PUSH1 0x20 ADD DUP3 DUP1 SLOAD PUSH2 0x1626 SWAP1 PUSH2 0x28A7 JUMP JUMPDEST DUP1 ISZERO PUSH2 0x1671 JUMPI DUP1 PUSH1 0x1F LT PUSH2 0x1648 JUMPI PUSH2 0x100 DUP1 DUP4 SLOAD DIV MUL DUP4 MSTORE SWAP2 PUSH1 0x20 ADD SWAP2 PUSH2 0x1671 JUMP JUMPDEST DUP3 ADD SWAP2 SWAP1 PUSH0 MSTORE PUSH1 0x20 PUSH0 KECCAK256 SWAP1 JUMPDEST DUP2 SLOAD DUP2 MSTORE SWAP1 PUSH1 0x1 ADD SWAP1 PUSH1 0x20 ADD DUP1 DUP4 GT PUSH2 0x1654 JUMPI DUP3 SWAP1 SUB PUSH1 0x1F AND DUP3 ADD SWAP2 JUMPDEST POP POP POP POP POP SWAP1 DUP1 PUSH1 0x2 ADD DUP1 SLOAD PUSH2 0x1686 SWAP1 PUSH2 0x28A7 JUMP JUMPDEST DUP1 PUSH1 0x1F ADD PUSH1 0x20 DUP1 SWAP2 DIV MUL PUSH1 0x20 ADD PUSH1 0x40 MLOAD SWAP1 DUP2 ADD PUSH1 0x40 MSTORE DUP1 SWAP3 SWAP2 SWAP1 DUP2 DUP2 MSTORE PUSH1 0x20 ADD DUP3 DUP1 SLOAD PUSH2 0x16B2 SWAP1 PUSH2 0x28A7 JUMP JUMPDEST DUP1 ISZERO PUSH2 0x16FD JUMPI DUP1 PUSH1 0x1F LT PUSH2 0x16D4 JUMPI PUSH2 0x100 DUP1 DUP4 SLOAD DIV MUL DUP4 MSTORE SWAP2 PUSH1 0x20 ADD SWAP2 PUSH2 0x16FD JUMP JUMPDEST DUP3 ADD SWAP2 SWAP1 PUSH0 MSTORE PUSH1 0x20 PUSH0 KECCAK256 SWAP1 JUMPDEST DUP2 SLOAD DUP2 MSTORE SWAP1 PUSH1 0x1 ADD SWAP1 PUSH1 0x20 ADD DUP1 DUP4 GT PUSH2 0x16E0 JUMPI DUP3 SWAP1 SUB PUSH1 0x1F AND DUP3 ADD SWAP2 JUMPDEST POP POP POP POP POP SWAP1 DUP1 PUSH1 0x3 ADD PUSH0 SWAP1 SLOAD SWAP1 PUSH2 0x100 EXP SWAP1 DIV PUSH20 0xFFFFFFFFFFFFFFFFFFFFFFFFFFFFFFFFFFFFFFFF AND SWAP1 POP DUP5 JUMP JUMPDEST PUSH1 0x4 DUP2 DUP2 SLOAD DUP2 LT PUSH2 0x173B JUMPI PUSH0 DUP1 REVERT JUMPDEST SWAP1 PUSH0 MSTORE PUSH1 0x20 PUSH0 KECCAK256 ADD PUSH0 SWAP2 POP SLOAD SWAP1 PUSH2 0x100 EXP SWAP1 DIV PUSH20 0xFFFFFFFFFFFFFFFFFFFFFFFFFFFFFFFFFFFFFFFF AND DUP2 JUMP JUMPDEST PUSH1 0x3 DUP2 DUP2 SLOAD DUP2 LT PUSH2 0x1776 JUMPI PUSH0 DUP1 REVERT JUMPDEST SWAP1 PUSH0 MSTORE PUSH1 0x20 PUSH0 KECCAK256 SWAP1 PUSH1 0x5 MUL ADD PUSH0 SWAP2 POP SWAP1 POP DUP1 PUSH0 ADD SLOAD SWAP1 DUP1 PUSH1 0x1 ADD DUP1 SLOAD PUSH2 0x179B SWAP1 PUSH2 0x28A7 JUMP JUMPDEST DUP1 PUSH1 0x1F ADD PUSH1 0x20 DUP1 SWAP2 DIV MUL PUSH1 0x20 ADD PUSH1 0x40 MLOAD SWAP1 DUP2 ADD PUSH1 0x40 MSTORE DUP1 SWAP3 SWAP2 SWAP1 DUP2 DUP2 MSTORE PUSH1 0x20 ADD DUP3 DUP1 SLOAD PUSH2 0x17C7 SWAP1 PUSH2 0x28A7 JUMP JUMPDEST DUP1 ISZERO PUSH2 0x1812 JUMPI DUP1 PUSH1 0x1F LT PUSH2 0x17E9 JUMPI PUSH2 0x100 DUP1 DUP4 SLOAD DIV MUL DUP4 MSTORE SWAP2 PUSH1 0x20 ADD SWAP2 PUSH2 0x1812 JUMP JUMPDEST DUP3 ADD SWAP2 SWAP1 PUSH0 MSTORE PUSH1 0x20 PUSH0 KECCAK256 SWAP1 JUMPDEST DUP2 SLOAD DUP2 MSTORE SWAP1 PUSH1 0x1 ADD SWAP1 PUSH1 0x20 ADD DUP1 DUP4 GT PUSH2 0x17F5 JUMPI DUP3 SWAP1 SUB PUSH1 0x1F AND DUP3 ADD SWAP2 JUMPDEST POP POP POP POP POP SWAP1 DUP1 PUSH1 0x2 ADD PUSH0 SWAP1 SLOAD SWAP1 PUSH2 0x100 EXP SWAP1 DIV PUSH20 0xFFFFFFFFFFFFFFFFFFFFFFFFFFFFFFFFFFFFFFFF AND SWAP1 DUP1 PUSH1 0x3 ADD DUP1 SLOAD PUSH2 0x184C SWAP1 PUSH2 0x28A7 JUMP JUMPDEST DUP1 PUSH1 0x1F ADD PUSH1 0x20 DUP1 SWAP2 DIV MUL PUSH1 0x20 ADD PUSH1 0x40 MLOAD SWAP1 DUP2 ADD PUSH1 0x40 MSTORE DUP1 SWAP3 SWAP2 SWAP1 DUP2 DUP2 MSTORE PUSH1 0x20 ADD DUP3 DUP1 SLOAD PUSH2 0x1878 SWAP1 PUSH2 0x28A7 JUMP JUMPDEST DUP1 ISZERO PUSH2 0x18C3 JUMPI DUP1 PUSH1 0x1F LT PUSH2 0x189A JUMPI PUSH2 0x100 DUP1 DUP4 SLOAD DIV MUL DUP4 MSTORE SWAP2 PUSH1 0x20 ADD SWAP2 PUSH2 0x18C3 JUMP JUMPDEST DUP3 ADD SWAP2 SWAP1 PUSH0 MSTORE PUSH1 0x20 PUSH0 KECCAK256 SWAP1 JUMPDEST DUP2 SLOAD DUP2 MSTORE SWAP1 PUSH1 0x1 ADD SWAP1 PUSH1 0x20 ADD DUP1 DUP4 GT PUSH2 0x18A6 JUMPI DUP3 SWAP1 SUB PUSH1 0x1F AND DUP3 ADD SWAP2 JUMPDEST POP POP POP POP POP SWAP1 DUP1 PUSH1 0x4 ADD DUP1 SLOAD PUSH2 0x18D8 SWAP1 PUSH2 0x28A7 JUMP JUMPDEST DUP1 PUSH1 0x1F ADD PUSH1 0x20 DUP1 SWAP2 DIV MUL PUSH1 0x20 ADD PUSH1 0x40 MLOAD SWAP1 DUP2 ADD PUSH1 0x40 MSTORE DUP1 SWAP3 SWAP2 SWAP1 DUP2 DUP2 MSTORE PUSH1 0x20 ADD DUP3 DUP1 SLOAD PUSH2 0x1904 SWAP1 PUSH2 0x28A7 JUMP JUMPDEST DUP1 ISZERO PUSH2 0x194F JUMPI DUP1 PUSH1 0x1F LT PUSH2 0x1926 JUMPI PUSH2 0x100 DUP1 DUP4 SLOAD DIV MUL DUP4 MSTORE SWAP2 PUSH1 0x20 ADD SWAP2 PUSH2 0x194F JUMP JUMPDEST DUP3 ADD SWAP2 SWAP1 PUSH0 MSTORE PUSH1 0x20 PUSH0 KECCAK256 SWAP1 JUMPDEST DUP2 SLOAD DUP2 MSTORE SWAP1 PUSH1 0x1 ADD SWAP1 PUSH1 0x20 ADD DUP1 DUP4 GT PUSH2 0x1932 JUMPI DUP3 SWAP1 SUB PUSH1 0x1F AND DUP3 ADD SWAP2 JUMPDEST POP POP POP POP POP SWAP1 POP DUP6 JUMP JUMPDEST PUSH1 0x60 PUSH1 0x3 DUP1 SLOAD DUP1 PUSH1 0x20 MUL PUSH1 0x20 ADD PUSH1 0x40 MLOAD SWAP1 DUP2 ADD PUSH1 0x40 MSTORE DUP1 SWAP3 SWAP2 SWAP1 DUP2 DUP2 MSTORE PUSH1 0x20 ADD PUSH0 SWAP1 JUMPDEST DUP3 DUP3 LT ISZERO PUSH2 0x1BBA JUMPI DUP4 DUP3 SWAP1 PUSH0 MSTORE PUSH1 0x20 PUSH0 KECCAK256 SWAP1 PUSH1 0x5 MUL ADD PUSH1 0x40 MLOAD DUP1 PUSH1 0xA0 ADD PUSH1 0x40 MSTORE SWAP1 DUP2 PUSH0 DUP3 ADD SLOAD DUP2 MSTORE PUSH1 0x20 ADD PUSH1 0x1 DUP3 ADD DUP1 SLOAD PUSH2 0x19B6 SWAP1 PUSH2 0x28A7 JUMP JUMPDEST DUP1 PUSH1 0x1F ADD PUSH1 0x20 DUP1 SWAP2 DIV MUL PUSH1 0x20 ADD PUSH1 0x40 MLOAD SWAP1 DUP2 ADD PUSH1 0x40 MSTORE DUP1 SWAP3 SWAP2 SWAP1 DUP2 DUP2 MSTORE PUSH1 0x20 ADD DUP3 DUP1 SLOAD PUSH2 0x19E2 SWAP1 PUSH2 0x28A7 JUMP JUMPDEST DUP1 ISZERO PUSH2 0x1A2D JUMPI DUP1 PUSH1 0x1F LT PUSH2 0x1A04 JUMPI PUSH2 0x100 DUP1 DUP4 SLOAD DIV MUL DUP4 MSTORE SWAP2 PUSH1 0x20 ADD SWAP2 PUSH2 0x1A2D JUMP JUMPDEST DUP3 ADD SWAP2 SWAP1 PUSH0 MSTORE PUSH1 0x20 PUSH0 KECCAK256 SWAP1 JUMPDEST DUP2 SLOAD DUP2 MSTORE SWAP1 PUSH1 0x1 ADD SWAP1 PUSH1 0x20 ADD DUP1 DUP4 GT PUSH2 0x1A10 JUMPI DUP3 SWAP1 SUB PUSH1 0x1F AND DUP3 ADD SWAP2 JUMPDEST POP POP POP POP POP DUP2 MSTORE PUSH1 0x20 ADD PUSH1 0x2 DUP3 ADD PUSH0 SWAP1 SLOAD SWAP1 PUSH2 0x100 EXP SWAP1 DIV PUSH20 0xFFFFFFFFFFFFFFFFFFFFFFFFFFFFFFFFFFFFFFFF AND PUSH20 0xFFFFFFFFFFFFFFFFFFFFFFFFFFFFFFFFFFFFFFFF AND PUSH20 0xFFFFFFFFFFFFFFFFFFFFFFFFFFFFFFFFFFFFFFFF AND DUP2 MSTORE PUSH1 0x20 ADD PUSH1 0x3 DUP3 ADD DUP1 SLOAD PUSH2 0x1A9B SWAP1 PUSH2 0x28A7 JUMP JUMPDEST DUP1 PUSH1 0x1F ADD PUSH1 0x20 DUP1 SWAP2 DIV MUL PUSH1 0x20 ADD PUSH1 0x40 MLOAD SWAP1 DUP2 ADD PUSH1 0x40 MSTORE DUP1 SWAP3 SWAP2 SWAP1 DUP2 DUP2 MSTORE PUSH1 0x20 ADD DUP3 DUP1 SLOAD PUSH2 0x1AC7 SWAP1 PUSH2 0x28A7 JUMP JUMPDEST DUP1 ISZERO PUSH2 0x1B12 JUMPI DUP1 PUSH1 0x1F LT PUSH2 0x1AE9 JUMPI PUSH2 0x100 DUP1 DUP4 SLOAD DIV MUL DUP4 MSTORE SWAP2 PUSH1 0x20 ADD SWAP2 PUSH2 0x1B12 JUMP JUMPDEST DUP3 ADD SWAP2 SWAP1 PUSH0 MSTORE PUSH1 0x20 PUSH0 KECCAK256 SWAP1 JUMPDEST DUP2 SLOAD DUP2 MSTORE SWAP1 PUSH1 0x1 ADD SWAP1 PUSH1 0x20 ADD DUP1 DUP4 GT PUSH2 0x1AF5 JUMPI DUP3 SWAP1 SUB PUSH1 0x1F AND DUP3 ADD SWAP2 JUMPDEST POP POP POP POP POP DUP2 MSTORE PUSH1 0x20 ADD PUSH1 0x4 DUP3 ADD DUP1 SLOAD PUSH2 0x1B2B SWAP1 PUSH2 0x28A7 JUMP JUMPDEST DUP1 PUSH1 0x1F ADD PUSH1 0x20 DUP1 SWAP2 DIV MUL PUSH1 0x20 ADD PUSH1 0x40 MLOAD SWAP1 DUP2 ADD PUSH1 0x40 MSTORE DUP1 SWAP3 SWAP2 SWAP1 DUP2 DUP2 MSTORE PUSH1 0x20 ADD DUP3 DUP1 SLOAD PUSH2 0x1B57 SWAP1 PUSH2 0x28A7 JUMP JUMPDEST DUP1 ISZERO PUSH2 0x1BA2 JUMPI DUP1 PUSH1 0x1F LT PUSH2 0x1B79 JUMPI PUSH2 0x100 DUP1 DUP4 SLOAD DIV MUL DUP4 MSTORE SWAP2 PUSH1 0x20 ADD SWAP2 PUSH2 0x1BA2 JUMP JUMPDEST DUP3 ADD SWAP2 SWAP1 PUSH0 MSTORE PUSH1 0x20 PUSH0 KECCAK256 SWAP1 JUMPDEST DUP2 SLOAD DUP2 MSTORE SWAP1 PUSH1 0x1 ADD SWAP1 PUSH1 0x20 ADD DUP1 DUP4 GT PUSH2 0x1B85 JUMPI DUP3 SWAP1 SUB PUSH1 0x1F AND DUP3 ADD SWAP2 JUMPDEST POP POP POP POP POP DUP2 MSTORE POP POP DUP2 MSTORE PUSH1 0x20 ADD SWAP1 PUSH1 0x1 ADD SWAP1 PUSH2 0x197C JUMP JUMPDEST POP POP POP POP SWAP1 POP SWAP1 JUMP JUMPDEST PUSH1 0x60 PUSH1 0x5 DUP1 SLOAD DUP1 PUSH1 0x20 MUL PUSH1 0x20 ADD PUSH1 0x40 MLOAD SWAP1 DUP2 ADD PUSH1 0x40 MSTORE DUP1 SWAP3 SWAP2 SWAP1 DUP2 DUP2 MSTORE PUSH1 0x20 ADD DUP3 DUP1 SLOAD DUP1 ISZERO PUSH2 0x1C44 JUMPI PUSH1 0x20 MUL DUP3 ADD SWAP2 SWAP1 PUSH0 MSTORE PUSH1 0x20 PUSH0 KECCAK256 SWAP1 JUMPDEST DUP2 PUSH0 SWAP1 SLOAD SWAP1 PUSH2 0x100 EXP SWAP1 DIV PUSH20 0xFFFFFFFFFFFFFFFFFFFFFFFFFFFFFFFFFFFFFFFF AND PUSH20 0xFFFFFFFFFFFFFFFFFFFFFFFFFFFFFFFFFFFFFFFF AND DUP2 MSTORE PUSH1 0x20 ADD SWAP1 PUSH1 0x1 ADD SWAP1 DUP1 DUP4 GT PUSH2 0x1BFB JUMPI JUMPDEST POP POP POP POP POP SWAP1 POP SWAP1 JUMP JUMPDEST CALLER DUP1 PUSH20 0xFFFFFFFFFFFFFFFFFFFFFFFFFFFFFFFFFFFFFFFF AND CALLER PUSH20 0xFFFFFFFFFFFFFFFFFFFFFFFFFFFFFFFFFFFFFFFF AND EQ PUSH2 0x1CBD JUMPI PUSH1 0x40 MLOAD PUSH32 0x8C379A000000000000000000000000000000000000000000000000000000000 DUP2 MSTORE PUSH1 0x4 ADD PUSH2 0x1CB4 SWAP1 PUSH2 0x2E30 JUMP JUMPDEST PUSH1 0x40 MLOAD DUP1 SWAP2 SUB SWAP1 REVERT JUMPDEST PUSH1 0x1 PUSH1 0x2 PUSH0 CALLER PUSH20 0xFFFFFFFFFFFFFFFFFFFFFFFFFFFFFFFFFFFFFFFF AND PUSH20 0xFFFFFFFFFFFFFFFFFFFFFFFFFFFFFFFFFFFFFFFF AND DUP2 MSTORE PUSH1 0x20 ADD SWAP1 DUP2 MSTORE PUSH1 0x20 ADD PUSH0 KECCAK256 PUSH0 DUP5 PUSH20 0xFFFFFFFFFFFFFFFFFFFFFFFFFFFFFFFFFFFFFFFF AND PUSH20 0xFFFFFFFFFFFFFFFFFFFFFFFFFFFFFFFFFFFFFFFF AND DUP2 MSTORE PUSH1 0x20 ADD SWAP1 DUP2 MSTORE PUSH1 0x20 ADD PUSH0 KECCAK256 PUSH0 PUSH2 0x100 EXP DUP2 SLOAD DUP2 PUSH1 0xFF MUL NOT AND SWAP1 DUP4 ISZERO ISZERO MUL OR SWAP1 SSTORE POP PUSH2 0x1DC1 PUSH1 0x40 MLOAD DUP1 PUSH1 0x40 ADD PUSH1 0x40 MSTORE DUP1 PUSH1 0x11 DUP2 MSTORE PUSH1 0x20 ADD PUSH32 0x41636365737320617574686F72697A6564000000000000000000000000000000 DUP2 MSTORE POP PUSH1 0x40 MLOAD DUP1 PUSH1 0x40 ADD PUSH1 0x40 MSTORE DUP1 PUSH1 0xA DUP2 MSTORE PUSH1 0x20 ADD PUSH32 0x5065726D697373696F6E00000000000000000000000000000000000000000000 DUP2 MSTORE POP PUSH2 0x1DC5 JUMP JUMPDEST POP POP JUMP JUMPDEST PUSH0 PUSH1 0x40 MLOAD DUP1 PUSH1 0xA0 ADD PUSH1 0x40 MSTORE DUP1 TIMESTAMP DUP2 MSTORE PUSH1 0x20 ADD DUP5 DUP2 MSTORE PUSH1 0x20 ADD CALLER PUSH20 0xFFFFFFFFFFFFFFFFFFFFFFFFFFFFFFFFFFFFFFFF AND DUP2 MSTORE PUSH1 0x20 ADD PUSH1 0x40 MLOAD DUP1 PUSH1 0x20 ADD PUSH1 0x40 MSTORE DUP1 PUSH0 DUP2 MSTORE POP DUP2 MSTORE PUSH1 0x20 ADD DUP4 DUP2 MSTORE POP SWAP1 POP PUSH1 0x3 DUP2 SWAP1 DUP1 PUSH1 0x1 DUP2 SLOAD ADD DUP1 DUP3 SSTORE DUP1 SWAP2 POP POP PUSH1 0x1 SWAP1 SUB SWAP1 PUSH0 MSTORE PUSH1 0x20 PUSH0 KECCAK256 SWAP1 PUSH1 0x5 MUL ADD PUSH0 SWAP1 SWAP2 SWAP1 SWAP2 SWAP1 SWAP2 POP PUSH0 DUP3 ADD MLOAD DUP2 PUSH0 ADD SSTORE PUSH1 0x20 DUP3 ADD MLOAD DUP2 PUSH1 0x1 ADD SWAP1 DUP2 PUSH2 0x1E59 SWAP2 SWAP1 PUSH2 0x2C89 JUMP JUMPDEST POP PUSH1 0x40 DUP3 ADD MLOAD DUP2 PUSH1 0x2 ADD PUSH0 PUSH2 0x100 EXP DUP2 SLOAD DUP2 PUSH20 0xFFFFFFFFFFFFFFFFFFFFFFFFFFFFFFFFFFFFFFFF MUL NOT AND SWAP1 DUP4 PUSH20 0xFFFFFFFFFFFFFFFFFFFFFFFFFFFFFFFFFFFFFFFF AND MUL OR SWAP1 SSTORE POP PUSH1 0x60 DUP3 ADD MLOAD DUP2 PUSH1 0x3 ADD SWAP1 DUP2 PUSH2 0x1EB5 SWAP2 SWAP1 PUSH2 0x2C89 JUMP JUMPDEST POP PUSH1 0x80 DUP3 ADD MLOAD DUP2 PUSH1 0x4 ADD SWAP1 DUP2 PUSH2 0x1ECB SWAP2 SWAP1 PUSH2 0x2C89 JUMP JUMPDEST POP POP POP POP POP POP JUMP JUMPDEST PUSH1 0x40 MLOAD DUP1 PUSH1 0xA0 ADD PUSH1 0x40 MSTORE DUP1 PUSH0 DUP2 MSTORE PUSH1 0x20 ADD PUSH1 0x60 DUP2 MSTORE PUSH1 0x20 ADD PUSH0 PUSH20 0xFFFFFFFFFFFFFFFFFFFFFFFFFFFFFFFFFFFFFFFF AND DUP2 MSTORE PUSH1 0x20 ADD PUSH1 0x60 DUP2 MSTORE PUSH1 0x20 ADD PUSH1 0x60 DUP2 MSTORE POP SWAP1 JUMP JUMPDEST PUSH0 PUSH1 0x40 MLOAD SWAP1 POP SWAP1 JUMP JUMPDEST PUSH0 DUP1 REVERT JUMPDEST PUSH0 DUP1 REVERT JUMPDEST PUSH0 PUSH20 0xFFFFFFFFFFFFFFFFFFFFFFFFFFFFFFFFFFFFFFFF DUP3 AND SWAP1 POP SWAP2 SWAP1 POP JUMP JUMPDEST PUSH0 PUSH2 0x1F50 DUP3 PUSH2 0x1F27 JUMP JUMPDEST SWAP1 POP SWAP2 SWAP1 POP JUMP JUMPDEST PUSH2 0x1F60 DUP2 PUSH2 0x1F46 JUMP JUMPDEST DUP2 EQ PUSH2 0x1F6A JUMPI PUSH0 DUP1 REVERT JUMPDEST POP JUMP JUMPDEST PUSH0 DUP2 CALLDATALOAD SWAP1 POP PUSH2 0x1F7B DUP2 PUSH2 0x1F57 JUMP JUMPDEST SWAP3 SWAP2 POP POP JUMP JUMPDEST PUSH0 PUSH1 0x20 DUP3 DUP5 SUB SLT ISZERO PUSH2 0x1F96 JUMPI PUSH2 0x1F95 PUSH2 0x1F1F JUMP JUMPDEST JUMPDEST PUSH0 PUSH2 0x1FA3 DUP5 DUP3 DUP6 ADD PUSH2 0x1F6D JUMP JUMPDEST SWAP2 POP POP SWAP3 SWAP2 POP POP JUMP JUMPDEST PUSH0 DUP2 MLOAD SWAP1 POP SWAP2 SWAP1 POP JUMP JUMPDEST PUSH0 DUP3 DUP3 MSTORE PUSH1 0x20 DUP3 ADD SWAP1 POP SWAP3 SWAP2 POP POP JUMP JUMPDEST DUP3 DUP2 DUP4 MCOPY PUSH0 DUP4 DUP4 ADD MSTORE POP POP POP JUMP JUMPDEST PUSH0 PUSH1 0x1F NOT PUSH1 0x1F DUP4 ADD AND SWAP1 POP SWAP2 SWAP1 POP JUMP JUMPDEST PUSH0 PUSH2 0x1FEE DUP3 PUSH2 0x1FAC JUMP JUMPDEST PUSH2 0x1FF8 DUP2 DUP6 PUSH2 0x1FB6 JUMP JUMPDEST SWAP4 POP PUSH2 0x2008 DUP2 DUP6 PUSH1 0x20 DUP7 ADD PUSH2 0x1FC6 JUMP JUMPDEST PUSH2 0x2011 DUP2 PUSH2 0x1FD4 JUMP JUMPDEST DUP5 ADD SWAP2 POP POP SWAP3 SWAP2 POP POP JUMP JUMPDEST PUSH0 DUP2 SWAP1 POP SWAP2 SWAP1 POP JUMP JUMPDEST PUSH2 0x202E DUP2 PUSH2 0x201C JUMP JUMPDEST DUP3 MSTORE POP POP JUMP JUMPDEST PUSH2 0x203D DUP2 PUSH2 0x1F46 JUMP JUMPDEST DUP3 MSTORE POP POP JUMP JUMPDEST PUSH0 PUSH1 0xA0 DUP3 ADD SWAP1 POP DUP2 DUP2 SUB PUSH0 DUP4 ADD MSTORE PUSH2 0x205B DUP2 DUP9 PUSH2 0x1FE4 JUMP JUMPDEST SWAP1 POP DUP2 DUP2 SUB PUSH1 0x20 DUP4 ADD MSTORE PUSH2 0x206F DUP2 DUP8 PUSH2 0x1FE4 JUMP JUMPDEST SWAP1 POP PUSH2 0x207E PUSH1 0x40 DUP4 ADD DUP7 PUSH2 0x2025 JUMP JUMPDEST DUP2 DUP2 SUB PUSH1 0x60 DUP4 ADD MSTORE PUSH2 0x2090 DUP2 DUP6 PUSH2 0x1FE4 JUMP JUMPDEST SWAP1 POP PUSH2 0x209F PUSH1 0x80 DUP4 ADD DUP5 PUSH2 0x2034 JUMP JUMPDEST SWAP7 SWAP6 POP POP POP POP POP POP JUMP JUMPDEST PUSH0 DUP1 REVERT JUMPDEST PUSH0 DUP1 REVERT JUMPDEST PUSH32 0x4E487B7100000000000000000000000000000000000000000000000000000000 PUSH0 MSTORE PUSH1 0x41 PUSH1 0x4 MSTORE PUSH1 0x24 PUSH0 REVERT JUMPDEST PUSH2 0x20E7 DUP3 PUSH2 0x1FD4 JUMP JUMPDEST DUP2 ADD DUP2 DUP2 LT PUSH8 0xFFFFFFFFFFFFFFFF DUP3 GT OR ISZERO PUSH2 0x2106 JUMPI PUSH2 0x2105 PUSH2 0x20B1 JUMP JUMPDEST JUMPDEST DUP1 PUSH1 0x40 MSTORE POP POP POP JUMP JUMPDEST PUSH0 PUSH2 0x2118 PUSH2 0x1F16 JUMP JUMPDEST SWAP1 POP PUSH2 0x2124 DUP3 DUP3 PUSH2 0x20DE JUMP JUMPDEST SWAP2 SWAP1 POP JUMP JUMPDEST PUSH0 PUSH8 0xFFFFFFFFFFFFFFFF DUP3 GT ISZERO PUSH2 0x2143 JUMPI PUSH2 0x2142 PUSH2 0x20B1 JUMP JUMPDEST JUMPDEST PUSH2 0x214C DUP3 PUSH2 0x1FD4 JUMP JUMPDEST SWAP1 POP PUSH1 0x20 DUP2 ADD SWAP1 POP SWAP2 SWAP1 POP JUMP JUMPDEST DUP3 DUP2 DUP4 CALLDATACOPY PUSH0 DUP4 DUP4 ADD MSTORE POP POP POP JUMP JUMPDEST PUSH0 PUSH2 0x2179 PUSH2 0x2174 DUP5 PUSH2 0x2129 JUMP JUMPDEST PUSH2 0x210F JUMP JUMPDEST SWAP1 POP DUP3 DUP2 MSTORE PUSH1 0x20 DUP2 ADD DUP5 DUP5 DUP5 ADD GT ISZERO PUSH2 0x2195 JUMPI PUSH2 0x2194 PUSH2 0x20AD JUMP JUMPDEST JUMPDEST PUSH2 0x21A0 DUP5 DUP3 DUP6 PUSH2 0x2159 JUMP JUMPDEST POP SWAP4 SWAP3 POP POP POP JUMP JUMPDEST PUSH0 DUP3 PUSH1 0x1F DUP4 ADD SLT PUSH2 0x21BC JUMPI PUSH2 0x21BB PUSH2 0x20A9 JUMP JUMPDEST JUMPDEST DUP2 CALLDATALOAD PUSH2 0x21CC DUP5 DUP3 PUSH1 0x20 DUP7 ADD PUSH2 0x2167 JUMP JUMPDEST SWAP2 POP POP SWAP3 SWAP2 POP POP JUMP JUMPDEST PUSH0 PUSH1 0x20 DUP3 DUP5 SUB SLT ISZERO PUSH2 0x21EA JUMPI PUSH2 0x21E9 PUSH2 0x1F1F JUMP JUMPDEST JUMPDEST PUSH0 DUP3 ADD CALLDATALOAD PUSH8 0xFFFFFFFFFFFFFFFF DUP2 GT ISZERO PUSH2 0x2207 JUMPI PUSH2 0x2206 PUSH2 0x1F23 JUMP JUMPDEST JUMPDEST PUSH2 0x2213 DUP5 DUP3 DUP6 ADD PUSH2 0x21A8 JUMP JUMPDEST SWAP2 POP POP SWAP3 SWAP2 POP POP JUMP JUMPDEST PUSH0 DUP2 MLOAD SWAP1 POP SWAP2 SWAP1 POP JUMP JUMPDEST PUSH0 DUP3 DUP3 MSTORE PUSH1 0x20 DUP3 ADD SWAP1 POP SWAP3 SWAP2 POP POP JUMP JUMPDEST PUSH0 DUP2 SWAP1 POP PUSH1 0x20 DUP3 ADD SWAP1 POP SWAP2 SWAP1 POP JUMP JUMPDEST PUSH2 0x224E DUP2 PUSH2 0x201C JUMP JUMPDEST DUP3 MSTORE POP POP JUMP JUMPDEST PUSH0 DUP3 DUP3 MSTORE PUSH1 0x20 DUP3 ADD SWAP1 POP SWAP3 SWAP2 POP POP JUMP JUMPDEST PUSH0 PUSH2 0x226E DUP3 PUSH2 0x1FAC JUMP JUMPDEST PUSH2 0x2278 DUP2 DUP6 PUSH2 0x2254 JUMP JUMPDEST SWAP4 POP PUSH2 0x2288 DUP2 DUP6 PUSH1 0x20 DUP7 ADD PUSH2 0x1FC6 JUMP JUMPDEST PUSH2 0x2291 DUP2 PUSH2 0x1FD4 JUMP JUMPDEST DUP5 ADD SWAP2 POP POP SWAP3 SWAP2 POP POP JUMP JUMPDEST PUSH2 0x22A5 DUP2 PUSH2 0x1F46 JUMP JUMPDEST DUP3 MSTORE POP POP JUMP JUMPDEST PUSH0 PUSH1 0xA0 DUP4 ADD PUSH0 DUP4 ADD MLOAD PUSH2 0x22C0 PUSH0 DUP7 ADD DUP3 PUSH2 0x2245 JUMP JUMPDEST POP PUSH1 0x20 DUP4 ADD MLOAD DUP5 DUP3 SUB PUSH1 0x20 DUP7 ADD MSTORE PUSH2 0x22D8 DUP3 DUP3 PUSH2 0x2264 JUMP JUMPDEST SWAP2 POP POP PUSH1 0x40 DUP4 ADD MLOAD PUSH2 0x22ED PUSH1 0x40 DUP7 ADD DUP3 PUSH2 0x229C JUMP JUMPDEST POP PUSH1 0x60 DUP4 ADD MLOAD DUP5 DUP3 SUB PUSH1 0x60 DUP7 ADD MSTORE PUSH2 0x2305 DUP3 DUP3 PUSH2 0x2264 JUMP JUMPDEST SWAP2 POP POP PUSH1 0x80 DUP4 ADD MLOAD DUP5 DUP3 SUB PUSH1 0x80 DUP7 ADD MSTORE PUSH2 0x231F DUP3 DUP3 PUSH2 0x2264 JUMP JUMPDEST SWAP2 POP POP DUP1 SWAP2 POP POP SWAP3 SWAP2 POP POP JUMP JUMPDEST PUSH0 PUSH2 0x2337 DUP4 DUP4 PUSH2 0x22AB JUMP JUMPDEST SWAP1 POP SWAP3 SWAP2 POP POP JUMP JUMPDEST PUSH0 PUSH1 0x20 DUP3 ADD SWAP1 POP SWAP2 SWAP1 POP JUMP JUMPDEST PUSH0 PUSH2 0x2355 DUP3 PUSH2 0x221C JUMP JUMPDEST PUSH2 0x235F DUP2 DUP6 PUSH2 0x2226 JUMP JUMPDEST SWAP4 POP DUP4 PUSH1 0x20 DUP3 MUL DUP6 ADD PUSH2 0x2371 DUP6 PUSH2 0x2236 JUMP JUMPDEST DUP1 PUSH0 JUMPDEST DUP6 DUP2 LT ISZERO PUSH2 0x23AC JUMPI DUP5 DUP5 SUB DUP10 MSTORE DUP2 MLOAD PUSH2 0x238D DUP6 DUP3 PUSH2 0x232C JUMP JUMPDEST SWAP5 POP PUSH2 0x2398 DUP4 PUSH2 0x233F JUMP JUMPDEST SWAP3 POP PUSH1 0x20 DUP11 ADD SWAP10 POP POP PUSH1 0x1 DUP2 ADD SWAP1 POP PUSH2 0x2374 JUMP JUMPDEST POP DUP3 SWAP8 POP DUP8 SWAP6 POP POP POP POP POP POP SWAP3 SWAP2 POP POP JUMP JUMPDEST PUSH0 PUSH1 0x20 DUP3 ADD SWAP1 POP DUP2 DUP2 SUB PUSH0 DUP4 ADD MSTORE PUSH2 0x23D6 DUP2 DUP5 PUSH2 0x234B JUMP JUMPDEST SWAP1 POP SWAP3 SWAP2 POP POP JUMP JUMPDEST PUSH2 0x23E7 DUP2 PUSH2 0x201C JUMP JUMPDEST DUP2 EQ PUSH2 0x23F1 JUMPI PUSH0 DUP1 REVERT JUMPDEST POP JUMP JUMPDEST PUSH0 DUP2 CALLDATALOAD SWAP1 POP PUSH2 0x2402 DUP2 PUSH2 0x23DE JUMP JUMPDEST SWAP3 SWAP2 POP POP JUMP JUMPDEST PUSH0 PUSH1 0x20 DUP3 DUP5 SUB SLT ISZERO PUSH2 0x241D JUMPI PUSH2 0x241C PUSH2 0x1F1F JUMP JUMPDEST JUMPDEST PUSH0 PUSH2 0x242A DUP5 DUP3 DUP6 ADD PUSH2 0x23F4 JUMP JUMPDEST SWAP2 POP POP SWAP3 SWAP2 POP POP JUMP JUMPDEST PUSH0 PUSH1 0x20 DUP3 ADD SWAP1 POP PUSH2 0x2446 PUSH0 DUP4 ADD DUP5 PUSH2 0x2034 JUMP JUMPDEST SWAP3 SWAP2 POP POP JUMP JUMPDEST PUSH0 DUP1 PUSH0 PUSH1 0x60 DUP5 DUP7 SUB SLT ISZERO PUSH2 0x2463 JUMPI PUSH2 0x2462 PUSH2 0x1F1F JUMP JUMPDEST JUMPDEST PUSH0 DUP5 ADD CALLDATALOAD PUSH8 0xFFFFFFFFFFFFFFFF DUP2 GT ISZERO PUSH2 0x2480 JUMPI PUSH2 0x247F PUSH2 0x1F23 JUMP JUMPDEST JUMPDEST PUSH2 0x248C DUP7 DUP3 DUP8 ADD PUSH2 0x21A8 JUMP JUMPDEST SWAP4 POP POP PUSH1 0x20 DUP5 ADD CALLDATALOAD PUSH8 0xFFFFFFFFFFFFFFFF DUP2 GT ISZERO PUSH2 0x24AD JUMPI PUSH2 0x24AC PUSH2 0x1F23 JUMP JUMPDEST JUMPDEST PUSH2 0x24B9 DUP7 DUP3 DUP8 ADD PUSH2 0x21A8 JUMP JUMPDEST SWAP3 POP POP PUSH1 0x40 DUP5 ADD CALLDATALOAD PUSH8 0xFFFFFFFFFFFFFFFF DUP2 GT ISZERO PUSH2 0x24DA JUMPI PUSH2 0x24D9 PUSH2 0x1F23 JUMP JUMPDEST JUMPDEST PUSH2 0x24E6 DUP7 DUP3 DUP8 ADD PUSH2 0x21A8 JUMP JUMPDEST SWAP2 POP POP SWAP3 POP SWAP3 POP SWAP3 JUMP JUMPDEST PUSH0 DUP2 MLOAD SWAP1 POP SWAP2 SWAP1 POP JUMP JUMPDEST PUSH0 DUP3 DUP3 MSTORE PUSH1 0x20 DUP3 ADD SWAP1 POP SWAP3 SWAP2 POP POP JUMP JUMPDEST PUSH0 DUP2 SWAP1 POP PUSH1 0x20 DUP3 ADD SWAP1 POP SWAP2 SWAP1 POP JUMP JUMPDEST PUSH0 PUSH2 0x2524 DUP4 DUP4 PUSH2 0x2264 JUMP JUMPDEST SWAP1 POP SWAP3 SWAP2 POP POP JUMP JUMPDEST PUSH0 PUSH1 0x20 DUP3 ADD SWAP1 POP SWAP2 SWAP1 POP JUMP JUMPDEST PUSH0 PUSH2 0x2542 DUP3 PUSH2 0x24F0 JUMP JUMPDEST PUSH2 0x254C DUP2 DUP6 PUSH2 0x24FA JUMP JUMPDEST SWAP4 POP DUP4 PUSH1 0x20 DUP3 MUL DUP6 ADD PUSH2 0x255E DUP6 PUSH2 0x250A JUMP JUMPDEST DUP1 PUSH0 JUMPDEST DUP6 DUP2 LT ISZERO PUSH2 0x2599 JUMPI DUP5 DUP5 SUB DUP10 MSTORE DUP2 MLOAD PUSH2 0x257A DUP6 DUP3 PUSH2 0x2519 JUMP JUMPDEST SWAP5 POP PUSH2 0x2585 DUP4 PUSH2 0x252C JUMP JUMPDEST SWAP3 POP PUSH1 0x20 DUP11 ADD SWAP10 POP POP PUSH1 0x1 DUP2 ADD SWAP1 POP PUSH2 0x2561 JUMP JUMPDEST POP DUP3 SWAP8 POP DUP8 SWAP6 POP POP POP POP POP POP SWAP3 SWAP2 POP POP JUMP JUMPDEST PUSH0 PUSH1 0x20 DUP3 ADD SWAP1 POP DUP2 DUP2 SUB PUSH0 DUP4 ADD MSTORE PUSH2 0x25C3 DUP2 DUP5 PUSH2 0x2538 JUMP JUMPDEST SWAP1 POP SWAP3 SWAP2 POP POP JUMP JUMPDEST PUSH0 DUP1 PUSH1 0x40 DUP4 DUP6 SUB SLT ISZERO PUSH2 0x25E1 JUMPI PUSH2 0x25E0 PUSH2 0x1F1F JUMP JUMPDEST JUMPDEST PUSH0 PUSH2 0x25EE DUP6 DUP3 DUP7 ADD PUSH2 0x1F6D JUMP JUMPDEST SWAP3 POP POP PUSH1 0x20 PUSH2 0x25FF DUP6 DUP3 DUP7 ADD PUSH2 0x1F6D JUMP JUMPDEST SWAP2 POP POP SWAP3 POP SWAP3 SWAP1 POP JUMP JUMPDEST PUSH0 DUP2 ISZERO ISZERO SWAP1 POP SWAP2 SWAP1 POP JUMP JUMPDEST PUSH2 0x261D DUP2 PUSH2 0x2609 JUMP JUMPDEST DUP3 MSTORE POP POP JUMP JUMPDEST PUSH0 PUSH1 0x20 DUP3 ADD SWAP1 POP PUSH2 0x2636 PUSH0 DUP4 ADD DUP5 PUSH2 0x2614 JUMP JUMPDEST SWAP3 SWAP2 POP POP JUMP JUMPDEST PUSH0 DUP2 MLOAD SWAP1 POP SWAP2 SWAP1 POP JUMP JUMPDEST PUSH0 DUP3 DUP3 MSTORE PUSH1 0x20 DUP3 ADD SWAP1 POP SWAP3 SWAP2 POP POP JUMP JUMPDEST PUSH0 DUP2 SWAP1 POP PUSH1 0x20 DUP3 ADD SWAP1 POP SWAP2 SWAP1 POP JUMP JUMPDEST PUSH0 PUSH2 0x2670 DUP4 DUP4 PUSH2 0x229C JUMP JUMPDEST PUSH1 0x20 DUP4 ADD SWAP1 POP SWAP3 SWAP2 POP POP JUMP JUMPDEST PUSH0 PUSH1 0x20 DUP3 ADD SWAP1 POP SWAP2 SWAP1 POP JUMP JUMPDEST PUSH0 PUSH2 0x2692 DUP3 PUSH2 0x263C JUMP JUMPDEST PUSH2 0x269C DUP2 DUP6 PUSH2 0x2646 JUMP JUMPDEST SWAP4 POP PUSH2 0x26A7 DUP4 PUSH2 0x2656 JUMP JUMPDEST DUP1 PUSH0 JUMPDEST DUP4 DUP2 LT ISZERO PUSH2 0x26D7 JUMPI DUP2 MLOAD PUSH2 0x26BE DUP9 DUP3 PUSH2 0x2665 JUMP JUMPDEST SWAP8 POP PUSH2 0x26C9 DUP4 PUSH2 0x267C JUMP JUMPDEST SWAP3 POP POP PUSH1 0x1 DUP2 ADD SWAP1 POP PUSH2 0x26AA JUMP JUMPDEST POP DUP6 SWAP4 POP POP POP POP SWAP3 SWAP2 POP POP JUMP JUMPDEST PUSH0 PUSH1 0x20 DUP3 ADD SWAP1 POP DUP2 DUP2 SUB PUSH0 DUP4 ADD MSTORE PUSH2 0x26FC DUP2 DUP5 PUSH2 0x2688 JUMP JUMPDEST SWAP1 POP SWAP3 SWAP2 POP POP JUMP JUMPDEST PUSH0 DUP1 PUSH0 DUP1 PUSH1 0x80 DUP6 DUP8 SUB SLT ISZERO PUSH2 0x271C JUMPI PUSH2 0x271B PUSH2 0x1F1F JUMP JUMPDEST JUMPDEST PUSH0 DUP6 ADD CALLDATALOAD PUSH8 0xFFFFFFFFFFFFFFFF DUP2 GT ISZERO PUSH2 0x2739 JUMPI PUSH2 0x2738 PUSH2 0x1F23 JUMP JUMPDEST JUMPDEST PUSH2 0x2745 DUP8 DUP3 DUP9 ADD PUSH2 0x21A8 JUMP JUMPDEST SWAP5 POP POP PUSH1 0x20 DUP6 ADD CALLDATALOAD PUSH8 0xFFFFFFFFFFFFFFFF DUP2 GT ISZERO PUSH2 0x2766 JUMPI PUSH2 0x2765 PUSH2 0x1F23 JUMP JUMPDEST JUMPDEST PUSH2 0x2772 DUP8 DUP3 DUP9 ADD PUSH2 0x21A8 JUMP JUMPDEST SWAP4 POP POP PUSH1 0x40 PUSH2 0x2783 DUP8 DUP3 DUP9 ADD PUSH2 0x23F4 JUMP JUMPDEST SWAP3 POP POP PUSH1 0x60 DUP6 ADD CALLDATALOAD PUSH8 0xFFFFFFFFFFFFFFFF DUP2 GT ISZERO PUSH2 0x27A4 JUMPI PUSH2 0x27A3 PUSH2 0x1F23 JUMP JUMPDEST JUMPDEST PUSH2 0x27B0 DUP8 DUP3 DUP9 ADD PUSH2 0x21A8 JUMP JUMPDEST SWAP2 POP POP SWAP3 SWAP6 SWAP2 SWAP5 POP SWAP3 POP JUMP JUMPDEST PUSH0 PUSH1 0x80 DUP3 ADD SWAP1 POP DUP2 DUP2 SUB PUSH0 DUP4 ADD MSTORE PUSH2 0x27D4 DUP2 DUP8 PUSH2 0x1FE4 JUMP JUMPDEST SWAP1 POP DUP2 DUP2 SUB PUSH1 0x20 DUP4 ADD MSTORE PUSH2 0x27E8 DUP2 DUP7 PUSH2 0x1FE4 JUMP JUMPDEST SWAP1 POP DUP2 DUP2 SUB PUSH1 0x40 DUP4 ADD MSTORE PUSH2 0x27FC DUP2 DUP6 PUSH2 0x1FE4 JUMP JUMPDEST SWAP1 POP PUSH2 0x280B PUSH1 0x60 DUP4 ADD DUP5 PUSH2 0x2034 JUMP JUMPDEST SWAP6 SWAP5 POP POP POP POP POP JUMP JUMPDEST PUSH0 PUSH1 0xA0 DUP3 ADD SWAP1 POP PUSH2 0x2827 PUSH0 DUP4 ADD DUP9 PUSH2 0x2025 JUMP JUMPDEST DUP2 DUP2 SUB PUSH1 0x20 DUP4 ADD MSTORE PUSH2 0x2839 DUP2 DUP8 PUSH2 0x1FE4 JUMP JUMPDEST SWAP1 POP PUSH2 0x2848 PUSH1 0x40 DUP4 ADD DUP7 PUSH2 0x2034 JUMP JUMPDEST DUP2 DUP2 SUB PUSH1 0x60 DUP4 ADD MSTORE PUSH2 0x285A DUP2 DUP6 PUSH2 0x1FE4 JUMP JUMPDEST SWAP1 POP DUP2 DUP2 SUB PUSH1 0x80 DUP4 ADD MSTORE PUSH2 0x286E DUP2 DUP5 PUSH2 0x1FE4 JUMP JUMPDEST SWAP1 POP SWAP7 SWAP6 POP POP POP POP POP POP JUMP JUMPDEST PUSH32 0x4E487B7100000000000000000000000000000000000000000000000000000000 PUSH0 MSTORE PUSH1 0x22 PUSH1 0x4 MSTORE PUSH1 0x24 PUSH0 REVERT JUMPDEST PUSH0 PUSH1 0x2 DUP3 DIV SWAP1 POP PUSH1 0x1 DUP3 AND DUP1 PUSH2 0x28BE JUMPI PUSH1 0x7F DUP3 AND SWAP2 POP JUMPDEST PUSH1 0x20 DUP3 LT DUP2 SUB PUSH2 0x28D1 JUMPI PUSH2 0x28D0 PUSH2 0x287A JUMP JUMPDEST JUMPDEST POP SWAP2 SWAP1 POP JUMP JUMPDEST PUSH0 DUP2 SWAP1 POP SWAP3 SWAP2 POP POP JUMP JUMPDEST PUSH0 PUSH2 0x28EB DUP3 PUSH2 0x1FAC JUMP JUMPDEST PUSH2 0x28F5 DUP2 DUP6 PUSH2 0x28D7 JUMP JUMPDEST SWAP4 POP PUSH2 0x2905 DUP2 DUP6 PUSH1 0x20 DUP7 ADD PUSH2 0x1FC6 JUMP JUMPDEST DUP1 DUP5 ADD SWAP2 POP POP SWAP3 SWAP2 POP POP JUMP JUMPDEST PUSH0 PUSH2 0x291C DUP3 DUP5 PUSH2 0x28E1 JUMP JUMPDEST SWAP2 POP DUP2 SWAP1 POP SWAP3 SWAP2 POP POP JUMP JUMPDEST PUSH32 0x4E487B7100000000000000000000000000000000000000000000000000000000 PUSH0 MSTORE PUSH1 0x32 PUSH1 0x4 MSTORE PUSH1 0x24 PUSH0 REVERT JUMPDEST PUSH0 DUP2 SWAP1 POP DUP2 PUSH0 MSTORE PUSH1 0x20 PUSH0 KECCAK256 SWAP1 POP SWAP2 SWAP1 POP JUMP JUMPDEST PUSH0 DUP2 SLOAD PUSH2 0x2972 DUP2 PUSH2 0x28A7 JUMP JUMPDEST PUSH2 0x297C DUP2 DUP7 PUSH2 0x28D7 JUMP JUMPDEST SWAP5 POP PUSH1 0x1 DUP3 AND PUSH0 DUP2 EQ PUSH2 0x2996 JUMPI PUSH1 0x1 DUP2 EQ PUSH2 0x29AB JUMPI PUSH2 0x29DD JUMP JUMPDEST PUSH1 0xFF NOT DUP4 AND DUP7 MSTORE DUP2 ISZERO ISZERO DUP3 MUL DUP7 ADD SWAP4 POP PUSH2 0x29DD JUMP JUMPDEST PUSH2 0x29B4 DUP6 PUSH2 0x2954 JUMP JUMPDEST PUSH0 JUMPDEST DUP4 DUP2 LT ISZERO PUSH2 0x29D5 JUMPI DUP2 SLOAD DUP2 DUP10 ADD MSTORE PUSH1 0x1 DUP3 ADD SWAP2 POP PUSH1 0x20 DUP2 ADD SWAP1 POP PUSH2 0x29B6 JUMP JUMPDEST DUP4 DUP9 ADD SWAP6 POP POP POP JUMPDEST POP POP POP SWAP3 SWAP2 POP POP JUMP JUMPDEST PUSH0 PUSH2 0x29F1 DUP3 DUP5 PUSH2 0x2966 JUMP JUMPDEST SWAP2 POP DUP2 SWAP1 POP SWAP3 SWAP2 POP POP JUMP JUMPDEST PUSH32 0x4E487B7100000000000000000000000000000000000000000000000000000000 PUSH0 MSTORE PUSH1 0x11 PUSH1 0x4 MSTORE PUSH1 0x24 PUSH0 REVERT JUMPDEST PUSH0 PUSH2 0x2A33 DUP3 PUSH2 0x201C JUMP JUMPDEST SWAP2 POP PUSH32 0xFFFFFFFFFFFFFFFFFFFFFFFFFFFFFFFFFFFFFFFFFFFFFFFFFFFFFFFFFFFFFFFF DUP3 SUB PUSH2 0x2A65 JUMPI PUSH2 0x2A64 PUSH2 0x29FC JUMP JUMPDEST JUMPDEST PUSH1 0x1 DUP3 ADD SWAP1 POP SWAP2 SWAP1 POP JUMP JUMPDEST PUSH32 0x596F752061726520616C72656164792072656769737465726564206173206569 PUSH0 DUP3 ADD MSTORE PUSH32 0x7468657220612070617469656E74206F72206120646F63746F722E0000000000 PUSH1 0x20 DUP3 ADD MSTORE POP JUMP JUMPDEST PUSH0 PUSH2 0x2ACA PUSH1 0x3B DUP4 PUSH2 0x1FB6 JUMP JUMPDEST SWAP2 POP PUSH2 0x2AD5 DUP3 PUSH2 0x2A70 JUMP JUMPDEST PUSH1 0x40 DUP3 ADD SWAP1 POP SWAP2 SWAP1 POP JUMP JUMPDEST PUSH0 PUSH1 0x20 DUP3 ADD SWAP1 POP DUP2 DUP2 SUB PUSH0 DUP4 ADD MSTORE PUSH2 0x2AF7 DUP2 PUSH2 0x2ABE JUMP JUMPDEST SWAP1 POP SWAP2 SWAP1 POP JUMP JUMPDEST PUSH0 PUSH1 0x20 PUSH1 0x1F DUP4 ADD DIV SWAP1 POP SWAP2 SWAP1 POP JUMP JUMPDEST PUSH0 DUP3 DUP3 SHL SWAP1 POP SWAP3 SWAP2 POP POP JUMP JUMPDEST PUSH0 PUSH1 0x8 DUP4 MUL PUSH2 0x2B48 PUSH32 0xFFFFFFFFFFFFFFFFFFFFFFFFFFFFFFFFFFFFFFFFFFFFFFFFFFFFFFFFFFFFFFFF DUP3 PUSH2 0x2B0D JUMP JUMPDEST PUSH2 0x2B52 DUP7 DUP4 PUSH2 0x2B0D JUMP JUMPDEST SWAP6 POP DUP1 NOT DUP5 AND SWAP4 POP DUP1 DUP7 AND DUP5 OR SWAP3 POP POP POP SWAP4 SWAP3 POP POP POP JUMP JUMPDEST PUSH0 DUP2 SWAP1 POP SWAP2 SWAP1 POP JUMP JUMPDEST PUSH0 PUSH2 0x2B8D PUSH2 0x2B88 PUSH2 0x2B83 DUP5 PUSH2 0x201C JUMP JUMPDEST PUSH2 0x2B6A JUMP JUMPDEST PUSH2 0x201C JUMP JUMPDEST SWAP1 POP SWAP2 SWAP1 POP JUMP JUMPDEST PUSH0 DUP2 SWAP1 POP SWAP2 SWAP1 POP JUMP JUMPDEST PUSH2 0x2BA6 DUP4 PUSH2 0x2B73 JUMP JUMPDEST PUSH2 0x2BBA PUSH2 0x2BB2 DUP3 PUSH2 0x2B94 JUMP JUMPDEST DUP5 DUP5 SLOAD PUSH2 0x2B19 JUMP JUMPDEST DUP3 SSTORE POP POP POP POP JUMP JUMPDEST PUSH0 SWAP1 JUMP JUMPDEST PUSH2 0x2BCE PUSH2 0x2BC2 JUMP JUMPDEST PUSH2 0x2BD9 DUP2 DUP5 DUP5 PUSH2 0x2B9D JUMP JUMPDEST POP POP POP JUMP JUMPDEST JUMPDEST DUP2 DUP2 LT ISZERO PUSH2 0x2BFC JUMPI PUSH2 0x2BF1 PUSH0 DUP3 PUSH2 0x2BC6 JUMP JUMPDEST PUSH1 0x1 DUP2 ADD SWAP1 POP PUSH2 0x2BDF JUMP JUMPDEST POP POP JUMP JUMPDEST PUSH1 0x1F DUP3 GT ISZERO PUSH2 0x2C41 JUMPI PUSH2 0x2C12 DUP2 PUSH2 0x2954 JUMP JUMPDEST PUSH2 0x2C1B DUP5 PUSH2 0x2AFE JUMP JUMPDEST DUP2 ADD PUSH1 0x20 DUP6 LT ISZERO PUSH2 0x2C2A JUMPI DUP2 SWAP1 POP JUMPDEST PUSH2 0x2C3E PUSH2 0x2C36 DUP6 PUSH2 0x2AFE JUMP JUMPDEST DUP4 ADD DUP3 PUSH2 0x2BDE JUMP JUMPDEST POP POP JUMPDEST POP POP POP JUMP JUMPDEST PUSH0 DUP3 DUP3 SHR SWAP1 POP SWAP3 SWAP2 POP POP JUMP JUMPDEST PUSH0 PUSH2 0x2C61 PUSH0 NOT DUP5 PUSH1 0x8 MUL PUSH2 0x2C46 JUMP JUMPDEST NOT DUP1 DUP4 AND SWAP2 POP POP SWAP3 SWAP2 POP POP JUMP JUMPDEST PUSH0 PUSH2 0x2C79 DUP4 DUP4 PUSH2 0x2C52 JUMP JUMPDEST SWAP2 POP DUP3 PUSH1 0x2 MUL DUP3 OR SWAP1 POP SWAP3 SWAP2 POP POP JUMP JUMPDEST PUSH2 0x2C92 DUP3 PUSH2 0x1FAC JUMP JUMPDEST PUSH8 0xFFFFFFFFFFFFFFFF DUP2 GT ISZERO PUSH2 0x2CAB JUMPI PUSH2 0x2CAA PUSH2 0x20B1 JUMP JUMPDEST JUMPDEST PUSH2 0x2CB5 DUP3 SLOAD PUSH2 0x28A7 JUMP JUMPDEST PUSH2 0x2CC0 DUP3 DUP3 DUP6 PUSH2 0x2C00 JUMP JUMPDEST PUSH0 PUSH1 0x20 SWAP1 POP PUSH1 0x1F DUP4 GT PUSH1 0x1 DUP2 EQ PUSH2 0x2CF1 JUMPI PUSH0 DUP5 ISZERO PUSH2 0x2CDF JUMPI DUP3 DUP8 ADD MLOAD SWAP1 POP JUMPDEST PUSH2 0x2CE9 DUP6 DUP3 PUSH2 0x2C6E JUMP JUMPDEST DUP7 SSTORE POP PUSH2 0x2D50 JUMP JUMPDEST PUSH1 0x1F NOT DUP5 AND PUSH2 0x2CFF DUP7 PUSH2 0x2954 JUMP JUMPDEST PUSH0 JUMPDEST DUP3 DUP2 LT ISZERO PUSH2 0x2D26 JUMPI DUP5 DUP10 ADD MLOAD DUP3 SSTORE PUSH1 0x1 DUP3 ADD SWAP2 POP PUSH1 0x20 DUP6 ADD SWAP5 POP PUSH1 0x20 DUP2 ADD SWAP1 POP PUSH2 0x2D01 JUMP JUMPDEST DUP7 DUP4 LT ISZERO PUSH2 0x2D43 JUMPI DUP5 DUP10 ADD MLOAD PUSH2 0x2D3F PUSH1 0x1F DUP10 AND DUP3 PUSH2 0x2C52 JUMP JUMPDEST DUP4 SSTORE POP JUMPDEST PUSH1 0x1 PUSH1 0x2 DUP9 MUL ADD DUP9 SSTORE POP POP POP JUMPDEST POP POP POP POP POP POP JUMP JUMPDEST PUSH32 0x596F7520646F206E6F742068617665207065726D697373696F6E20746F206163 PUSH0 DUP3 ADD MSTORE PUSH32 0x636573732074686973207265636F72642E000000000000000000000000000000 PUSH1 0x20 DUP3 ADD MSTORE POP JUMP JUMPDEST PUSH0 PUSH2 0x2DB2 PUSH1 0x31 DUP4 PUSH2 0x1FB6 JUMP JUMPDEST SWAP2 POP PUSH2 0x2DBD DUP3 PUSH2 0x2D58 JUMP JUMPDEST PUSH1 0x40 DUP3 ADD SWAP1 POP SWAP2 SWAP1 POP JUMP JUMPDEST PUSH0 PUSH1 0x20 DUP3 ADD SWAP1 POP DUP2 DUP2 SUB PUSH0 DUP4 ADD MSTORE PUSH2 0x2DDF DUP2 PUSH2 0x2DA6 JUMP JUMPDEST SWAP1 POP SWAP2 SWAP1 POP JUMP JUMPDEST PUSH32 0x596F7520617265206E6F74207468652070617469656E742E0000000000000000 PUSH0 DUP3 ADD MSTORE POP JUMP JUMPDEST PUSH0 PUSH2 0x2E1A PUSH1 0x18 DUP4 PUSH2 0x1FB6 JUMP JUMPDEST SWAP2 POP PUSH2 0x2E25 DUP3 PUSH2 0x2DE6 JUMP JUMPDEST PUSH1 0x20 DUP3 ADD SWAP1 POP SWAP2 SWAP1 POP JUMP JUMPDEST PUSH0 PUSH1 0x20 DUP3 ADD SWAP1 POP DUP2 DUP2 SUB PUSH0 DUP4 ADD MSTORE PUSH2 0x2E47 DUP2 PUSH2 0x2E0E JUMP JUMPDEST SWAP1 POP SWAP2 SWAP1 POP JUMP INVALID LOG2 PUSH5 0x6970667358 0x22 SLT KECCAK256 INVALID 0xE4 0xC3 0xAB 0xF7 SWAP4 0xAD DUP1 ADD 0xC7 0xD2 PUSH18 0xB70AEB7FAB0C0F107C0E94DCCA322D2295A6 ADDRESS 0xB4 PUSH5 0x736F6C6343 STOP ADDMOD BYTE STOP CALLER "
				},
				"gasEstimates": {
					"creation": {
						"codeDepositCost": "2381600",
						"executionCost": "2558",
						"totalCost": "2384158"
					},
					"external": {
						"accessPermissions(address,address)": "infinite",
						"addOrUpdateRecord(string)": "infinite",
						"audits(uint256)": "infinite",
						"authorizeAccess(address)": "infinite",
						"doctorAddresses(uint256)": "5012",
						"doctors(address)": "infinite",
						"isDoctor(address)": "2900",
						"isPatient(address)": "2856",
						"patientAddresses(uint256)": "4966",
						"patients(address)": "infinite",
						"registerDoctor(string,string,string)": "infinite",
						"registerPatient(string,string,uint256,string)": "infinite",
						"revokeAccess(address)": "infinite",
						"viewAllAudits()": "infinite",
						"viewAllDoctors()": "infinite",
						"viewAllPatients()": "infinite",
						"viewMedicalRecord(address)": "infinite",
						"viewRecordAudit(string)": "infinite"
					},
					"internal": {
						"recordAudit(string memory,string memory)": "infinite"
					}
				},
				"methodIdentifiers": {
					"accessPermissions(address,address)": "64b3b525",
					"addOrUpdateRecord(string)": "6d9ea78c",
					"audits(uint256)": "b60e73db",
					"authorizeAccess(address)": "eed14218",
					"doctorAddresses(uint256)": "3ba51e7c",
					"doctors(address)": "a9583c22",
					"isDoctor(address)": "996440c6",
					"isPatient(address)": "8f9c79ed",
					"patientAddresses(uint256)": "b40f1691",
					"patients(address)": "0869cfbc",
					"registerDoctor(string,string,string)": "50c7a912",
					"registerPatient(string,string,uint256,string)": "96b58fdf",
					"revokeAccess(address)": "85e68531",
					"viewAllAudits()": "be12c4d8",
					"viewAllDoctors()": "d46d2031",
					"viewAllPatients()": "7395be37",
					"viewMedicalRecord(address)": "6052f825",
					"viewRecordAudit(string)": "3710cb19"
				}
			},
			"storageLayout": {
				"storage": [
					{
						"astId": 40,
						"contract": "BlockchainAPP/contract1.sol:ProjetDAPP",
						"label": "patients",
						"offset": 0,
						"slot": "0",
						"type": "t_mapping(t_address,t_struct(Patient)15_storage)"
					},
					{
						"astId": 45,
						"contract": "BlockchainAPP/contract1.sol:ProjetDAPP",
						"label": "doctors",
						"offset": 0,
						"slot": "1",
						"type": "t_mapping(t_address,t_struct(Doctor)24_storage)"
					},
					{
						"astId": 51,
						"contract": "BlockchainAPP/contract1.sol:ProjetDAPP",
						"label": "accessPermissions",
						"offset": 0,
						"slot": "2",
						"type": "t_mapping(t_address,t_mapping(t_address,t_bool))"
					},
					{
						"astId": 55,
						"contract": "BlockchainAPP/contract1.sol:ProjetDAPP",
						"label": "audits",
						"offset": 0,
						"slot": "3",
						"type": "t_array(t_struct(Audit)35_storage)dyn_storage"
					},
					{
						"astId": 58,
						"contract": "BlockchainAPP/contract1.sol:ProjetDAPP",
						"label": "patientAddresses",
						"offset": 0,
						"slot": "4",
						"type": "t_array(t_address)dyn_storage"
					},
					{
						"astId": 61,
						"contract": "BlockchainAPP/contract1.sol:ProjetDAPP",
						"label": "doctorAddresses",
						"offset": 0,
						"slot": "5",
						"type": "t_array(t_address)dyn_storage"
					},
					{
						"astId": 65,
						"contract": "BlockchainAPP/contract1.sol:ProjetDAPP",
						"label": "isPatient",
						"offset": 0,
						"slot": "6",
						"type": "t_mapping(t_address,t_bool)"
					},
					{
						"astId": 69,
						"contract": "BlockchainAPP/contract1.sol:ProjetDAPP",
						"label": "isDoctor",
						"offset": 0,
						"slot": "7",
						"type": "t_mapping(t_address,t_bool)"
					}
				],
				"types": {
					"t_address": {
						"encoding": "inplace",
						"label": "address",
						"numberOfBytes": "20"
					},
					"t_array(t_address)dyn_storage": {
						"base": "t_address",
						"encoding": "dynamic_array",
						"label": "address[]",
						"numberOfBytes": "32"
					},
					"t_array(t_string_storage)dyn_storage": {
						"base": "t_string_storage",
						"encoding": "dynamic_array",
						"label": "string[]",
						"numberOfBytes": "32"
					},
					"t_array(t_struct(Audit)35_storage)dyn_storage": {
						"base": "t_struct(Audit)35_storage",
						"encoding": "dynamic_array",
						"label": "struct ProjetDAPP.Audit[]",
						"numberOfBytes": "32"
					},
					"t_bool": {
						"encoding": "inplace",
						"label": "bool",
						"numberOfBytes": "1"
					},
					"t_mapping(t_address,t_bool)": {
						"encoding": "mapping",
						"key": "t_address",
						"label": "mapping(address => bool)",
						"numberOfBytes": "32",
						"value": "t_bool"
					},
					"t_mapping(t_address,t_mapping(t_address,t_bool))": {
						"encoding": "mapping",
						"key": "t_address",
						"label": "mapping(address => mapping(address => bool))",
						"numberOfBytes": "32",
						"value": "t_mapping(t_address,t_bool)"
					},
					"t_mapping(t_address,t_struct(Doctor)24_storage)": {
						"encoding": "mapping",
						"key": "t_address",
						"label": "mapping(address => struct ProjetDAPP.Doctor)",
						"numberOfBytes": "32",
						"value": "t_struct(Doctor)24_storage"
					},
					"t_mapping(t_address,t_struct(Patient)15_storage)": {
						"encoding": "mapping",
						"key": "t_address",
						"label": "mapping(address => struct ProjetDAPP.Patient)",
						"numberOfBytes": "32",
						"value": "t_struct(Patient)15_storage"
					},
					"t_string_storage": {
						"encoding": "bytes",
						"label": "string",
						"numberOfBytes": "32"
					},
					"t_struct(Audit)35_storage": {
						"encoding": "inplace",
						"label": "struct ProjetDAPP.Audit",
						"members": [
							{
								"astId": 26,
								"contract": "BlockchainAPP/contract1.sol:ProjetDAPP",
								"label": "timestamp",
								"offset": 0,
								"slot": "0",
								"type": "t_uint256"
							},
							{
								"astId": 28,
								"contract": "BlockchainAPP/contract1.sol:ProjetDAPP",
								"label": "action",
								"offset": 0,
								"slot": "1",
								"type": "t_string_storage"
							},
							{
								"astId": 30,
								"contract": "BlockchainAPP/contract1.sol:ProjetDAPP",
								"label": "user",
								"offset": 0,
								"slot": "2",
								"type": "t_address"
							},
							{
								"astId": 32,
								"contract": "BlockchainAPP/contract1.sol:ProjetDAPP",
								"label": "recordHash",
								"offset": 0,
								"slot": "3",
								"type": "t_string_storage"
							},
							{
								"astId": 34,
								"contract": "BlockchainAPP/contract1.sol:ProjetDAPP",
								"label": "actionType",
								"offset": 0,
								"slot": "4",
								"type": "t_string_storage"
							}
						],
						"numberOfBytes": "160"
					},
					"t_struct(Doctor)24_storage": {
						"encoding": "inplace",
						"label": "struct ProjetDAPP.Doctor",
						"members": [
							{
								"astId": 17,
								"contract": "BlockchainAPP/contract1.sol:ProjetDAPP",
								"label": "firstName",
								"offset": 0,
								"slot": "0",
								"type": "t_string_storage"
							},
							{
								"astId": 19,
								"contract": "BlockchainAPP/contract1.sol:ProjetDAPP",
								"label": "lastName",
								"offset": 0,
								"slot": "1",
								"type": "t_string_storage"
							},
							{
								"astId": 21,
								"contract": "BlockchainAPP/contract1.sol:ProjetDAPP",
								"label": "specialty",
								"offset": 0,
								"slot": "2",
								"type": "t_string_storage"
							},
							{
								"astId": 23,
								"contract": "BlockchainAPP/contract1.sol:ProjetDAPP",
								"label": "doctorAddress",
								"offset": 0,
								"slot": "3",
								"type": "t_address"
							}
						],
						"numberOfBytes": "128"
					},
					"t_struct(Patient)15_storage": {
						"encoding": "inplace",
						"label": "struct ProjetDAPP.Patient",
						"members": [
							{
								"astId": 3,
								"contract": "BlockchainAPP/contract1.sol:ProjetDAPP",
								"label": "firstName",
								"offset": 0,
								"slot": "0",
								"type": "t_string_storage"
							},
							{
								"astId": 5,
								"contract": "BlockchainAPP/contract1.sol:ProjetDAPP",
								"label": "lastName",
								"offset": 0,
								"slot": "1",
								"type": "t_string_storage"
							},
							{
								"astId": 7,
								"contract": "BlockchainAPP/contract1.sol:ProjetDAPP",
								"label": "birthDate",
								"offset": 0,
								"slot": "2",
								"type": "t_uint256"
							},
							{
								"astId": 9,
								"contract": "BlockchainAPP/contract1.sol:ProjetDAPP",
								"label": "addressDetails",
								"offset": 0,
								"slot": "3",
								"type": "t_string_storage"
							},
							{
								"astId": 11,
								"contract": "BlockchainAPP/contract1.sol:ProjetDAPP",
								"label": "patientAddress",
								"offset": 0,
								"slot": "4",
								"type": "t_address"
							},
							{
								"astId": 14,
								"contract": "BlockchainAPP/contract1.sol:ProjetDAPP",
								"label": "medicalHistory",
								"offset": 0,
								"slot": "5",
								"type": "t_array(t_string_storage)dyn_storage"
							}
						],
						"numberOfBytes": "192"
					},
					"t_uint256": {
						"encoding": "inplace",
						"label": "uint256",
						"numberOfBytes": "32"
					}
				}
			},
			"userdoc": {
				"kind": "user",
				"methods": {},
				"version": 1
			}
		}
	}
}